{
  "address": "0x21d366ee3bbf67ab057c517380d37e54ffd9dfc0",
  "abi": [
    {
      "inputs": [
        {
          "components": [
            {
              "internalType": "uint256",
              "name": "startTime",
              "type": "uint256"
            },
            {
              "internalType": "uint256",
              "name": "commitPhaseDuration",
              "type": "uint256"
            },
            {
              "internalType": "uint256",
              "name": "revealPhaseDuration",
              "type": "uint256"
            },
            {
              "internalType": "contract ITime",
              "name": "time",
              "type": "address"
            },
            {
              "internalType": "contract IERC721",
              "name": "avatars",
              "type": "address"
            }
          ],
          "internalType": "struct UsingGameTypes.Config",
          "name": "config",
          "type": "tuple"
        }
      ],
      "stateMutability": "nonpayable",
      "type": "constructor"
    },
    {
      "inputs": [
        {
          "internalType": "uint256",
          "name": "avatarID",
          "type": "uint256"
        }
      ],
      "name": "AvatarAlreadyInGame",
      "type": "error"
    },
    {
      "inputs": [
        {
          "internalType": "uint256",
          "name": "avatarID",
          "type": "uint256"
        }
      ],
      "name": "AvatarIsDead",
      "type": "error"
    },
    {
      "inputs": [
        {
          "internalType": "uint256",
          "name": "avatarID",
          "type": "uint256"
        }
      ],
      "name": "AvatarNotAvailable",
      "type": "error"
    },
    {
      "inputs": [
        {
          "internalType": "uint256",
          "name": "avatarID",
          "type": "uint256"
        }
      ],
      "name": "AvatarNotInGame",
      "type": "error"
    },
    {
      "inputs": [
        {
          "internalType": "uint256",
          "name": "avatarID",
          "type": "uint256"
        }
      ],
      "name": "AvatarNotReady",
      "type": "error"
    },
    {
      "inputs": [
        {
          "internalType": "uint256",
          "name": "avatarID",
          "type": "uint256"
        }
      ],
      "name": "AvatarStillInGame",
      "type": "error"
    },
    {
      "inputs": [],
      "name": "CanStillReveal",
      "type": "error"
    },
    {
      "inputs": [],
      "name": "CommitmentHashNotMatching",
      "type": "error"
    },
    {
      "inputs": [],
      "name": "GameNotStarted",
      "type": "error"
    },
    {
      "inputs": [],
      "name": "ImpossibleConfiguration",
      "type": "error"
    },
    {
      "inputs": [],
      "name": "InCommitmentPhase",
      "type": "error"
    },
    {
      "inputs": [],
      "name": "InRevealPhase",
      "type": "error"
    },
    {
      "inputs": [],
      "name": "InvalidData",
      "type": "error"
    },
    {
      "inputs": [],
      "name": "InvalidEpoch",
      "type": "error"
    },
    {
      "inputs": [],
      "name": "NoCommitmentToCancel",
      "type": "error"
    },
    {
      "inputs": [
        {
          "internalType": "address",
          "name": "account",
          "type": "address"
        }
      ],
      "name": "NotAuthorizedController",
      "type": "error"
    },
    {
      "inputs": [
        {
          "internalType": "address",
          "name": "account",
          "type": "address"
        }
      ],
      "name": "NotAuthorizedOwner",
      "type": "error"
    },
    {
      "inputs": [],
      "name": "NothingToReveal",
      "type": "error"
    },
    {
      "inputs": [],
      "name": "OnlyAvatarsAreAccepted",
      "type": "error"
    },
    {
      "inputs": [],
      "name": "PreviousCommitmentNotRevealed",
      "type": "error"
    },
    {
      "inputs": [
        {
          "internalType": "uint64",
          "name": "position",
          "type": "uint64"
        }
      ],
      "name": "UnableToExitFromThisPosition",
      "type": "error"
    },
    {
      "anonymous": false,
      "inputs": [
        {
          "indexed": true,
          "internalType": "uint256",
          "name": "avatarID",
          "type": "uint256"
        },
        {
          "indexed": true,
          "internalType": "address",
          "name": "owner",
          "type": "address"
        },
        {
          "indexed": false,
          "internalType": "address",
          "name": "controller",
          "type": "address"
        }
      ],
      "name": "AvatarDeposited",
      "type": "event"
    },
    {
      "anonymous": false,
      "inputs": [
        {
          "indexed": true,
          "internalType": "uint256",
          "name": "avatarID",
          "type": "uint256"
        }
      ],
      "name": "AvatarWithdrawn",
      "type": "event"
    },
    {
      "anonymous": false,
      "inputs": [
        {
          "indexed": true,
          "internalType": "uint256",
          "name": "avatarID",
          "type": "uint256"
        },
        {
          "indexed": true,
          "internalType": "uint64",
          "name": "epoch",
          "type": "uint64"
        }
      ],
      "name": "CommitmentCancelled",
      "type": "event"
    },
    {
      "anonymous": false,
      "inputs": [
        {
          "indexed": true,
          "internalType": "uint256",
          "name": "avatarID",
          "type": "uint256"
        },
        {
          "indexed": true,
          "internalType": "uint64",
          "name": "epoch",
          "type": "uint64"
        },
        {
          "indexed": false,
          "internalType": "bytes24",
          "name": "commitmentHash",
          "type": "bytes24"
        }
      ],
      "name": "CommitmentMade",
      "type": "event"
    },
    {
      "anonymous": false,
      "inputs": [
        {
          "indexed": true,
          "internalType": "uint256",
          "name": "avatarID",
          "type": "uint256"
        },
        {
          "indexed": true,
          "internalType": "uint64",
          "name": "epoch",
          "type": "uint64"
        },
        {
          "indexed": true,
          "internalType": "uint64",
          "name": "zone",
          "type": "uint64"
        },
        {
          "indexed": false,
          "internalType": "bytes24",
          "name": "commitmentHash",
          "type": "bytes24"
        },
        {
          "components": [
            {
              "internalType": "enum UsingGameTypes.ActionType",
              "name": "actionType",
              "type": "uint8"
            },
            {
              "internalType": "uint128",
              "name": "data",
              "type": "uint128"
            }
          ],
          "indexed": false,
          "internalType": "struct UsingGameTypes.Action[]",
          "name": "actions",
          "type": "tuple[]"
        }
      ],
      "name": "CommitmentRevealed",
      "type": "event"
    },
    {
      "anonymous": false,
      "inputs": [
        {
          "indexed": true,
          "internalType": "uint256",
          "name": "avatarID",
          "type": "uint256"
        },
        {
          "indexed": true,
          "internalType": "uint64",
          "name": "epoch",
          "type": "uint64"
        }
      ],
      "name": "CommitmentVoid",
      "type": "event"
    },
    {
      "anonymous": false,
      "inputs": [
        {
          "indexed": true,
          "internalType": "uint256",
          "name": "avatarID",
          "type": "uint256"
        },
        {
          "indexed": true,
          "internalType": "uint64",
          "name": "epoch",
          "type": "uint64"
        },
        {
          "indexed": true,
          "internalType": "uint64",
          "name": "zone",
          "type": "uint64"
        },
        {
          "indexed": false,
          "internalType": "uint64",
          "name": "newPosition",
          "type": "uint64"
        }
      ],
      "name": "EnteredTheGame",
      "type": "event"
    },
    {
      "anonymous": false,
      "inputs": [
        {
          "indexed": true,
          "internalType": "uint256",
          "name": "avatarID",
          "type": "uint256"
        },
        {
          "indexed": true,
          "internalType": "uint64",
          "name": "epoch",
          "type": "uint64"
        },
        {
          "indexed": true,
          "internalType": "uint64",
          "name": "zoneWhenLeaving",
          "type": "uint64"
        },
        {
          "indexed": false,
          "internalType": "uint64",
          "name": "positionWhenLeaving",
          "type": "uint64"
        }
      ],
      "name": "LeftTheGame",
      "type": "event"
    },
    {
      "inputs": [
        {
          "internalType": "address",
          "name": "owner",
          "type": "address"
        },
        {
          "internalType": "uint256",
          "name": "startIndex",
          "type": "uint256"
        },
        {
          "internalType": "uint256",
          "name": "limit",
          "type": "uint256"
        }
      ],
      "name": "avatarsPerOwner",
      "outputs": [
        {
          "components": [
            {
              "internalType": "uint256",
              "name": "avatarID",
              "type": "uint256"
            },
            {
              "internalType": "bool",
              "name": "inGame",
              "type": "bool"
            },
            {
              "internalType": "uint64",
              "name": "position",
              "type": "uint64"
            }
          ],
          "internalType": "struct UsingGameTypes.AvatarStatus[]",
          "name": "avatarIDs",
          "type": "tuple[]"
        },
        {
          "internalType": "bool",
          "name": "more",
          "type": "bool"
        }
      ],
      "stateMutability": "view",
      "type": "function"
    },
    {
      "inputs": [
        {
          "internalType": "uint256",
          "name": "avatarID",
          "type": "uint256"
        },
        {
          "internalType": "address",
          "name": "controller",
          "type": "address"
        },
        {
          "internalType": "address payable",
          "name": "payee",
          "type": "address"
        }
      ],
      "name": "deposit",
      "outputs": [],
      "stateMutability": "payable",
      "type": "function"
    },
    {
      "inputs": [
        {
          "internalType": "address",
          "name": "",
          "type": "address"
        },
        {
          "internalType": "address",
          "name": "",
          "type": "address"
        },
        {
          "internalType": "uint256",
          "name": "tokenID",
          "type": "uint256"
        },
        {
          "internalType": "bytes",
          "name": "data",
          "type": "bytes"
        }
      ],
      "name": "onERC721Received",
      "outputs": [
        {
          "internalType": "bytes4",
          "name": "",
          "type": "bytes4"
        }
      ],
      "stateMutability": "nonpayable",
      "type": "function"
    },
    {
      "inputs": [
        {
          "internalType": "uint256",
          "name": "avatarID",
          "type": "uint256"
        },
        {
          "internalType": "address",
          "name": "to",
          "type": "address"
        }
      ],
      "name": "withdraw",
      "outputs": [],
      "stateMutability": "nonpayable",
      "type": "function"
    }
  ],
  "contractName": "GameDeposit",
  "sourceName": "src/game/routes/GameDeposit.sol",
  "bytecode": "0x610120604052348015610010575f5ffd5b50604051610cd4380380610cd483398101604081905261002f91610082565b60608101516001600160a01b039081166080908152825160a052602083015160c052604083015160e052909101511661010052610106565b80516001600160a01b038116811461007d575f5ffd5b919050565b5f60a0828403128015610093575f5ffd5b5060405160a081016001600160401b03811182821017156100c257634e487b7160e01b5f52604160045260245ffd5b6040908152835182526020808501519083015283810151908201526100e960608401610067565b60608201526100fa60808401610067565b60808201529392505050565b60805160a05160c05160e05161010051610b8f6101455f395f818161011f01528181610240015261073701525f50505f50505f50505f5050610b8f5ff3fe60806040526004361061003d575f3560e01c8062f714ce14610041578063150b7a02146100625780632e2d2984146100b75780638aa6adcd146100ca575b5f5ffd5b34801561004c575f5ffd5b5061006061005b36600461089a565b6100f7565b005b34801561006d575f5ffd5b5061008161007c3660046108c8565b610106565b6040517fffffffff0000000000000000000000000000000000000000000000000000000090911681526020015b60405180910390f35b6100606100c5366004610961565b6101fa565b3480156100d5575f5ffd5b506100e96100e43660046109a0565b61031b565b6040516100ae9291906109d2565b61010233838361052d565b5050565b5f3373ffffffffffffffffffffffffffffffffffffffff7f00000000000000000000000000000000000000000000000000000000000000001614610176576040517fc62023e100000000000000000000000000000000000000000000000000000000815260040160405180910390fd5b604082146101b0576040517f5cb045db00000000000000000000000000000000000000000000000000000000815260040160405180910390fd5b5f806101be84860186610a4d565b915091506101cd868383610796565b507f150b7a0200000000000000000000000000000000000000000000000000000000979650505050505050565b610205833384610796565b6040517f23b872dd000000000000000000000000000000000000000000000000000000008152336004820152306024820152604481018490527f000000000000000000000000000000000000000000000000000000000000000073ffffffffffffffffffffffffffffffffffffffff16906323b872dd906064015f604051808303815f87803b158015610296575f5ffd5b505af11580156102a8573d5f5f3e3d5ffd5b5050505073ffffffffffffffffffffffffffffffffffffffff8116158015906102d057503415155b156103165760405173ffffffffffffffffffffffffffffffffffffffff8216903480156108fc02915f818181858888f19350505050158015610314573d5f5f3e3d5ffd5b505b505050565b73ffffffffffffffffffffffffffffffffffffffff83165f90815260026020526040812054606091908085106103b657604080515f80825260208201909252906103aa565b604080516060810182525f80825260208083018290529282015282527fffffffffffffffffffffffffffffffffffffffffffffffffffffffffffffffff9092019101816103605790505b505f9250925050610525565b5f6103c18683610ad3565b90505f8186116103d157856103d3565b815b90505f8167ffffffffffffffff8111156103ef576103ef610a79565b60405190808252806020026020018201604052801561045757816020015b604080516060810182525f80825260208083018290529282015282527fffffffffffffffffffffffffffffffffffffffffffffffffffffffffffffffff90920191018161040d5790505b5090505f5b8281101561051a5773ffffffffffffffffffffffffffffffffffffffff8a165f908152600260205260408120610492838c610aec565b815481106104a2576104a2610aff565b5f91825260208083209190910154808352600182526040928390208351606081018552828152815460ff811615159482019490945261010090930467ffffffffffffffff1693830193909352855190935085908590811061050557610505610aff565b6020908102919091010152505060010161045c565b509450851415925050505b935093915050565b5f8281526020819052604090205473ffffffffffffffffffffffffffffffffffffffff8481169116146105a9576040517f281204ca00000000000000000000000000000000000000000000000000000000815273ffffffffffffffffffffffffffffffffffffffff841660048201526024015b60405180910390fd5b5f8281526001602052604090205460ff16156105f4576040517f338a4bfa000000000000000000000000000000000000000000000000000000008152600481018390526024016105a0565b73ffffffffffffffffffffffffffffffffffffffff83165f908152600260205260408120805490919061062990600190610ad3565b5f85815260036020526040902054909150808214610691575f83838154811061065457610654610aff565b905f5260205f20015490508084838154811061067257610672610aff565b5f91825260208083209091019290925591825260039052604090208190555b5f8581526003602052604081205582548390806106b0576106b0610b2c565b5f8281526020812082017fffffffffffffffffffffffffffffffffffffffffffffffffffffffffffffffff908101919091550190556040517f42842e0e00000000000000000000000000000000000000000000000000000000815230600482015273ffffffffffffffffffffffffffffffffffffffff8581166024830152604482018790527f000000000000000000000000000000000000000000000000000000000000000016906342842e0e906064015f604051808303815f87803b158015610778575f5ffd5b505af115801561078a573d5f5f3e3d5ffd5b50505050505050505050565b60408051808201825273ffffffffffffffffffffffffffffffffffffffff84811680835284821660208085018281525f8a8152808352878120965187549087167fffffffffffffffffffffffff00000000000000000000000000000000000000009182161788559151600197880180549190971692169190911790945582845260028152858420805495860181558452808420850189905588845260038152928590208490559351938452919286917f1102f20f53da6bfcd9c12efd784772ec13ae7ddb8fd1ded65d761848ae2f2fa5910160405180910390a350505050565b73ffffffffffffffffffffffffffffffffffffffff81168114610897575f5ffd5b50565b5f5f604083850312156108ab575f5ffd5b8235915060208301356108bd81610876565b809150509250929050565b5f5f5f5f5f608086880312156108dc575f5ffd5b85356108e781610876565b945060208601356108f781610876565b935060408601359250606086013567ffffffffffffffff811115610919575f5ffd5b8601601f81018813610929575f5ffd5b803567ffffffffffffffff81111561093f575f5ffd5b886020828401011115610950575f5ffd5b959894975092955050506020019190565b5f5f5f60608486031215610973575f5ffd5b83359250602084013561098581610876565b9150604084013561099581610876565b809150509250925092565b5f5f5f606084860312156109b2575f5ffd5b83356109bd81610876565b95602085013595506040909401359392505050565b604080825283519082018190525f9060208501906060840190835b81811015610a335783518051845260208101511515602085015267ffffffffffffffff6040820151166040850152506060830192506020840193506001810190506109ed565b505084151560208501529150610a469050565b9392505050565b5f5f60408385031215610a5e575f5ffd5b8235610a6981610876565b915060208301356108bd81610876565b7f4e487b71000000000000000000000000000000000000000000000000000000005f52604160045260245ffd5b7f4e487b71000000000000000000000000000000000000000000000000000000005f52601160045260245ffd5b81810381811115610ae657610ae6610aa6565b92915050565b80820180821115610ae657610ae6610aa6565b7f4e487b71000000000000000000000000000000000000000000000000000000005f52603260045260245ffd5b7f4e487b71000000000000000000000000000000000000000000000000000000005f52603160045260245ffdfea26469706673582212207c2264df0322ea7209b9d34db7174e7c26e03bf6fb5db1154d5627dacadde18a64736f6c634300081c0033",
  "linkReferences": {},
  "deployedLinkReferences": {},
  "immutableReferences": {
    "10208": [
      {
        "length": 32,
        "start": 287
      },
      {
        "length": 32,
        "start": 576
      },
      {
        "length": 32,
        "start": 1847
      }
    ]
  },
  "inputSourceName": "project/src/game/routes/GameDeposit.sol",
  "devdoc": {
    "errors": {
      "AvatarIsDead(uint256)": [
        {
          "params": {
            "avatarID": "the id of the dead avatar The avatar is dead, no action possible"
          }
        }
      ]
    },
    "events": {
      "AvatarDeposited(uint256,address,address)": {
        "params": {
          "avatarID": "the id of the NFT being deposited",
          "controller": "the account authorized to control the avatar in-game",
          "owner": "the account authorized to get the avatar back"
        }
      },
      "AvatarWithdrawn(uint256)": {
        "params": {
          "avatarID": "the id of the NFT being transfered out"
        }
      },
      "CommitmentCancelled(uint256,uint64)": {
        "params": {
          "avatarID": "avatar whose commitment is cancelled",
          "epoch": "epoch number on which this commit belongs to"
        }
      },
      "CommitmentMade(uint256,uint64,bytes24)": {
        "params": {
          "avatarID": "avatar whose commitment is made",
          "commitmentHash": "the hash of moves",
          "epoch": "epoch number on which this commit belongs to"
        }
      },
      "CommitmentRevealed(uint256,uint64,uint64,bytes24,(uint8,uint128)[])": {
        "params": {
          "actions": "the actions",
          "avatarID": "avatar id whose action is commited",
          "commitmentHash": "the hash of the moves",
          "epoch": "epoch number on which this commit belongs to"
        }
      },
      "CommitmentVoid(uint256,uint64)": {
        "params": {
          "avatarID": "the account that made the commitment",
          "epoch": "epoch number on which this commit belongs to"
        }
      },
      "EnteredTheGame(uint256,uint64,uint64,uint64)": {
        "params": {
          "avatarID": "the id of the NFT being added",
          "epoch": "the epoch at which it happened",
          "newPosition": "the resulting avatar's position",
          "zone": "the resulting avatar's zone"
        }
      },
      "LeftTheGame(uint256,uint64,uint64,uint64)": {
        "params": {
          "avatarID": "the id of the NFT being removed",
          "epoch": "the epoch at which it happened",
          "positionWhenLeaving": "the avatar's position when leaving",
          "zoneWhenLeaving": "the avatar's zone when leaving"
        }
      }
    },
    "kind": "dev",
    "methods": {},
    "version": 1
  },
  "evm": {
    "gasEstimates": {
      "creation": {
        "codeDepositCost": "591800",
        "executionCost": "infinite",
        "totalCost": "infinite"
      },
      "external": {
        "avatarsPerOwner(address,uint256,uint256)": "infinite",
        "deposit(uint256,address,address)": "infinite",
        "onERC721Received(address,address,uint256,bytes)": "infinite",
        "withdraw(uint256,address)": "infinite"
      }
    }
  },
  "storageLayout": {
    "storage": [
      {
        "astId": 10217,
        "contract": "project/src/game/routes/GameDeposit.sol:GameDeposit",
        "label": "_players",
        "offset": 0,
        "slot": "0",
        "type": "t_mapping(t_uint256,t_struct(Player)8638_storage)"
      },
      {
        "astId": 10222,
        "contract": "project/src/game/routes/GameDeposit.sol:GameDeposit",
        "label": "_avatars",
        "offset": 0,
        "slot": "1",
        "type": "t_mapping(t_uint256,t_struct(Avatar)8645_storage)"
      },
      {
        "astId": 10227,
        "contract": "project/src/game/routes/GameDeposit.sol:GameDeposit",
        "label": "_ownedAvatars",
        "offset": 0,
        "slot": "2",
        "type": "t_mapping(t_address,t_array(t_uint256)dyn_storage)"
      },
      {
        "astId": 10231,
        "contract": "project/src/game/routes/GameDeposit.sol:GameDeposit",
        "label": "_ownedAvatarsIndex",
        "offset": 0,
        "slot": "3",
        "type": "t_mapping(t_uint256,t_uint256)"
      },
      {
        "astId": 10236,
        "contract": "project/src/game/routes/GameDeposit.sol:GameDeposit",
        "label": "_commitments",
        "offset": 0,
        "slot": "4",
        "type": "t_mapping(t_uint256,t_struct(Commitment)8654_storage)"
      },
      {
        "astId": 10241,
        "contract": "project/src/game/routes/GameDeposit.sol:GameDeposit",
        "label": "_zones",
        "offset": 0,
        "slot": "5",
        "type": "t_mapping(t_uint64,t_struct(Zone)8649_storage)"
      }
    ],
    "types": {
      "t_address": {
        "encoding": "inplace",
        "label": "address",
        "numberOfBytes": "20"
      },
      "t_array(t_uint256)dyn_storage": {
        "base": "t_uint256",
        "encoding": "dynamic_array",
        "label": "uint256[]",
        "numberOfBytes": "32"
      },
      "t_bool": {
        "encoding": "inplace",
        "label": "bool",
        "numberOfBytes": "1"
      },
      "t_bytes24": {
        "encoding": "inplace",
        "label": "bytes24",
        "numberOfBytes": "24"
      },
      "t_mapping(t_address,t_array(t_uint256)dyn_storage)": {
        "encoding": "mapping",
        "key": "t_address",
        "label": "mapping(address => uint256[])",
        "numberOfBytes": "32",
        "value": "t_array(t_uint256)dyn_storage"
      },
      "t_mapping(t_uint256,t_struct(Avatar)8645_storage)": {
        "encoding": "mapping",
        "key": "t_uint256",
        "label": "mapping(uint256 => struct UsingGameTypes.Avatar)",
        "numberOfBytes": "32",
        "value": "t_struct(Avatar)8645_storage"
      },
      "t_mapping(t_uint256,t_struct(Commitment)8654_storage)": {
        "encoding": "mapping",
        "key": "t_uint256",
        "label": "mapping(uint256 => struct UsingGameTypes.Commitment)",
        "numberOfBytes": "32",
        "value": "t_struct(Commitment)8654_storage"
      },
      "t_mapping(t_uint256,t_struct(Player)8638_storage)": {
        "encoding": "mapping",
        "key": "t_uint256",
        "label": "mapping(uint256 => struct UsingGameTypes.Player)",
        "numberOfBytes": "32",
        "value": "t_struct(Player)8638_storage"
      },
      "t_mapping(t_uint256,t_uint256)": {
        "encoding": "mapping",
        "key": "t_uint256",
        "label": "mapping(uint256 => uint256)",
        "numberOfBytes": "32",
        "value": "t_uint256"
      },
      "t_mapping(t_uint64,t_struct(Zone)8649_storage)": {
        "encoding": "mapping",
        "key": "t_uint64",
        "label": "mapping(uint64 => struct UsingGameTypes.Zone)",
        "numberOfBytes": "32",
        "value": "t_struct(Zone)8649_storage"
      },
      "t_struct(Avatar)8645_storage": {
        "encoding": "inplace",
        "label": "struct UsingGameTypes.Avatar",
        "members": [
          {
            "astId": 8640,
            "contract": "project/src/game/routes/GameDeposit.sol:GameDeposit",
            "label": "inGame",
            "offset": 0,
            "slot": "0",
            "type": "t_bool"
          },
          {
            "astId": 8642,
            "contract": "project/src/game/routes/GameDeposit.sol:GameDeposit",
            "label": "position",
            "offset": 1,
            "slot": "0",
            "type": "t_uint64"
          },
          {
            "astId": 8644,
            "contract": "project/src/game/routes/GameDeposit.sol:GameDeposit",
            "label": "zoneIndex",
            "offset": 9,
            "slot": "0",
            "type": "t_uint64"
          }
        ],
        "numberOfBytes": "32"
      },
      "t_struct(Commitment)8654_storage": {
        "encoding": "inplace",
        "label": "struct UsingGameTypes.Commitment",
        "members": [
          {
            "astId": 8651,
            "contract": "project/src/game/routes/GameDeposit.sol:GameDeposit",
            "label": "hash",
            "offset": 0,
            "slot": "0",
            "type": "t_bytes24"
          },
          {
            "astId": 8653,
            "contract": "project/src/game/routes/GameDeposit.sol:GameDeposit",
            "label": "epoch",
            "offset": 24,
            "slot": "0",
            "type": "t_uint64"
          }
        ],
        "numberOfBytes": "32"
      },
      "t_struct(Player)8638_storage": {
        "encoding": "inplace",
        "label": "struct UsingGameTypes.Player",
        "members": [
          {
            "astId": 8635,
            "contract": "project/src/game/routes/GameDeposit.sol:GameDeposit",
            "label": "owner",
            "offset": 0,
            "slot": "0",
            "type": "t_address"
          },
          {
            "astId": 8637,
            "contract": "project/src/game/routes/GameDeposit.sol:GameDeposit",
            "label": "controller",
            "offset": 0,
            "slot": "1",
            "type": "t_address"
          }
        ],
        "numberOfBytes": "64"
      },
      "t_struct(Zone)8649_storage": {
        "encoding": "inplace",
        "label": "struct UsingGameTypes.Zone",
        "members": [
          {
            "astId": 8648,
            "contract": "project/src/game/routes/GameDeposit.sol:GameDeposit",
            "label": "avatars",
            "offset": 0,
            "slot": "0",
            "type": "t_array(t_uint256)dyn_storage"
          }
        ],
        "numberOfBytes": "32"
      },
      "t_uint256": {
        "encoding": "inplace",
        "label": "uint256",
        "numberOfBytes": "32"
      },
      "t_uint64": {
        "encoding": "inplace",
        "label": "uint64",
        "numberOfBytes": "8"
      }
    }
  },
  "userdoc": {
    "errors": {
      "AvatarAlreadyInGame(uint256)": [
        {
          "notice": "happen when attempting to enter an avatar already in the game"
        }
      ],
      "AvatarIsDead(uint256)": [
        {
          "notice": "Player have to reveal if they can"
        }
      ],
      "AvatarNotAvailable(uint256)": [
        {
          "notice": "happen when attempting to move an avatar not in the game"
        }
      ],
      "AvatarNotInGame(uint256)": [
        {
          "notice": "happen when attempting to move an avatar not in the game"
        }
      ],
      "AvatarNotReady(uint256)": [
        {
          "notice": "happen when attempting to move an avatar that just entered the game. \\  It needs to wait the next epoch"
        }
      ],
      "AvatarStillInGame(uint256)": [
        {
          "notice": "happen when attempting to extract an avatar still in the game"
        }
      ],
      "CanStillReveal()": [
        {
          "notice": "Player have to reveal if they can prevent player from acknowledging missed reveal if there is still time to reveal."
        }
      ],
      "CommitmentHashNotMatching()": [
        {
          "notice": "Player have to reveal their commitment using the exact same move values  If they provide different value, the commitment hash will differ and Game will reject their reveal."
        }
      ],
      "GameNotStarted()": [
        {
          "notice": "Game has not started yet, can't perform any action"
        }
      ],
      "ImpossibleConfiguration()": [
        {
          "notice": "The cell configuration is invalid This can happen win debug mode where admin can setup cell bypassing moves rules For example when setting up neighborood configuration that would require a cell to have negative life"
        }
      ],
      "InCommitmentPhase()": [
        {
          "notice": "When in Commit phase, player can make new commitment but they cannot reveal their move yet."
        }
      ],
      "InRevealPhase()": [
        {
          "notice": "When in Reveal phase, it is not possible to commit new moves or cancel previous commitment  During Reveal phase, players have to reveal their commitment, if not already done."
        }
      ],
      "InvalidData()": [
        {
          "notice": "happen when transfering an avatar with invalid data"
        }
      ],
      "InvalidEpoch()": [
        {
          "notice": "Player can only reveal their move in the same epoch they commited.abi  If a player reveal later it can only do to minimize the reserve burn cost by calling : `acknowledgeMissedReveal`"
        }
      ],
      "NoCommitmentToCancel()": [
        {
          "notice": "There is no commitment registered, cannot cancel."
        }
      ],
      "NotAuthorizedController(address)": [
        {
          "notice": "happen when an unauthorized account attempt to control an avatar"
        }
      ],
      "NotAuthorizedOwner(address)": [
        {
          "notice": "happen when an unauthorized account attempt to withdraw an avatar"
        }
      ],
      "NothingToReveal()": [
        {
          "notice": "Player can only reveal moves they commited."
        }
      ],
      "PreviousCommitmentNotRevealed()": [
        {
          "notice": "Previous commitment need to be revealed before making a new one. Even if the corresponding reveal phase has passed.\\  It is also not possible to withdraw any amount from reserve until the commitment is revealed.\\If player lost the information to reveal, it can acknowledge failure which will burn all its reserve.\\"
        }
      ],
      "UnableToExitFromThisPosition(uint64)": [
        {
          "notice": "happen when attempting to leave the game from a non-exit position"
        }
      ]
    },
    "events": {
      "AvatarDeposited(uint256,address,address)": {
        "notice": "An avatar has been deposited, ready to enter"
      },
      "AvatarWithdrawn(uint256)": {
        "notice": "A avatar has been withdrawn"
      },
      "CommitmentCancelled(uint256,uint64)": {
        "notice": "A player has cancelled its current commitment (before it reached the reveal phase)"
      },
      "CommitmentMade(uint256,uint64,bytes24)": {
        "notice": "A player has commited to make a move and reveal it on the reveal phase"
      },
      "CommitmentRevealed(uint256,uint64,uint64,bytes24,(uint8,uint128)[])": {
        "notice": "Player has revealed its previous commitment"
      },
      "CommitmentVoid(uint256,uint64)": {
        "notice": "A player has acknowledged its failure to reveal its previous commitment"
      },
      "EnteredTheGame(uint256,uint64,uint64,uint64)": {
        "notice": "A avatar has entered the game"
      },
      "LeftTheGame(uint256,uint64,uint64,uint64)": {
        "notice": "An avatar has left the game"
      }
    },
    "kind": "user",
    "methods": {},
    "version": 1
  },
  "argsData": "0x0000000000000000000000000000000000000000000000000000000000000000000000000000000000000000000000000000000000000000000000000000001e00000000000000000000000000000000000000000000000000000000000000060000000000000000000000000000000000000000000000000000000000000000000000000000000000000000ad994dedaab665ce5aad2a333253e30708087149",
  "transaction": {
    "hash": "0x71af000ad4424ae61fe6f7e0bb719a1fd430f3ca14f782fb65bb5f694fbc29fb",
    "origin": "0x61c461ecc993aadeb7e4b47e96d1b8cc37314b20"
  }
}