{
  "address": "0x21d366ee3bbf67ab057c517380d37e54ffd9dfc0",
  "abi": [
    {
      "inputs": [
        {
          "components": [
            {
              "internalType": "uint256",
              "name": "startTime",
              "type": "uint256"
            },
            {
              "internalType": "uint256",
              "name": "commitPhaseDuration",
              "type": "uint256"
            },
            {
              "internalType": "uint256",
              "name": "revealPhaseDuration",
              "type": "uint256"
            },
            {
              "internalType": "contract ITime",
              "name": "time",
              "type": "address"
            },
            {
              "internalType": "contract IERC721",
              "name": "avatars",
              "type": "address"
            },
            {
              "internalType": "uint256",
              "name": "numActions",
              "type": "uint256"
            }
          ],
          "internalType": "struct UsingGameTypes.Config",
          "name": "config",
          "type": "tuple"
        }
      ],
      "stateMutability": "nonpayable",
      "type": "constructor"
    },
    {
      "inputs": [
        {
          "internalType": "uint256",
          "name": "avatarID",
          "type": "uint256"
        }
      ],
      "name": "AvatarAlreadyInGame",
      "type": "error"
    },
    {
      "inputs": [
        {
          "internalType": "uint256",
          "name": "avatarID",
          "type": "uint256"
        }
      ],
      "name": "AvatarIsDead",
      "type": "error"
    },
    {
      "inputs": [
        {
          "internalType": "uint256",
          "name": "avatarID",
          "type": "uint256"
        }
      ],
      "name": "AvatarNotAvailable",
      "type": "error"
    },
    {
      "inputs": [
        {
          "internalType": "uint256",
          "name": "avatarID",
          "type": "uint256"
        }
      ],
      "name": "AvatarNotInGame",
      "type": "error"
    },
    {
      "inputs": [
        {
          "internalType": "uint256",
          "name": "avatarID",
          "type": "uint256"
        }
      ],
      "name": "AvatarNotReady",
      "type": "error"
    },
    {
      "inputs": [
        {
          "internalType": "uint256",
          "name": "avatarID",
          "type": "uint256"
        }
      ],
      "name": "AvatarStillInGame",
      "type": "error"
    },
    {
      "inputs": [],
      "name": "CanStillReveal",
      "type": "error"
    },
    {
      "inputs": [],
      "name": "CommitmentHashNotMatching",
      "type": "error"
    },
    {
      "inputs": [],
      "name": "GameNotStarted",
      "type": "error"
    },
    {
      "inputs": [],
      "name": "ImpossibleConfiguration",
      "type": "error"
    },
    {
      "inputs": [],
      "name": "InCommitmentPhase",
      "type": "error"
    },
    {
      "inputs": [],
      "name": "InRevealPhase",
      "type": "error"
    },
    {
      "inputs": [],
      "name": "InvalidData",
      "type": "error"
    },
    {
      "inputs": [],
      "name": "InvalidEpoch",
      "type": "error"
    },
    {
      "inputs": [],
      "name": "NoCommitmentToCancel",
      "type": "error"
    },
    {
      "inputs": [
        {
          "internalType": "address",
          "name": "account",
          "type": "address"
        }
      ],
      "name": "NotAuthorizedController",
      "type": "error"
    },
    {
      "inputs": [
        {
          "internalType": "address",
          "name": "account",
          "type": "address"
        }
      ],
      "name": "NotAuthorizedOwner",
      "type": "error"
    },
    {
      "inputs": [],
      "name": "NothingToReveal",
      "type": "error"
    },
    {
      "inputs": [],
      "name": "OnlyAvatarsAreAccepted",
      "type": "error"
    },
    {
      "inputs": [],
      "name": "PreviousCommitmentNotRevealed",
      "type": "error"
    },
    {
      "inputs": [
        {
          "internalType": "uint64",
          "name": "position",
          "type": "uint64"
        }
      ],
      "name": "UnableToExitFromThisPosition",
      "type": "error"
    },
    {
      "anonymous": false,
      "inputs": [
        {
          "indexed": true,
          "internalType": "uint256",
          "name": "avatarID",
          "type": "uint256"
        },
        {
          "indexed": true,
          "internalType": "address",
          "name": "owner",
          "type": "address"
        },
        {
          "indexed": false,
          "internalType": "address",
          "name": "controller",
          "type": "address"
        }
      ],
      "name": "AvatarDeposited",
      "type": "event"
    },
    {
      "anonymous": false,
      "inputs": [
        {
          "indexed": true,
          "internalType": "uint256",
          "name": "avatarID",
          "type": "uint256"
        }
      ],
      "name": "AvatarWithdrawn",
      "type": "event"
    },
    {
      "anonymous": false,
      "inputs": [
        {
          "indexed": true,
          "internalType": "uint256",
          "name": "avatarID",
          "type": "uint256"
        },
        {
          "indexed": true,
          "internalType": "uint64",
          "name": "epoch",
          "type": "uint64"
        }
      ],
      "name": "CommitmentCancelled",
      "type": "event"
    },
    {
      "anonymous": false,
      "inputs": [
        {
          "indexed": true,
          "internalType": "uint256",
          "name": "avatarID",
          "type": "uint256"
        },
        {
          "indexed": true,
          "internalType": "uint64",
          "name": "epoch",
          "type": "uint64"
        },
        {
          "indexed": false,
          "internalType": "bytes24",
          "name": "commitmentHash",
          "type": "bytes24"
        }
      ],
      "name": "CommitmentMade",
      "type": "event"
    },
    {
      "anonymous": false,
      "inputs": [
        {
          "indexed": true,
          "internalType": "uint256",
          "name": "avatarID",
          "type": "uint256"
        },
        {
          "indexed": true,
          "internalType": "uint64",
          "name": "epoch",
          "type": "uint64"
        },
        {
          "indexed": true,
          "internalType": "uint64",
          "name": "zone",
          "type": "uint64"
        },
        {
          "indexed": false,
          "internalType": "bytes24",
          "name": "commitmentHash",
          "type": "bytes24"
        },
        {
          "components": [
            {
              "internalType": "enum UsingGameTypes.ActionType",
              "name": "actionType",
              "type": "uint8"
            },
            {
              "internalType": "uint128",
              "name": "data",
              "type": "uint128"
            }
          ],
          "indexed": false,
          "internalType": "struct UsingGameTypes.Action[]",
          "name": "actions",
          "type": "tuple[]"
        }
      ],
      "name": "CommitmentRevealed",
      "type": "event"
    },
    {
      "anonymous": false,
      "inputs": [
        {
          "indexed": true,
          "internalType": "uint256",
          "name": "avatarID",
          "type": "uint256"
        },
        {
          "indexed": true,
          "internalType": "uint64",
          "name": "epoch",
          "type": "uint64"
        }
      ],
      "name": "CommitmentVoid",
      "type": "event"
    },
    {
      "anonymous": false,
      "inputs": [
        {
          "indexed": true,
          "internalType": "uint256",
          "name": "avatarID",
          "type": "uint256"
        },
        {
          "indexed": true,
          "internalType": "uint64",
          "name": "epoch",
          "type": "uint64"
        },
        {
          "indexed": true,
          "internalType": "uint64",
          "name": "zone",
          "type": "uint64"
        },
        {
          "indexed": false,
          "internalType": "uint64",
          "name": "newPosition",
          "type": "uint64"
        }
      ],
      "name": "EnteredTheGame",
      "type": "event"
    },
    {
      "anonymous": false,
      "inputs": [
        {
          "indexed": true,
          "internalType": "uint256",
          "name": "avatarID",
          "type": "uint256"
        },
        {
          "indexed": true,
          "internalType": "uint64",
          "name": "epoch",
          "type": "uint64"
        },
        {
          "indexed": true,
          "internalType": "uint64",
          "name": "zoneWhenLeaving",
          "type": "uint64"
        },
        {
          "indexed": false,
          "internalType": "uint64",
          "name": "positionWhenLeaving",
          "type": "uint64"
        }
      ],
      "name": "LeftTheGame",
      "type": "event"
    },
    {
      "anonymous": false,
      "inputs": [
        {
          "indexed": true,
          "internalType": "uint256",
          "name": "avatarID",
          "type": "uint256"
        },
        {
          "indexed": false,
          "internalType": "uint64",
          "name": "epoch",
          "type": "uint64"
        },
        {
          "indexed": false,
          "internalType": "bytes24",
          "name": "commitmentHash",
          "type": "bytes24"
        }
      ],
      "name": "PreviousCommitmentNotRevealedEvent",
      "type": "event"
    },
    {
      "inputs": [
        {
          "internalType": "uint256",
          "name": "avatarID",
          "type": "uint256"
        }
      ],
      "name": "getAvatar",
      "outputs": [
        {
          "components": [
            {
              "internalType": "uint256",
              "name": "avatarID",
              "type": "uint256"
            },
            {
              "internalType": "uint64",
              "name": "position",
              "type": "uint64"
            }
          ],
          "internalType": "struct UsingGameTypes.AvatarResolved",
          "name": "",
          "type": "tuple"
        }
      ],
      "stateMutability": "view",
      "type": "function"
    },
    {
      "inputs": [
        {
          "internalType": "uint64[]",
          "name": "zones",
          "type": "uint64[]"
        },
        {
          "internalType": "uint64",
          "name": "fromIndex",
          "type": "uint64"
        },
        {
          "internalType": "uint64",
          "name": "limit",
          "type": "uint64"
        }
      ],
      "name": "getAvatarsInMultipleZones",
      "outputs": [
        {
          "components": [
            {
              "internalType": "uint256",
              "name": "avatarID",
              "type": "uint256"
            },
            {
              "internalType": "uint64",
              "name": "position",
              "type": "uint64"
            }
          ],
          "internalType": "struct UsingGameTypes.AvatarResolved[]",
          "name": "avatars",
          "type": "tuple[]"
        },
        {
          "internalType": "bool",
          "name": "more",
          "type": "bool"
        },
        {
          "internalType": "uint64",
          "name": "epoch",
          "type": "uint64"
        }
      ],
      "stateMutability": "view",
      "type": "function"
    },
    {
      "inputs": [
        {
          "internalType": "uint64",
          "name": "zone",
          "type": "uint64"
        },
        {
          "internalType": "uint64",
          "name": "fromIndex",
          "type": "uint64"
        },
        {
          "internalType": "uint64",
          "name": "limit",
          "type": "uint64"
        }
      ],
      "name": "getAvatarsInZone",
      "outputs": [
        {
          "components": [
            {
              "internalType": "uint256",
              "name": "avatarID",
              "type": "uint256"
            },
            {
              "internalType": "uint64",
              "name": "position",
              "type": "uint64"
            }
          ],
          "internalType": "struct UsingGameTypes.AvatarResolved[]",
          "name": "avatars",
          "type": "tuple[]"
        },
        {
          "internalType": "bool",
          "name": "more",
          "type": "bool"
        },
        {
          "internalType": "uint64",
          "name": "epoch",
          "type": "uint64"
        }
      ],
      "stateMutability": "view",
      "type": "function"
    },
    {
      "inputs": [
        {
          "internalType": "uint256",
          "name": "avatarID",
          "type": "uint256"
        }
      ],
      "name": "getCommitment",
      "outputs": [
        {
          "components": [
            {
              "internalType": "bytes24",
              "name": "hash",
              "type": "bytes24"
            },
            {
              "internalType": "uint64",
              "name": "epoch",
              "type": "uint64"
            }
          ],
          "internalType": "struct UsingGameTypes.Commitment",
          "name": "commitment",
          "type": "tuple"
        }
      ],
      "stateMutability": "view",
      "type": "function"
    },
    {
      "inputs": [],
      "name": "getConfig",
      "outputs": [
        {
          "components": [
            {
              "internalType": "uint256",
              "name": "startTime",
              "type": "uint256"
            },
            {
              "internalType": "uint256",
              "name": "commitPhaseDuration",
              "type": "uint256"
            },
            {
              "internalType": "uint256",
              "name": "revealPhaseDuration",
              "type": "uint256"
            },
            {
              "internalType": "contract ITime",
              "name": "time",
              "type": "address"
            },
            {
              "internalType": "contract IERC721",
              "name": "avatars",
              "type": "address"
            },
            {
              "internalType": "uint256",
              "name": "numActions",
              "type": "uint256"
            }
          ],
          "internalType": "struct UsingGameTypes.Config",
          "name": "config",
          "type": "tuple"
        }
      ],
      "stateMutability": "view",
      "type": "function"
    },
    {
      "inputs": [],
      "name": "getEpoch",
      "outputs": [
        {
          "internalType": "uint64",
          "name": "epoch",
          "type": "uint64"
        },
        {
          "internalType": "bool",
          "name": "commiting",
          "type": "bool"
        }
      ],
      "stateMutability": "view",
      "type": "function"
    }
  ],
  "contractName": "GameGetters",
  "sourceName": "src/game/routes/GameGetters.sol",
  "bytecode": "0x61014060405234801561001157600080fd5b5060405161139f38038061139f8339810160408190526100309161008d565b60608101516001600160a01b03908116608090815260a0808401516101205283519052602083015160c052604083015160e052909101511661010052610124565b80516001600160a01b038116811461008857600080fd5b919050565b600060c08284031280156100a057600080fd5b5060405160009060c081016001600160401b03811182821017156100d257634e487b7160e01b83526041600452602483fd5b6040908152845182526020808601519083015284810151908201526100f960608501610071565b606082015261010a60808501610071565b608082015260a09384015193810193909352509092915050565b60805160a05160c05160e05161010051610120516111fb6101a46000396000610471015260006104350152600081816103d301526104c20152600081816103ad015281816104e301526105b60152600081816103870152818161051701526105760152600081816103f90152818161092f015261096f01526111fb6000f3fe608060405234801561001057600080fd5b50600436106100725760003560e01c8063c3176e7c11610050578063c3176e7c146101a6578063c3f909d4146101c8578063df7d391f1461024857600080fd5b80631328ec9b1461007757806369bcdb7d146100a0578063757991a81461017e575b600080fd5b61008a610085366004610e5f565b61025b565b6040516100979190610e78565b60405180910390f35b6101376100ae366004610e5f565b6040805180820190915260008082526020820152506000908152600460209081526040918290208251808401845290547fffffffffffffffffffffffffffffffffffffffffffffffff00000000000000009381901b939093168152780100000000000000000000000000000000000000000000000090920467ffffffffffffffff169082015290565b6040805182517fffffffffffffffffffffffffffffffffffffffffffffffff000000000000000016815260209283015167ffffffffffffffff169281019290925201610097565b6101866102e3565b6040805167ffffffffffffffff9093168352901515602083015201610097565b6101b96101b4366004610eb6565b6102f6565b60405161009793929190610ef9565b6101d0610315565b6040516100979190600060c08201905082518252602083015160208301526040830151604083015273ffffffffffffffffffffffffffffffffffffffff606084015116606083015273ffffffffffffffffffffffffffffffffffffffff608084015116608083015260a083015160a083015292915050565b6101b9610256366004610f76565b610498565b6040805180820182526000808252602080830182905283518085018552828152810182905284825260018152908390208351606081018552905460ff81161515825267ffffffffffffffff6101008204811683850190815269010000000000000000009092048116928601929092528451808601909552858552511690830152905b92915050565b6000806102ee6104b9565b915091509091565b6060600080610306868686610609565b92509250925093509350939050565b61037a6040518060c00160405280600081526020016000815260200160008152602001600073ffffffffffffffffffffffffffffffffffffffff168152602001600073ffffffffffffffffffffffffffffffffffffffff168152602001600081525090565b6040518060c001604052807f000000000000000000000000000000000000000000000000000000000000000081526020017f000000000000000000000000000000000000000000000000000000000000000081526020017f000000000000000000000000000000000000000000000000000000000000000081526020017f000000000000000000000000000000000000000000000000000000000000000073ffffffffffffffffffffffffffffffffffffffff1681526020017f000000000000000000000000000000000000000000000000000000000000000073ffffffffffffffffffffffffffffffffffffffff1681526020017f0000000000000000000000000000000000000000000000000000000000000000815250905090565b60606000806104a9878787876107e7565b9250925092509450945094915050565b600080806105077f00000000000000000000000000000000000000000000000000000000000000007f000000000000000000000000000000000000000000000000000000000000000061103c565b9050600061051361092b565b90507f000000000000000000000000000000000000000000000000000000000000000081101561056f576040517f3a5f7b5700000000000000000000000000000000000000000000000000000000815260040160405180910390fd5b600061059b7f00000000000000000000000000000000000000000000000000000000000000008361104f565b90506105a78382611062565b6105b290600261103c565b94507f0000000000000000000000000000000000000000000000000000000000000000836105e160028861109d565b67ffffffffffffffff166105f591906110bd565b6105ff908361104f565b1093505050509091565b60606000806106166104b9565b5067ffffffffffffffff80881660009081526005602052604090205491925086168111156107dd578061064986886110d4565b67ffffffffffffffff1611156106785761066d67ffffffffffffffff87168261104f565b94506000925061067d565b600192505b8467ffffffffffffffff1667ffffffffffffffff8111156106a0576106a06110f4565b6040519080825280602002602001820160405280156106e557816020015b60408051808201909152600080825260208201528152602001906001900390816106be5790505b50935060005b8567ffffffffffffffff168110156107db5767ffffffffffffffff80891660009081526005602052604090206107b6916107289084908b1661103c565b8154811061073857610738611123565b6000918252602080832090910154604080518082018252848152830184905281845260018352928390208351606081018552905460ff81161515825267ffffffffffffffff61010082048116838601908152690100000000000000000090920481169286019290925284518086019095529184529051169082015290565b8582815181106107c8576107c8611123565b60209081029190910101526001016106eb565b505b5093509350939050565b60606000806107f46104b9565b5090506000610804888888610a01565b805190915067ffffffffffffffff871610156108db57805161082686886110d4565b67ffffffffffffffff16111561085857805161084d9067ffffffffffffffff88169061104f565b94506000925061085d565b600192505b8467ffffffffffffffff1667ffffffffffffffff811115610880576108806110f4565b6040519080825280602002602001820160405280156108c557816020015b604080518082019091526000808252602082015281526020019060019003908161089e5790505b5093506108d6888888888589610bc5565b610920565b6040805160008082526020820190925290610918565b60408051808201909152600080825260208201528152602001906001900390816108f15790505b509350600092505b509450945094915050565b60007f000000000000000000000000000000000000000000000000000000000000000073ffffffffffffffffffffffffffffffffffffffff1661096d57504290565b7f000000000000000000000000000000000000000000000000000000000000000073ffffffffffffffffffffffffffffffffffffffff1663b80777ea6040518163ffffffff1660e01b8152600401602060405180830381865afa1580156109d8573d6000803e3d6000fd5b505050506040513d601f19601f820116820180604052508101906109fc9190611152565b905090565b610a366040518060800160405280600081526020016060815260200160008152602001600067ffffffffffffffff1681525090565b8267ffffffffffffffff811115610a4f57610a4f6110f4565b604051908082528060200260200182016040528015610a78578160200160208202803683370190505b5060208201526000805b84811015610bbb57600060056000888885818110610aa257610aa2611123565b9050602002016020810190610ab7919061116b565b67ffffffffffffffff1681526020810191909152604001600020549050610ade818461103c565b92508284602001518381518110610af757610af7611123565b67ffffffffffffffff9283166020918202929092010152851683118015610b615750811580610b6157506020840151610b3160018461104f565b81518110610b4157610b41611123565b602002602001015167ffffffffffffffff168567ffffffffffffffff1610155b15610bb2576040840182905281610b79576000610ba2565b6020840151610b8960018461104f565b81518110610b9957610b99611123565b60200260200101515b67ffffffffffffffff1660608501525b50600101610a82565b5081529392505050565b6040820151606083015160009186915b8667ffffffffffffffff168467ffffffffffffffff16108015610bf757508882105b15610e53576000610c08828561109d565b90506000600560008d8d87818110610c2257610c22611123565b9050602002016020810190610c37919061116b565b67ffffffffffffffff16815260208101919091526040016000908120549150610c60878b61109d565b905067ffffffffffffffff8216610c7782856110d4565b67ffffffffffffffff161115610c9457610c91838361109d565b90505b60005b8167ffffffffffffffff168167ffffffffffffffff161015610dd65760008e8e88818110610cc757610cc7611123565b9050602002016020810190610cdc919061116b565b67ffffffffffffffff8116600090815260056020526040812091925090610d0384886110d4565b67ffffffffffffffff1681548110610d1d57610d1d611123565b6000918252602080832090910154604080518082018252848152830184905281845260018352928390208351606081018552905460ff81161515825267ffffffffffffffff610100820481168386019081526901000000000000000000909204811692860192909252845180860190955282855251169183019190915291508b610da7858d6110d4565b67ffffffffffffffff1681518110610dc157610dc1611123565b60209081029190910101525050600101610c97565b50610de181886110d4565b9650610ded81876110d4565b95508967ffffffffffffffff168767ffffffffffffffff161015610e4b5784610e158161118d565b9550508b851015610e4b576020890151610e3060018761104f565b81518110610e4057610e40611123565b602002602001015193505b505050610bd5565b50505050505050505050565b600060208284031215610e7157600080fd5b5035919050565b8151815260208083015167ffffffffffffffff1690820152604081016102dd565b803567ffffffffffffffff81168114610eb157600080fd5b919050565b600080600060608486031215610ecb57600080fd5b610ed484610e99565b9250610ee260208501610e99565b9150610ef060408501610e99565b90509250925092565b6060808252845190820181905260009060208601906080840190835b81811015610f5257610f3c8385518051825260209081015167ffffffffffffffff16910152565b6020939093019260409290920191600101610f15565b50509415156020840152505067ffffffffffffffff91909116604090910152919050565b60008060008060608587031215610f8c57600080fd5b843567ffffffffffffffff811115610fa357600080fd5b8501601f81018713610fb457600080fd5b803567ffffffffffffffff811115610fcb57600080fd5b8760208260051b8401011115610fe057600080fd5b602091820195509350610ff4908601610e99565b915061100260408601610e99565b905092959194509250565b7f4e487b7100000000000000000000000000000000000000000000000000000000600052601160045260246000fd5b808201808211156102dd576102dd61100d565b818103818111156102dd576102dd61100d565b600082611098577f4e487b7100000000000000000000000000000000000000000000000000000000600052601260045260246000fd5b500490565b67ffffffffffffffff82811682821603908111156102dd576102dd61100d565b80820281158282048414176102dd576102dd61100d565b67ffffffffffffffff81811683821601908111156102dd576102dd61100d565b7f4e487b7100000000000000000000000000000000000000000000000000000000600052604160045260246000fd5b7f4e487b7100000000000000000000000000000000000000000000000000000000600052603260045260246000fd5b60006020828403121561116457600080fd5b5051919050565b60006020828403121561117d57600080fd5b61118682610e99565b9392505050565b60007fffffffffffffffffffffffffffffffffffffffffffffffffffffffffffffffff82036111be576111be61100d565b506001019056fea264697066735822122085e0ecb28094b475a6c9a52bf5d5c22d2b961bdd912d90949883752a29a7704d64736f6c634300081c0033",
  "linkReferences": {},
  "deployedLinkReferences": {},
  "immutableReferences": {
    "18944": [
      {
        "length": 32,
        "start": 903
      },
      {
        "length": 32,
        "start": 1303
      },
      {
        "length": 32,
        "start": 1398
      }
    ],
    "18947": [
      {
        "length": 32,
        "start": 941
      },
      {
        "length": 32,
        "start": 1251
      },
      {
        "length": 32,
        "start": 1462
      }
    ],
    "18950": [
      {
        "length": 32,
        "start": 979
      },
      {
        "length": 32,
        "start": 1218
      }
    ],
    "18954": [
      {
        "length": 32,
        "start": 1077
      }
    ],
    "18957": [
      {
        "length": 32,
        "start": 1137
      }
    ],
    "19034": [
      {
        "length": 32,
        "start": 1017
      },
      {
        "length": 32,
        "start": 2351
      },
      {
        "length": 32,
        "start": 2415
      }
    ]
  },
  "inputSourceName": "project/src/game/routes/GameGetters.sol",
  "devdoc": {
    "errors": {
      "AvatarIsDead(uint256)": [
        {
          "params": {
            "avatarID": "the id of the dead avatar The avatar is dead, no action possible"
          }
        }
      ]
    },
    "events": {
      "AvatarDeposited(uint256,address,address)": {
        "params": {
          "avatarID": "the id of the NFT being deposited",
          "controller": "the account authorized to control the avatar in-game",
          "owner": "the account authorized to get the avatar back"
        }
      },
      "AvatarWithdrawn(uint256)": {
        "params": {
          "avatarID": "the id of the NFT being transfered out"
        }
      },
      "CommitmentCancelled(uint256,uint64)": {
        "params": {
          "avatarID": "avatar whose commitment is cancelled",
          "epoch": "epoch number on which this commit belongs to"
        }
      },
      "CommitmentMade(uint256,uint64,bytes24)": {
        "params": {
          "avatarID": "avatar whose commitment is made",
          "commitmentHash": "the hash of moves",
          "epoch": "epoch number on which this commit belongs to"
        }
      },
      "CommitmentRevealed(uint256,uint64,uint64,bytes24,(uint8,uint128)[])": {
        "params": {
          "actions": "the actions",
          "avatarID": "avatar id whose action is commited",
          "commitmentHash": "the hash of the moves",
          "epoch": "epoch number on which this commit belongs to"
        }
      },
      "CommitmentVoid(uint256,uint64)": {
        "params": {
          "avatarID": "the account that made the commitment",
          "epoch": "epoch number on which this commit belongs to"
        }
      },
      "EnteredTheGame(uint256,uint64,uint64,uint64)": {
        "params": {
          "avatarID": "the id of the NFT being added",
          "epoch": "the epoch at which it happened",
          "newPosition": "the resulting avatar's position",
          "zone": "the resulting avatar's zone"
        }
      },
      "LeftTheGame(uint256,uint64,uint64,uint64)": {
        "params": {
          "avatarID": "the id of the NFT being removed",
          "epoch": "the epoch at which it happened",
          "positionWhenLeaving": "the avatar's position when leaving",
          "zoneWhenLeaving": "the avatar's zone when leaving"
        }
      }
    },
    "kind": "dev",
    "methods": {},
    "version": 1
  },
  "evm": {
    "gasEstimates": {
      "creation": {
        "codeDepositCost": "920600",
        "executionCost": "infinite",
        "totalCost": "infinite"
      },
      "external": {
        "getAvatar(uint256)": "infinite",
        "getAvatarsInMultipleZones(uint64[],uint64,uint64)": "infinite",
        "getAvatarsInZone(uint64,uint64,uint64)": "infinite",
        "getCommitment(uint256)": "2681",
        "getConfig()": "infinite",
        "getEpoch()": "infinite"
      }
    }
  },
  "storageLayout": {
    "storage": [
      {
        "astId": 18966,
        "contract": "project/src/game/routes/GameGetters.sol:GameGetters",
        "label": "_players",
        "offset": 0,
        "slot": "0",
        "type": "t_mapping(t_uint256,t_struct(Player)17356_storage)"
      },
      {
        "astId": 18971,
        "contract": "project/src/game/routes/GameGetters.sol:GameGetters",
        "label": "_avatars",
        "offset": 0,
        "slot": "1",
        "type": "t_mapping(t_uint256,t_struct(Avatar)17363_storage)"
      },
      {
        "astId": 18976,
        "contract": "project/src/game/routes/GameGetters.sol:GameGetters",
        "label": "_ownedAvatars",
        "offset": 0,
        "slot": "2",
        "type": "t_mapping(t_address,t_array(t_uint256)dyn_storage)"
      },
      {
        "astId": 18980,
        "contract": "project/src/game/routes/GameGetters.sol:GameGetters",
        "label": "_ownedAvatarsIndex",
        "offset": 0,
        "slot": "3",
        "type": "t_mapping(t_uint256,t_uint256)"
      },
      {
        "astId": 18985,
        "contract": "project/src/game/routes/GameGetters.sol:GameGetters",
        "label": "_commitments",
        "offset": 0,
        "slot": "4",
        "type": "t_mapping(t_uint256,t_struct(Commitment)17372_storage)"
      },
      {
        "astId": 18990,
        "contract": "project/src/game/routes/GameGetters.sol:GameGetters",
        "label": "_zones",
        "offset": 0,
        "slot": "5",
        "type": "t_mapping(t_uint64,t_struct(Zone)17367_storage)"
      }
    ],
    "types": {
      "t_address": {
        "encoding": "inplace",
        "label": "address",
        "numberOfBytes": "20"
      },
      "t_array(t_uint256)dyn_storage": {
        "base": "t_uint256",
        "encoding": "dynamic_array",
        "label": "uint256[]",
        "numberOfBytes": "32"
      },
      "t_bool": {
        "encoding": "inplace",
        "label": "bool",
        "numberOfBytes": "1"
      },
      "t_bytes24": {
        "encoding": "inplace",
        "label": "bytes24",
        "numberOfBytes": "24"
      },
      "t_mapping(t_address,t_array(t_uint256)dyn_storage)": {
        "encoding": "mapping",
        "key": "t_address",
        "label": "mapping(address => uint256[])",
        "numberOfBytes": "32",
        "value": "t_array(t_uint256)dyn_storage"
      },
      "t_mapping(t_uint256,t_struct(Avatar)17363_storage)": {
        "encoding": "mapping",
        "key": "t_uint256",
        "label": "mapping(uint256 => struct UsingGameTypes.Avatar)",
        "numberOfBytes": "32",
        "value": "t_struct(Avatar)17363_storage"
      },
      "t_mapping(t_uint256,t_struct(Commitment)17372_storage)": {
        "encoding": "mapping",
        "key": "t_uint256",
        "label": "mapping(uint256 => struct UsingGameTypes.Commitment)",
        "numberOfBytes": "32",
        "value": "t_struct(Commitment)17372_storage"
      },
      "t_mapping(t_uint256,t_struct(Player)17356_storage)": {
        "encoding": "mapping",
        "key": "t_uint256",
        "label": "mapping(uint256 => struct UsingGameTypes.Player)",
        "numberOfBytes": "32",
        "value": "t_struct(Player)17356_storage"
      },
      "t_mapping(t_uint256,t_uint256)": {
        "encoding": "mapping",
        "key": "t_uint256",
        "label": "mapping(uint256 => uint256)",
        "numberOfBytes": "32",
        "value": "t_uint256"
      },
      "t_mapping(t_uint64,t_struct(Zone)17367_storage)": {
        "encoding": "mapping",
        "key": "t_uint64",
        "label": "mapping(uint64 => struct UsingGameTypes.Zone)",
        "numberOfBytes": "32",
        "value": "t_struct(Zone)17367_storage"
      },
      "t_struct(Avatar)17363_storage": {
        "encoding": "inplace",
        "label": "struct UsingGameTypes.Avatar",
        "members": [
          {
            "astId": 17358,
            "contract": "project/src/game/routes/GameGetters.sol:GameGetters",
            "label": "inGame",
            "offset": 0,
            "slot": "0",
            "type": "t_bool"
          },
          {
            "astId": 17360,
            "contract": "project/src/game/routes/GameGetters.sol:GameGetters",
            "label": "position",
            "offset": 1,
            "slot": "0",
            "type": "t_uint64"
          },
          {
            "astId": 17362,
            "contract": "project/src/game/routes/GameGetters.sol:GameGetters",
            "label": "zoneIndex",
            "offset": 9,
            "slot": "0",
            "type": "t_uint64"
          }
        ],
        "numberOfBytes": "32"
      },
      "t_struct(Commitment)17372_storage": {
        "encoding": "inplace",
        "label": "struct UsingGameTypes.Commitment",
        "members": [
          {
            "astId": 17369,
            "contract": "project/src/game/routes/GameGetters.sol:GameGetters",
            "label": "hash",
            "offset": 0,
            "slot": "0",
            "type": "t_bytes24"
          },
          {
            "astId": 17371,
            "contract": "project/src/game/routes/GameGetters.sol:GameGetters",
            "label": "epoch",
            "offset": 24,
            "slot": "0",
            "type": "t_uint64"
          }
        ],
        "numberOfBytes": "32"
      },
      "t_struct(Player)17356_storage": {
        "encoding": "inplace",
        "label": "struct UsingGameTypes.Player",
        "members": [
          {
            "astId": 17353,
            "contract": "project/src/game/routes/GameGetters.sol:GameGetters",
            "label": "owner",
            "offset": 0,
            "slot": "0",
            "type": "t_address"
          },
          {
            "astId": 17355,
            "contract": "project/src/game/routes/GameGetters.sol:GameGetters",
            "label": "controller",
            "offset": 0,
            "slot": "1",
            "type": "t_address"
          }
        ],
        "numberOfBytes": "64"
      },
      "t_struct(Zone)17367_storage": {
        "encoding": "inplace",
        "label": "struct UsingGameTypes.Zone",
        "members": [
          {
            "astId": 17366,
            "contract": "project/src/game/routes/GameGetters.sol:GameGetters",
            "label": "avatars",
            "offset": 0,
            "slot": "0",
            "type": "t_array(t_uint256)dyn_storage"
          }
        ],
        "numberOfBytes": "32"
      },
      "t_uint256": {
        "encoding": "inplace",
        "label": "uint256",
        "numberOfBytes": "32"
      },
      "t_uint64": {
        "encoding": "inplace",
        "label": "uint64",
        "numberOfBytes": "8"
      }
    }
  },
  "userdoc": {
    "errors": {
      "AvatarAlreadyInGame(uint256)": [
        {
          "notice": "happen when attempting to enter an avatar already in the game"
        }
      ],
      "AvatarIsDead(uint256)": [
        {
          "notice": "Player have to reveal if they can"
        }
      ],
      "AvatarNotAvailable(uint256)": [
        {
          "notice": "happen when attempting to move an avatar not in the game"
        }
      ],
      "AvatarNotInGame(uint256)": [
        {
          "notice": "happen when attempting to move an avatar not in the game"
        }
      ],
      "AvatarNotReady(uint256)": [
        {
          "notice": "happen when attempting to move an avatar that just entered the game. \\  It needs to wait the next epoch"
        }
      ],
      "AvatarStillInGame(uint256)": [
        {
          "notice": "happen when attempting to extract an avatar still in the game"
        }
      ],
      "CanStillReveal()": [
        {
          "notice": "Player have to reveal if they can prevent player from acknowledging missed reveal if there is still time to reveal."
        }
      ],
      "CommitmentHashNotMatching()": [
        {
          "notice": "Player have to reveal their commitment using the exact same move values  If they provide different value, the commitment hash will differ and Game will reject their reveal."
        }
      ],
      "GameNotStarted()": [
        {
          "notice": "Game has not started yet, can't perform any action"
        }
      ],
      "ImpossibleConfiguration()": [
        {
          "notice": "The cell configuration is invalid This can happen win debug mode where admin can setup cell bypassing moves rules For example when setting up neighborood configuration that would require a cell to have negative life"
        }
      ],
      "InCommitmentPhase()": [
        {
          "notice": "When in Commit phase, player can make new commitment but they cannot reveal their move yet."
        }
      ],
      "InRevealPhase()": [
        {
          "notice": "When in Reveal phase, it is not possible to commit new moves or cancel previous commitment  During Reveal phase, players have to reveal their commitment, if not already done."
        }
      ],
      "InvalidData()": [
        {
          "notice": "happen when transfering an avatar with invalid data"
        }
      ],
      "InvalidEpoch()": [
        {
          "notice": "Player can only reveal their move in the same epoch they commited.abi  If a player reveal later it can only do to minimize the reserve burn cost by calling : `acknowledgeMissedReveal`"
        }
      ],
      "NoCommitmentToCancel()": [
        {
          "notice": "There is no commitment registered, cannot cancel."
        }
      ],
      "NotAuthorizedController(address)": [
        {
          "notice": "happen when an unauthorized account attempt to control an avatar"
        }
      ],
      "NotAuthorizedOwner(address)": [
        {
          "notice": "happen when an unauthorized account attempt to withdraw an avatar"
        }
      ],
      "NothingToReveal()": [
        {
          "notice": "Player can only reveal moves they commited."
        }
      ],
      "PreviousCommitmentNotRevealed()": [
        {
          "notice": "Previous commitment need to be revealed before making a new one. Even if the corresponding reveal phase has passed.\\  It is also not possible to withdraw any amount from reserve until the commitment is revealed.\\If player lost the information to reveal, it can acknowledge failure which will burn all its reserve.\\"
        }
      ],
      "UnableToExitFromThisPosition(uint64)": [
        {
          "notice": "happen when attempting to leave the game from a non-exit position"
        }
      ]
    },
    "events": {
      "AvatarDeposited(uint256,address,address)": {
        "notice": "An avatar has been deposited, ready to enter"
      },
      "AvatarWithdrawn(uint256)": {
        "notice": "A avatar has been withdrawn"
      },
      "CommitmentCancelled(uint256,uint64)": {
        "notice": "A player has cancelled its current commitment (before it reached the reveal phase)"
      },
      "CommitmentMade(uint256,uint64,bytes24)": {
        "notice": "A player has commited to make a move and reveal it on the reveal phase"
      },
      "CommitmentRevealed(uint256,uint64,uint64,bytes24,(uint8,uint128)[])": {
        "notice": "Player has revealed its previous commitment"
      },
      "CommitmentVoid(uint256,uint64)": {
        "notice": "A player has acknowledged its failure to reveal its previous commitment"
      },
      "EnteredTheGame(uint256,uint64,uint64,uint64)": {
        "notice": "A avatar has entered the game"
      },
      "LeftTheGame(uint256,uint64,uint64,uint64)": {
        "notice": "An avatar has left the game"
      }
    },
    "kind": "user",
    "methods": {},
    "version": 1
  },
  "argsData": "0x0000000000000000000000000000000000000000000000000000000000000000000000000000000000000000000000000000000000000000000000000000001e00000000000000000000000000000000000000000000000000000000000000050000000000000000000000000000000000000000000000000000000000000000000000000000000000000000cc0925082bfb1122534d1a7a33bd1dc990113a390000000000000000000000000000000000000000000000000000000000000014",
  "transaction": {
    "hash": "0x69a14fd3065382306a52b006b57e05c6de1fb995292fa16ee7dbcd06c5ca5a15",
    "nonce": "0x2",
    "origin": "0x61c461ecc993aadeb7e4b47e96d1b8cc37314b20"
  }
}