{
  "address": "0x3ab3844d5d6614febbe19d59244a815cff691a17",
  "abi": [
    {
      "inputs": [
        {
          "components": [
            {
              "internalType": "uint256",
              "name": "startTime",
              "type": "uint256"
            },
            {
              "internalType": "uint256",
              "name": "commitPhaseDuration",
              "type": "uint256"
            },
            {
              "internalType": "uint256",
              "name": "revealPhaseDuration",
              "type": "uint256"
            },
            {
              "internalType": "contract ITime",
              "name": "time",
              "type": "address"
            },
            {
              "internalType": "contract IERC721",
              "name": "avatars",
              "type": "address"
            },
            {
              "internalType": "uint256",
              "name": "numActions",
              "type": "uint256"
            }
          ],
          "internalType": "struct UsingGameTypes.Config",
          "name": "config",
          "type": "tuple"
        }
      ],
      "stateMutability": "nonpayable",
      "type": "constructor"
    },
    {
      "inputs": [
        {
          "internalType": "uint256",
          "name": "avatarID",
          "type": "uint256"
        }
      ],
      "name": "AvatarAlreadyInGame",
      "type": "error"
    },
    {
      "inputs": [
        {
          "internalType": "uint256",
          "name": "avatarID",
          "type": "uint256"
        }
      ],
      "name": "AvatarIsDead",
      "type": "error"
    },
    {
      "inputs": [
        {
          "internalType": "uint256",
          "name": "avatarID",
          "type": "uint256"
        }
      ],
      "name": "AvatarNotAvailable",
      "type": "error"
    },
    {
      "inputs": [
        {
          "internalType": "uint256",
          "name": "avatarID",
          "type": "uint256"
        }
      ],
      "name": "AvatarNotInGame",
      "type": "error"
    },
    {
      "inputs": [
        {
          "internalType": "uint256",
          "name": "avatarID",
          "type": "uint256"
        }
      ],
      "name": "AvatarNotReady",
      "type": "error"
    },
    {
      "inputs": [
        {
          "internalType": "uint256",
          "name": "avatarID",
          "type": "uint256"
        }
      ],
      "name": "AvatarStillInGame",
      "type": "error"
    },
    {
      "inputs": [],
      "name": "CanStillReveal",
      "type": "error"
    },
    {
      "inputs": [],
      "name": "CommitmentHashNotMatching",
      "type": "error"
    },
    {
      "inputs": [],
      "name": "GameNotStarted",
      "type": "error"
    },
    {
      "inputs": [],
      "name": "ImpossibleConfiguration",
      "type": "error"
    },
    {
      "inputs": [],
      "name": "InCommitmentPhase",
      "type": "error"
    },
    {
      "inputs": [],
      "name": "InRevealPhase",
      "type": "error"
    },
    {
      "inputs": [],
      "name": "InvalidData",
      "type": "error"
    },
    {
      "inputs": [],
      "name": "InvalidEpoch",
      "type": "error"
    },
    {
      "inputs": [],
      "name": "NoCommitmentToCancel",
      "type": "error"
    },
    {
      "inputs": [
        {
          "internalType": "address",
          "name": "account",
          "type": "address"
        }
      ],
      "name": "NotAuthorizedController",
      "type": "error"
    },
    {
      "inputs": [
        {
          "internalType": "address",
          "name": "account",
          "type": "address"
        }
      ],
      "name": "NotAuthorizedOwner",
      "type": "error"
    },
    {
      "inputs": [],
      "name": "NothingToReveal",
      "type": "error"
    },
    {
      "inputs": [],
      "name": "OnlyAvatarsAreAccepted",
      "type": "error"
    },
    {
      "inputs": [],
      "name": "PreviousCommitmentNotRevealed",
      "type": "error"
    },
    {
      "inputs": [
        {
          "internalType": "uint64",
          "name": "position",
          "type": "uint64"
        }
      ],
      "name": "UnableToExitFromThisPosition",
      "type": "error"
    },
    {
      "anonymous": false,
      "inputs": [
        {
          "indexed": true,
          "internalType": "uint256",
          "name": "avatarID",
          "type": "uint256"
        },
        {
          "indexed": true,
          "internalType": "address",
          "name": "owner",
          "type": "address"
        },
        {
          "indexed": false,
          "internalType": "address",
          "name": "controller",
          "type": "address"
        }
      ],
      "name": "AvatarDeposited",
      "type": "event"
    },
    {
      "anonymous": false,
      "inputs": [
        {
          "indexed": true,
          "internalType": "uint256",
          "name": "avatarID",
          "type": "uint256"
        }
      ],
      "name": "AvatarWithdrawn",
      "type": "event"
    },
    {
      "anonymous": false,
      "inputs": [
        {
          "indexed": true,
          "internalType": "uint256",
          "name": "avatarID",
          "type": "uint256"
        },
        {
          "indexed": true,
          "internalType": "uint64",
          "name": "epoch",
          "type": "uint64"
        }
      ],
      "name": "CommitmentCancelled",
      "type": "event"
    },
    {
      "anonymous": false,
      "inputs": [
        {
          "indexed": true,
          "internalType": "uint256",
          "name": "avatarID",
          "type": "uint256"
        },
        {
          "indexed": true,
          "internalType": "uint64",
          "name": "epoch",
          "type": "uint64"
        },
        {
          "indexed": false,
          "internalType": "bytes24",
          "name": "commitmentHash",
          "type": "bytes24"
        }
      ],
      "name": "CommitmentMade",
      "type": "event"
    },
    {
      "anonymous": false,
      "inputs": [
        {
          "indexed": true,
          "internalType": "uint256",
          "name": "avatarID",
          "type": "uint256"
        },
        {
          "indexed": true,
          "internalType": "uint64",
          "name": "epoch",
          "type": "uint64"
        },
        {
          "indexed": true,
          "internalType": "uint64",
          "name": "zone",
          "type": "uint64"
        },
        {
          "indexed": false,
          "internalType": "bytes24",
          "name": "commitmentHash",
          "type": "bytes24"
        },
        {
          "components": [
            {
              "internalType": "enum UsingGameTypes.ActionType",
              "name": "actionType",
              "type": "uint8"
            },
            {
              "internalType": "uint128",
              "name": "data",
              "type": "uint128"
            }
          ],
          "indexed": false,
          "internalType": "struct UsingGameTypes.Action[]",
          "name": "actions",
          "type": "tuple[]"
        }
      ],
      "name": "CommitmentRevealed",
      "type": "event"
    },
    {
      "anonymous": false,
      "inputs": [
        {
          "indexed": true,
          "internalType": "uint256",
          "name": "avatarID",
          "type": "uint256"
        },
        {
          "indexed": true,
          "internalType": "uint64",
          "name": "epoch",
          "type": "uint64"
        }
      ],
      "name": "CommitmentVoid",
      "type": "event"
    },
    {
      "anonymous": false,
      "inputs": [
        {
          "indexed": true,
          "internalType": "uint256",
          "name": "avatarID",
          "type": "uint256"
        },
        {
          "indexed": true,
          "internalType": "uint64",
          "name": "epoch",
          "type": "uint64"
        },
        {
          "indexed": true,
          "internalType": "uint64",
          "name": "zone",
          "type": "uint64"
        },
        {
          "indexed": false,
          "internalType": "uint64",
          "name": "newPosition",
          "type": "uint64"
        }
      ],
      "name": "EnteredTheGame",
      "type": "event"
    },
    {
      "anonymous": false,
      "inputs": [
        {
          "indexed": true,
          "internalType": "uint256",
          "name": "avatarID",
          "type": "uint256"
        },
        {
          "indexed": true,
          "internalType": "uint64",
          "name": "epoch",
          "type": "uint64"
        },
        {
          "indexed": true,
          "internalType": "uint64",
          "name": "zoneWhenLeaving",
          "type": "uint64"
        },
        {
          "indexed": false,
          "internalType": "uint64",
          "name": "positionWhenLeaving",
          "type": "uint64"
        }
      ],
      "name": "LeftTheGame",
      "type": "event"
    },
    {
      "anonymous": false,
      "inputs": [
        {
          "indexed": true,
          "internalType": "uint256",
          "name": "avatarID",
          "type": "uint256"
        },
        {
          "indexed": false,
          "internalType": "uint64",
          "name": "epoch",
          "type": "uint64"
        },
        {
          "indexed": false,
          "internalType": "bytes24",
          "name": "commitmentHash",
          "type": "bytes24"
        }
      ],
      "name": "PreviousCommitmentNotRevealedEvent",
      "type": "event"
    },
    {
      "inputs": [
        {
          "internalType": "uint256",
          "name": "avatarID",
          "type": "uint256"
        }
      ],
      "name": "acknowledgeMissedReveal",
      "outputs": [],
      "stateMutability": "nonpayable",
      "type": "function"
    },
    {
      "inputs": [
        {
          "internalType": "uint256",
          "name": "avatarID",
          "type": "uint256"
        },
        {
          "components": [
            {
              "internalType": "enum UsingGameTypes.ActionType",
              "name": "actionType",
              "type": "uint8"
            },
            {
              "internalType": "uint128",
              "name": "data",
              "type": "uint128"
            }
          ],
          "internalType": "struct UsingGameTypes.Action[]",
          "name": "actions",
          "type": "tuple[]"
        },
        {
          "internalType": "bytes32",
          "name": "secret",
          "type": "bytes32"
        },
        {
          "internalType": "address payable",
          "name": "payee",
          "type": "address"
        }
      ],
      "name": "reveal",
      "outputs": [],
      "stateMutability": "payable",
      "type": "function"
    }
  ],
  "contractName": "GameReveal",
  "sourceName": "src/game/routes/GameReveal.sol",
  "bytecode": "0x61014060405234801561001157600080fd5b506040516118cd3803806118cd8339810160408190526100309161008d565b60608101516001600160a01b03908116608090815260a0808401516101205283519052602083015160c052604083015160e052909101511661010052610124565b80516001600160a01b038116811461008857600080fd5b919050565b600060c08284031280156100a057600080fd5b5060405160009060c081016001600160401b03811182821017156100d257634e487b7160e01b83526041600452602483fd5b6040908152845182526020808601519083015284810151908201526100f960608501610071565b606082015261010a60808501610071565b608082015260a09384015193810193909352509092915050565b60805160a05160c05160e051610100516101205161174161018c600039600081816109080152610937015260005050600061060201526000818161062301526106f601526000818161065701526106b6015260008181610d760152610db601526117416000f3fe6080604052600436106100295760003560e01c80637020b4631461002e578063c4928f7914610050575b600080fd5b34801561003a57600080fd5b5061004e610049366004611144565b610063565b005b61004e61005e366004611181565b61006f565b61006c816100e2565b50565b61007b8585858561021e565b73ffffffffffffffffffffffffffffffffffffffff8116156100db5760405173ffffffffffffffffffffffffffffffffffffffff8216903480156108fc02916000818181858888f193505050501580156100d9573d6000803e3d6000fd5b505b5050505050565b600081815260046020526040812080549091780100000000000000000000000000000000000000000000000090910467ffffffffffffffff169003610153576040517f6599c9aa00000000000000000000000000000000000000000000000000000000815260040160405180910390fd5b600061015d6105f9565b50825490915067ffffffffffffffff808316780100000000000000000000000000000000000000000000000090920416036101c4576040517f175868d700000000000000000000000000000000000000000000000000000000815260040160405180910390fd5b815477ffffffffffffffffffffffffffffffffffffffffffffffff16825560405167ffffffffffffffff82169084907f2a5049124236181937ab55f90059005810a4645d620abe00ec963bea4e24d62f90600090a3505050565b6000806102296105f9565b9150915061026b6040518060400160405280601181526020017f636865636b696e672070686173652e2e2e000000000000000000000000000000815250610749565b80156102a3576040517f24f7f40f00000000000000000000000000000000000000000000000000000000815260040160405180910390fd5b60006004600088815260200190815260200160002090506102f86040518060400160405280601681526020017f636865636b696e6720636f6d6d69746d656e742e2e2e00000000000000000000815250610749565b80547801000000000000000000000000000000000000000000000000900467ffffffffffffffff16600003610359576040517f6599c9aa00000000000000000000000000000000000000000000000000000000815260040160405180910390fd5b6103976040518060400160405280601181526020017f636865636b696e672065706f63682e2e2e000000000000000000000000000000815250610749565b805467ffffffffffffffff848116780100000000000000000000000000000000000000000000000090920416146103fa576040517fd5b25b6300000000000000000000000000000000000000000000000000000000815260040160405180910390fd5b6104386040518060400160405280601081526020017f636865636b696e6720686173682e2e2e00000000000000000000000000000000815250610749565b80546040805160208089028201810183528882529290911b9161049a9183918a908a90819060009085015b8282101561048f576104806040830286013681900381019061124c565b81526020019060010190610463565b5050505050876107d8565b6104d86040518060400160405280601481526020017f7265736f6c76696e6720616374696f6e732e2e2e000000000000000000000000815250610749565b600061053789868a8a808060200260200160405190810160405280939291908181526020016000905b8282101561052d5761051e6040830286013681900381019061124c565b81526020019060010190610501565b5050505050610886565b90506105776040518060400160405280600781526020017f2e2e2e646f6e6500000000000000000000000000000000000000000000000000815250610749565b61058081610d28565b67ffffffffffffffff168567ffffffffffffffff168a7f073805a80a32bc148f9cf94f83c6a08921061adce6e090fc798f482777ec526e858c8c6040516105c99392919061133a565b60405180910390a45050805477ffffffffffffffffffffffffffffffffffffffffffffffff169055505050505050565b600080806106477f00000000000000000000000000000000000000000000000000000000000000007f00000000000000000000000000000000000000000000000000000000000000006113ff565b90506000610653610d72565b90507f00000000000000000000000000000000000000000000000000000000000000008110156106af576040517f3a5f7b5700000000000000000000000000000000000000000000000000000000815260040160405180910390fd5b60006106db7f000000000000000000000000000000000000000000000000000000000000000083611412565b90506106e78382611454565b6106f29060026113ff565b94507f000000000000000000000000000000000000000000000000000000000000000083610721600288611468565b67ffffffffffffffff166107359190611488565b61073f9083611412565b1093505050509091565b61006c8160405160240161075d919061149f565b604080517fffffffffffffffffffffffffffffffffffffffffffffffffffffffffffffffe08184030181529190526020810180517bffffffffffffffffffffffffffffffffffffffffffffffffffffffff167f41304fac00000000000000000000000000000000000000000000000000000000179052610e48565b7fffffffffffffffffffffffffffffffffffffffffffffffff0000000000000000831661080457505050565b6000818360405160200161081992919061150b565b6040516020818303038152906040528051906020012090508067ffffffffffffffff19168467ffffffffffffffff191614610880576040517fd13415b500000000000000000000000000000000000000000000000000000000815260040160405180910390fd5b50505050565b60008381526001602090815260408083208151606081018352905460ff81161515825267ffffffffffffffff61010082048116948301859052690100000000000000000090910416918101919091529082806108ef8363ffffffff8082169260209290921c1690565b9150915060006108ff8383610e51565b905060008060007f00000000000000000000000000000000000000000000000000000000000000008a5111610935578951610957565b7f00000000000000000000000000000000000000000000000000000000000000005b905060005b81811015610a535760008b828151811061097857610978611580565b6020026020010151905060006002811115610995576109956112d0565b815160028111156109a8576109a86112d0565b036109df5760208101516000806109cc8363ffffffff8082169260209290921c1690565b909b50995060019650610a539350505050565b6001815160028111156109f4576109f46112d0565b03610a26576020810151600080610a188363ffffffff8082169260209290921c1690565b909b509950610a4a92505050565b600281516002811115610a3b57610a3b6112d0565b03610a4a576001945050610a53565b5060010161095c565b50610a5e8686610e8c565b98508215610afa5760008c815260016020526040902080547fffffffffffffffffffffffffffffffffffffffffffffff000000000000000000169055610aa4848d610eb3565b610aae8686610e51565b60405167ffffffffffffffff8b81168252918216918d16908e907f7c288ac7cb5673d5f9855e32893f40be1c4335163b8fd2446817f2289a16bc9a9060200160405180910390a4610d19565b8115610c215760008c8152600160208190526040822080547fffffffffffffffffffffffffffffffffffffffffffffff0000000000000000001661010067ffffffffffffffff8e1602179091179055610b528a610d28565b9050610bd3818e67ffffffffffffffff9182166000908152600560208181526040808420805486865260018085529286208054919098166901000000000000000000027fffffffffffffffffffffffffffffff0000000000000000ffffffffffffffffff909116179096559181528454918201855593825292902090910155565b60405167ffffffffffffffff8b8116825280831691908e16908f907f94a2388af485cc7e880b0a4e02ff47582b3a0b6b609460ecfedd5de853141ceb9060200160405180910390a450610d19565b6000610c2d8787610e51565b90508067ffffffffffffffff168567ffffffffffffffff1614610cd357610c54858e610eb3565b610cd3818e67ffffffffffffffff9182166000908152600560208181526040808420805486865260018085529286208054919098166901000000000000000000027fffffffffffffffffffffffffffffff0000000000000000ffffffffffffffffff909116179096559181528454918201855593825292902090910155565b5060008c815260016020526040902080547fffffffffffffffffffffffffffffffffffffffffffffff0000000000000000ff1661010067ffffffffffffffff8c16021790555b50505050505050509392505050565b600063ffffffff82811690602084901c168280610d4584846110ab565b9092509050610d6863ffffffff831667ffffffff00000000602084901b166115af565b9695505050505050565b60007f000000000000000000000000000000000000000000000000000000000000000073ffffffffffffffffffffffffffffffffffffffff16610db457504290565b7f000000000000000000000000000000000000000000000000000000000000000073ffffffffffffffffffffffffffffffffffffffff1663b80777ea6040518163ffffffff1660e01b8152600401602060405180830381865afa158015610e1f573d6000803e3d6000fd5b505050506040513d601f19601f82011682018060405250810190610e4391906115cf565b905090565b61006c816110cb565b6000806000610e6085856110ab565b9092509050610e8363ffffffff831667ffffffff00000000602084901b166115af565b95945050505050565b6000610eac63ffffffff841667ffffffff00000000602085901b166115af565b9392505050565b67ffffffffffffffff82166000908152600560205260409020546001819003610f195767ffffffffffffffff83166000908152600560205260409020805480610efe57610efe6115e8565b60019003818190600052602060002001600090559055505050565b6000828152600160208190526040909120546901000000000000000000900467ffffffffffffffff1690610f4d9083611412565b8167ffffffffffffffff1603610fa05767ffffffffffffffff84166000908152600560205260409020805480610f8557610f856115e8565b60019003818190600052602060002001600090559055610880565b67ffffffffffffffff84166000908152600560205260408120610fc4600185611412565b81548110610fd457610fd4611580565b60009182526020808320919091015480835260018252604080842080547fffffffffffffffffffffffffffffff0000000000000000ffffffffffffffffff16690100000000000000000067ffffffffffffffff898116918202929092179092558a168552600590935290922080549293508392909190811061105857611058611580565b600091825260208083209091019290925567ffffffffffffffff8716815260059091526040902080548061108e5761108e6115e8565b600190038181906000526020600020016000905590555050505050565b6000806110b7846110ec565b91506110c2836110ec565b90509250929050565b60006a636f6e736f6c652e6c6f679050600080835160208501845afa505050565b6000808260030b12611115576010611105600884611617565b61110f9190611659565b92915050565b60106008611122846116cd565b61112c9190611617565b6111369190611659565b61110f906116cd565b919050565b60006020828403121561115657600080fd5b5035919050565b803573ffffffffffffffffffffffffffffffffffffffff8116811461113f57600080fd5b60008060008060006080868803121561119957600080fd5b85359450602086013567ffffffffffffffff8111156111b757600080fd5b8601601f810188136111c857600080fd5b803567ffffffffffffffff8111156111df57600080fd5b8860208260061b84010111156111f457600080fd5b60209190910194509250604086013591506112116060870161115d565b90509295509295909350565b80356003811061113f57600080fd5b80356fffffffffffffffffffffffffffffffff8116811461113f57600080fd5b6000604082840312801561125f57600080fd5b506040805190810167ffffffffffffffff811182821017156112aa577f4e487b7100000000000000000000000000000000000000000000000000000000600052604160045260246000fd5b6040526112b68361121d565b81526112c46020840161122c565b60208201529392505050565b7f4e487b7100000000000000000000000000000000000000000000000000000000600052602160045260246000fd5b60038110611336577f4e487b7100000000000000000000000000000000000000000000000000000000600052602160045260246000fd5b9052565b7fffffffffffffffffffffffffffffffffffffffffffffffff000000000000000084168152604060208201819052810182905260008360608301825b858110156113c5576113908261138b8561121d565b6112ff565b6fffffffffffffffffffffffffffffffff6113ad6020850161122c565b16602083015260409283019290910190600101611376565b509695505050505050565b7f4e487b7100000000000000000000000000000000000000000000000000000000600052601160045260246000fd5b8082018082111561110f5761110f6113d0565b8181038181111561110f5761110f6113d0565b7f4e487b7100000000000000000000000000000000000000000000000000000000600052601260045260246000fd5b60008261146357611463611425565b500490565b67ffffffffffffffff828116828216039081111561110f5761110f6113d0565b808202811582820484141761110f5761110f6113d0565b602081526000825180602084015260005b818110156114cd57602081860181015160408684010152016114b0565b5060006040828501015260407fffffffffffffffffffffffffffffffffffffffffffffffffffffffffffffffe0601f83011684010191505092915050565b6000604082018483526040602084015280845180835260608501915060208601925060005b818110156115745783516115458482516112ff565b6020908101516fffffffffffffffffffffffffffffffff16848201529390930192604090920191600101611530565b50909695505050505050565b7f4e487b7100000000000000000000000000000000000000000000000000000000600052603260045260246000fd5b67ffffffffffffffff818116838216019081111561110f5761110f6113d0565b6000602082840312156115e157600080fd5b5051919050565b7f4e487b7100000000000000000000000000000000000000000000000000000000600052603160045260246000fd5b600381810b9083900b01637fffffff81137fffffffffffffffffffffffffffffffffffffffffffffffffffffffff800000008212171561110f5761110f6113d0565b60008160030b8360030b8061167057611670611425565b7fffffffffffffffffffffffffffffffffffffffffffffffffffffffffffffffff81147fffffffffffffffffffffffffffffffffffffffffffffffffffffffff80000000831416156116c4576116c46113d0565b90059392505050565b60008160030b7fffffffffffffffffffffffffffffffffffffffffffffffffffffffff800000008103611702576117026113d0565b6000039291505056fea2646970667358221220b9abbaf2f2b6fba41be025f1854680afecc5fcd1fc2b2ad5b65d06d270a5f4fc64736f6c634300081c0033",
  "linkReferences": {},
  "deployedLinkReferences": {},
  "immutableReferences": {
    "18944": [
      {
        "length": 32,
        "start": 1623
      },
      {
        "length": 32,
        "start": 1718
      }
    ],
    "18947": [
      {
        "length": 32,
        "start": 1571
      },
      {
        "length": 32,
        "start": 1782
      }
    ],
    "18950": [
      {
        "length": 32,
        "start": 1538
      }
    ],
    "18957": [
      {
        "length": 32,
        "start": 2312
      },
      {
        "length": 32,
        "start": 2359
      }
    ],
    "19034": [
      {
        "length": 32,
        "start": 3446
      },
      {
        "length": 32,
        "start": 3510
      }
    ]
  },
  "inputSourceName": "project/src/game/routes/GameReveal.sol",
  "devdoc": {
    "errors": {
      "AvatarIsDead(uint256)": [
        {
          "params": {
            "avatarID": "the id of the dead avatar The avatar is dead, no action possible"
          }
        }
      ]
    },
    "events": {
      "AvatarDeposited(uint256,address,address)": {
        "params": {
          "avatarID": "the id of the NFT being deposited",
          "controller": "the account authorized to control the avatar in-game",
          "owner": "the account authorized to get the avatar back"
        }
      },
      "AvatarWithdrawn(uint256)": {
        "params": {
          "avatarID": "the id of the NFT being transfered out"
        }
      },
      "CommitmentCancelled(uint256,uint64)": {
        "params": {
          "avatarID": "avatar whose commitment is cancelled",
          "epoch": "epoch number on which this commit belongs to"
        }
      },
      "CommitmentMade(uint256,uint64,bytes24)": {
        "params": {
          "avatarID": "avatar whose commitment is made",
          "commitmentHash": "the hash of moves",
          "epoch": "epoch number on which this commit belongs to"
        }
      },
      "CommitmentRevealed(uint256,uint64,uint64,bytes24,(uint8,uint128)[])": {
        "params": {
          "actions": "the actions",
          "avatarID": "avatar id whose action is commited",
          "commitmentHash": "the hash of the moves",
          "epoch": "epoch number on which this commit belongs to"
        }
      },
      "CommitmentVoid(uint256,uint64)": {
        "params": {
          "avatarID": "the account that made the commitment",
          "epoch": "epoch number on which this commit belongs to"
        }
      },
      "EnteredTheGame(uint256,uint64,uint64,uint64)": {
        "params": {
          "avatarID": "the id of the NFT being added",
          "epoch": "the epoch at which it happened",
          "newPosition": "the resulting avatar's position",
          "zone": "the resulting avatar's zone"
        }
      },
      "LeftTheGame(uint256,uint64,uint64,uint64)": {
        "params": {
          "avatarID": "the id of the NFT being removed",
          "epoch": "the epoch at which it happened",
          "positionWhenLeaving": "the avatar's position when leaving",
          "zoneWhenLeaving": "the avatar's zone when leaving"
        }
      }
    },
    "kind": "dev",
    "methods": {},
    "version": 1
  },
  "evm": {
    "gasEstimates": {
      "creation": {
        "codeDepositCost": "1190600",
        "executionCost": "infinite",
        "totalCost": "infinite"
      },
      "external": {
        "acknowledgeMissedReveal(uint256)": "infinite",
        "reveal(uint256,(uint8,uint128)[],bytes32,address)": "infinite"
      }
    }
  },
  "storageLayout": {
    "storage": [
      {
        "astId": 18966,
        "contract": "project/src/game/routes/GameReveal.sol:GameReveal",
        "label": "_players",
        "offset": 0,
        "slot": "0",
        "type": "t_mapping(t_uint256,t_struct(Player)17356_storage)"
      },
      {
        "astId": 18971,
        "contract": "project/src/game/routes/GameReveal.sol:GameReveal",
        "label": "_avatars",
        "offset": 0,
        "slot": "1",
        "type": "t_mapping(t_uint256,t_struct(Avatar)17363_storage)"
      },
      {
        "astId": 18976,
        "contract": "project/src/game/routes/GameReveal.sol:GameReveal",
        "label": "_ownedAvatars",
        "offset": 0,
        "slot": "2",
        "type": "t_mapping(t_address,t_array(t_uint256)dyn_storage)"
      },
      {
        "astId": 18980,
        "contract": "project/src/game/routes/GameReveal.sol:GameReveal",
        "label": "_ownedAvatarsIndex",
        "offset": 0,
        "slot": "3",
        "type": "t_mapping(t_uint256,t_uint256)"
      },
      {
        "astId": 18985,
        "contract": "project/src/game/routes/GameReveal.sol:GameReveal",
        "label": "_commitments",
        "offset": 0,
        "slot": "4",
        "type": "t_mapping(t_uint256,t_struct(Commitment)17372_storage)"
      },
      {
        "astId": 18990,
        "contract": "project/src/game/routes/GameReveal.sol:GameReveal",
        "label": "_zones",
        "offset": 0,
        "slot": "5",
        "type": "t_mapping(t_uint64,t_struct(Zone)17367_storage)"
      }
    ],
    "types": {
      "t_address": {
        "encoding": "inplace",
        "label": "address",
        "numberOfBytes": "20"
      },
      "t_array(t_uint256)dyn_storage": {
        "base": "t_uint256",
        "encoding": "dynamic_array",
        "label": "uint256[]",
        "numberOfBytes": "32"
      },
      "t_bool": {
        "encoding": "inplace",
        "label": "bool",
        "numberOfBytes": "1"
      },
      "t_bytes24": {
        "encoding": "inplace",
        "label": "bytes24",
        "numberOfBytes": "24"
      },
      "t_mapping(t_address,t_array(t_uint256)dyn_storage)": {
        "encoding": "mapping",
        "key": "t_address",
        "label": "mapping(address => uint256[])",
        "numberOfBytes": "32",
        "value": "t_array(t_uint256)dyn_storage"
      },
      "t_mapping(t_uint256,t_struct(Avatar)17363_storage)": {
        "encoding": "mapping",
        "key": "t_uint256",
        "label": "mapping(uint256 => struct UsingGameTypes.Avatar)",
        "numberOfBytes": "32",
        "value": "t_struct(Avatar)17363_storage"
      },
      "t_mapping(t_uint256,t_struct(Commitment)17372_storage)": {
        "encoding": "mapping",
        "key": "t_uint256",
        "label": "mapping(uint256 => struct UsingGameTypes.Commitment)",
        "numberOfBytes": "32",
        "value": "t_struct(Commitment)17372_storage"
      },
      "t_mapping(t_uint256,t_struct(Player)17356_storage)": {
        "encoding": "mapping",
        "key": "t_uint256",
        "label": "mapping(uint256 => struct UsingGameTypes.Player)",
        "numberOfBytes": "32",
        "value": "t_struct(Player)17356_storage"
      },
      "t_mapping(t_uint256,t_uint256)": {
        "encoding": "mapping",
        "key": "t_uint256",
        "label": "mapping(uint256 => uint256)",
        "numberOfBytes": "32",
        "value": "t_uint256"
      },
      "t_mapping(t_uint64,t_struct(Zone)17367_storage)": {
        "encoding": "mapping",
        "key": "t_uint64",
        "label": "mapping(uint64 => struct UsingGameTypes.Zone)",
        "numberOfBytes": "32",
        "value": "t_struct(Zone)17367_storage"
      },
      "t_struct(Avatar)17363_storage": {
        "encoding": "inplace",
        "label": "struct UsingGameTypes.Avatar",
        "members": [
          {
            "astId": 17358,
            "contract": "project/src/game/routes/GameReveal.sol:GameReveal",
            "label": "inGame",
            "offset": 0,
            "slot": "0",
            "type": "t_bool"
          },
          {
            "astId": 17360,
            "contract": "project/src/game/routes/GameReveal.sol:GameReveal",
            "label": "position",
            "offset": 1,
            "slot": "0",
            "type": "t_uint64"
          },
          {
            "astId": 17362,
            "contract": "project/src/game/routes/GameReveal.sol:GameReveal",
            "label": "zoneIndex",
            "offset": 9,
            "slot": "0",
            "type": "t_uint64"
          }
        ],
        "numberOfBytes": "32"
      },
      "t_struct(Commitment)17372_storage": {
        "encoding": "inplace",
        "label": "struct UsingGameTypes.Commitment",
        "members": [
          {
            "astId": 17369,
            "contract": "project/src/game/routes/GameReveal.sol:GameReveal",
            "label": "hash",
            "offset": 0,
            "slot": "0",
            "type": "t_bytes24"
          },
          {
            "astId": 17371,
            "contract": "project/src/game/routes/GameReveal.sol:GameReveal",
            "label": "epoch",
            "offset": 24,
            "slot": "0",
            "type": "t_uint64"
          }
        ],
        "numberOfBytes": "32"
      },
      "t_struct(Player)17356_storage": {
        "encoding": "inplace",
        "label": "struct UsingGameTypes.Player",
        "members": [
          {
            "astId": 17353,
            "contract": "project/src/game/routes/GameReveal.sol:GameReveal",
            "label": "owner",
            "offset": 0,
            "slot": "0",
            "type": "t_address"
          },
          {
            "astId": 17355,
            "contract": "project/src/game/routes/GameReveal.sol:GameReveal",
            "label": "controller",
            "offset": 0,
            "slot": "1",
            "type": "t_address"
          }
        ],
        "numberOfBytes": "64"
      },
      "t_struct(Zone)17367_storage": {
        "encoding": "inplace",
        "label": "struct UsingGameTypes.Zone",
        "members": [
          {
            "astId": 17366,
            "contract": "project/src/game/routes/GameReveal.sol:GameReveal",
            "label": "avatars",
            "offset": 0,
            "slot": "0",
            "type": "t_array(t_uint256)dyn_storage"
          }
        ],
        "numberOfBytes": "32"
      },
      "t_uint256": {
        "encoding": "inplace",
        "label": "uint256",
        "numberOfBytes": "32"
      },
      "t_uint64": {
        "encoding": "inplace",
        "label": "uint64",
        "numberOfBytes": "8"
      }
    }
  },
  "userdoc": {
    "errors": {
      "AvatarAlreadyInGame(uint256)": [
        {
          "notice": "happen when attempting to enter an avatar already in the game"
        }
      ],
      "AvatarIsDead(uint256)": [
        {
          "notice": "Player have to reveal if they can"
        }
      ],
      "AvatarNotAvailable(uint256)": [
        {
          "notice": "happen when attempting to move an avatar not in the game"
        }
      ],
      "AvatarNotInGame(uint256)": [
        {
          "notice": "happen when attempting to move an avatar not in the game"
        }
      ],
      "AvatarNotReady(uint256)": [
        {
          "notice": "happen when attempting to move an avatar that just entered the game. \\  It needs to wait the next epoch"
        }
      ],
      "AvatarStillInGame(uint256)": [
        {
          "notice": "happen when attempting to extract an avatar still in the game"
        }
      ],
      "CanStillReveal()": [
        {
          "notice": "Player have to reveal if they can prevent player from acknowledging missed reveal if there is still time to reveal."
        }
      ],
      "CommitmentHashNotMatching()": [
        {
          "notice": "Player have to reveal their commitment using the exact same move values  If they provide different value, the commitment hash will differ and Game will reject their reveal."
        }
      ],
      "GameNotStarted()": [
        {
          "notice": "Game has not started yet, can't perform any action"
        }
      ],
      "ImpossibleConfiguration()": [
        {
          "notice": "The cell configuration is invalid This can happen win debug mode where admin can setup cell bypassing moves rules For example when setting up neighborood configuration that would require a cell to have negative life"
        }
      ],
      "InCommitmentPhase()": [
        {
          "notice": "When in Commit phase, player can make new commitment but they cannot reveal their move yet."
        }
      ],
      "InRevealPhase()": [
        {
          "notice": "When in Reveal phase, it is not possible to commit new moves or cancel previous commitment  During Reveal phase, players have to reveal their commitment, if not already done."
        }
      ],
      "InvalidData()": [
        {
          "notice": "happen when transfering an avatar with invalid data"
        }
      ],
      "InvalidEpoch()": [
        {
          "notice": "Player can only reveal their move in the same epoch they commited.abi  If a player reveal later it can only do to minimize the reserve burn cost by calling : `acknowledgeMissedReveal`"
        }
      ],
      "NoCommitmentToCancel()": [
        {
          "notice": "There is no commitment registered, cannot cancel."
        }
      ],
      "NotAuthorizedController(address)": [
        {
          "notice": "happen when an unauthorized account attempt to control an avatar"
        }
      ],
      "NotAuthorizedOwner(address)": [
        {
          "notice": "happen when an unauthorized account attempt to withdraw an avatar"
        }
      ],
      "NothingToReveal()": [
        {
          "notice": "Player can only reveal moves they commited."
        }
      ],
      "PreviousCommitmentNotRevealed()": [
        {
          "notice": "Previous commitment need to be revealed before making a new one. Even if the corresponding reveal phase has passed.\\  It is also not possible to withdraw any amount from reserve until the commitment is revealed.\\If player lost the information to reveal, it can acknowledge failure which will burn all its reserve.\\"
        }
      ],
      "UnableToExitFromThisPosition(uint64)": [
        {
          "notice": "happen when attempting to leave the game from a non-exit position"
        }
      ]
    },
    "events": {
      "AvatarDeposited(uint256,address,address)": {
        "notice": "An avatar has been deposited, ready to enter"
      },
      "AvatarWithdrawn(uint256)": {
        "notice": "A avatar has been withdrawn"
      },
      "CommitmentCancelled(uint256,uint64)": {
        "notice": "A player has cancelled its current commitment (before it reached the reveal phase)"
      },
      "CommitmentMade(uint256,uint64,bytes24)": {
        "notice": "A player has commited to make a move and reveal it on the reveal phase"
      },
      "CommitmentRevealed(uint256,uint64,uint64,bytes24,(uint8,uint128)[])": {
        "notice": "Player has revealed its previous commitment"
      },
      "CommitmentVoid(uint256,uint64)": {
        "notice": "A player has acknowledged its failure to reveal its previous commitment"
      },
      "EnteredTheGame(uint256,uint64,uint64,uint64)": {
        "notice": "A avatar has entered the game"
      },
      "LeftTheGame(uint256,uint64,uint64,uint64)": {
        "notice": "An avatar has left the game"
      }
    },
    "kind": "user",
    "methods": {},
    "version": 1
  },
  "argsData": "0x0000000000000000000000000000000000000000000000000000000000000000000000000000000000000000000000000000000000000000000000000000001e00000000000000000000000000000000000000000000000000000000000000050000000000000000000000000000000000000000000000000000000000000000000000000000000000000000cc0925082bfb1122534d1a7a33bd1dc990113a390000000000000000000000000000000000000000000000000000000000000014",
  "transaction": {
    "hash": "0x3c6b0e83f0877ce0b521c6b66bd6620591126250181ec03449ddc240fa978d6e",
    "nonce": "0x5",
    "origin": "0x61c461ecc993aadeb7e4b47e96d1b8cc37314b20"
  }
}