{
  "address": "0xad994dedaab665ce5aad2a333253e30708087149",
  "abi": [
    {
      "inputs": [],
      "stateMutability": "nonpayable",
      "type": "constructor"
    },
    {
      "inputs": [
        {
          "internalType": "address",
          "name": "owner",
          "type": "address"
        },
        {
          "internalType": "uint256",
          "name": "index",
          "type": "uint256"
        }
      ],
      "name": "ERC721OutOfBoundsIndex",
      "type": "error"
    },
    {
      "inputs": [
        {
          "internalType": "address",
          "name": "addr",
          "type": "address"
        }
      ],
      "name": "InvalidAddress",
      "type": "error"
    },
    {
      "inputs": [
        {
          "internalType": "uint256",
          "name": "tokenID",
          "type": "uint256"
        }
      ],
      "name": "NonExistentToken",
      "type": "error"
    },
    {
      "inputs": [],
      "name": "NonceOverflow",
      "type": "error"
    },
    {
      "inputs": [],
      "name": "NotAuthorized",
      "type": "error"
    },
    {
      "inputs": [
        {
          "internalType": "address",
          "name": "provided",
          "type": "address"
        },
        {
          "internalType": "address",
          "name": "currentOwner",
          "type": "address"
        }
      ],
      "name": "NotOwner",
      "type": "error"
    },
    {
      "inputs": [
        {
          "internalType": "uint256",
          "name": "tokenID",
          "type": "uint256"
        }
      ],
      "name": "TokenAlreadyExists",
      "type": "error"
    },
    {
      "inputs": [
        {
          "internalType": "uint256",
          "name": "tokenID",
          "type": "uint256"
        }
      ],
      "name": "TokenCannotBeReminted",
      "type": "error"
    },
    {
      "inputs": [],
      "name": "TransferRejected",
      "type": "error"
    },
    {
      "anonymous": false,
      "inputs": [
        {
          "indexed": true,
          "internalType": "address",
          "name": "owner",
          "type": "address"
        },
        {
          "indexed": true,
          "internalType": "address",
          "name": "approved",
          "type": "address"
        },
        {
          "indexed": true,
          "internalType": "uint256",
          "name": "tokenID",
          "type": "uint256"
        }
      ],
      "name": "Approval",
      "type": "event"
    },
    {
      "anonymous": false,
      "inputs": [
        {
          "indexed": true,
          "internalType": "address",
          "name": "owner",
          "type": "address"
        },
        {
          "indexed": true,
          "internalType": "address",
          "name": "operator",
          "type": "address"
        },
        {
          "indexed": false,
          "internalType": "bool",
          "name": "approved",
          "type": "bool"
        }
      ],
      "name": "ApprovalForAll",
      "type": "event"
    },
    {
      "anonymous": false,
      "inputs": [
        {
          "indexed": true,
          "internalType": "address",
          "name": "from",
          "type": "address"
        },
        {
          "indexed": true,
          "internalType": "address",
          "name": "to",
          "type": "address"
        },
        {
          "indexed": true,
          "internalType": "uint256",
          "name": "tokenID",
          "type": "uint256"
        }
      ],
      "name": "Transfer",
      "type": "event"
    },
    {
      "inputs": [
        {
          "internalType": "address",
          "name": "operator",
          "type": "address"
        },
        {
          "internalType": "uint256",
          "name": "tokenID",
          "type": "uint256"
        }
      ],
      "name": "approve",
      "outputs": [],
      "stateMutability": "nonpayable",
      "type": "function"
    },
    {
      "inputs": [
        {
          "internalType": "address",
          "name": "owner",
          "type": "address"
        }
      ],
      "name": "balanceOf",
      "outputs": [
        {
          "internalType": "uint256",
          "name": "balance",
          "type": "uint256"
        }
      ],
      "stateMutability": "view",
      "type": "function"
    },
    {
      "inputs": [
        {
          "internalType": "uint256",
          "name": "tokenID",
          "type": "uint256"
        }
      ],
      "name": "getApproved",
      "outputs": [
        {
          "internalType": "address",
          "name": "operator",
          "type": "address"
        }
      ],
      "stateMutability": "view",
      "type": "function"
    },
    {
      "inputs": [
        {
          "internalType": "address",
          "name": "owner",
          "type": "address"
        },
        {
          "internalType": "address",
          "name": "operator",
          "type": "address"
        }
      ],
      "name": "isApprovedForAll",
      "outputs": [
        {
          "internalType": "bool",
          "name": "isOperator",
          "type": "bool"
        }
      ],
      "stateMutability": "view",
      "type": "function"
    },
    {
      "inputs": [
        {
          "internalType": "address",
          "name": "to",
          "type": "address"
        },
        {
          "internalType": "uint256",
          "name": "tokenID",
          "type": "uint256"
        },
        {
          "internalType": "bytes",
          "name": "data",
          "type": "bytes"
        }
      ],
      "name": "mint",
      "outputs": [],
      "stateMutability": "payable",
      "type": "function"
    },
    {
      "inputs": [
        {
          "internalType": "uint256[]",
          "name": "tokenIDs",
          "type": "uint256[]"
        }
      ],
      "name": "ownerAndLastTransferBlockNumberList",
      "outputs": [
        {
          "components": [
            {
              "internalType": "address",
              "name": "owner",
              "type": "address"
            },
            {
              "internalType": "uint256",
              "name": "lastTransferBlockNumber",
              "type": "uint256"
            }
          ],
          "internalType": "struct IERC721WithBlocknumber.OwnerData[]",
          "name": "ownersData",
          "type": "tuple[]"
        }
      ],
      "stateMutability": "view",
      "type": "function"
    },
    {
      "inputs": [
        {
          "internalType": "uint256",
          "name": "tokenID",
          "type": "uint256"
        }
      ],
      "name": "ownerAndLastTransferBlockNumberOf",
      "outputs": [
        {
          "internalType": "address",
          "name": "owner",
          "type": "address"
        },
        {
          "internalType": "uint256",
          "name": "blockNumber",
          "type": "uint256"
        }
      ],
      "stateMutability": "view",
      "type": "function"
    },
    {
      "inputs": [
        {
          "internalType": "uint256",
          "name": "tokenID",
          "type": "uint256"
        }
      ],
      "name": "ownerOf",
      "outputs": [
        {
          "internalType": "address",
          "name": "owner",
          "type": "address"
        }
      ],
      "stateMutability": "view",
      "type": "function"
    },
    {
      "inputs": [
        {
          "internalType": "address",
          "name": "from",
          "type": "address"
        },
        {
          "internalType": "address",
          "name": "to",
          "type": "address"
        },
        {
          "internalType": "uint256",
          "name": "tokenID",
          "type": "uint256"
        }
      ],
      "name": "safeTransferFrom",
      "outputs": [],
      "stateMutability": "nonpayable",
      "type": "function"
    },
    {
      "inputs": [
        {
          "internalType": "address",
          "name": "from",
          "type": "address"
        },
        {
          "internalType": "address",
          "name": "to",
          "type": "address"
        },
        {
          "internalType": "uint256",
          "name": "tokenID",
          "type": "uint256"
        },
        {
          "internalType": "bytes",
          "name": "data",
          "type": "bytes"
        }
      ],
      "name": "safeTransferFrom",
      "outputs": [],
      "stateMutability": "nonpayable",
      "type": "function"
    },
    {
      "inputs": [
        {
          "internalType": "address",
          "name": "operator",
          "type": "address"
        },
        {
          "internalType": "bool",
          "name": "approved",
          "type": "bool"
        }
      ],
      "name": "setApprovalForAll",
      "outputs": [],
      "stateMutability": "nonpayable",
      "type": "function"
    },
    {
      "inputs": [
        {
          "internalType": "bytes4",
          "name": "interfaceId",
          "type": "bytes4"
        }
      ],
      "name": "supportsInterface",
      "outputs": [
        {
          "internalType": "bool",
          "name": "",
          "type": "bool"
        }
      ],
      "stateMutability": "view",
      "type": "function"
    },
    {
      "inputs": [
        {
          "internalType": "uint256",
          "name": "index",
          "type": "uint256"
        }
      ],
      "name": "tokenByIndex",
      "outputs": [
        {
          "internalType": "uint256",
          "name": "",
          "type": "uint256"
        }
      ],
      "stateMutability": "view",
      "type": "function"
    },
    {
      "inputs": [
        {
          "internalType": "address",
          "name": "owner",
          "type": "address"
        },
        {
          "internalType": "uint256",
          "name": "index",
          "type": "uint256"
        }
      ],
      "name": "tokenOfOwnerByIndex",
      "outputs": [
        {
          "internalType": "uint256",
          "name": "",
          "type": "uint256"
        }
      ],
      "stateMutability": "view",
      "type": "function"
    },
    {
      "inputs": [
        {
          "internalType": "address",
          "name": "owner",
          "type": "address"
        },
        {
          "internalType": "uint256",
          "name": "index",
          "type": "uint256"
        },
        {
          "internalType": "uint256",
          "name": "limit",
          "type": "uint256"
        }
      ],
      "name": "tokensOfOwner",
      "outputs": [
        {
          "internalType": "uint256[]",
          "name": "tokenIDs",
          "type": "uint256[]"
        },
        {
          "internalType": "bool",
          "name": "more",
          "type": "bool"
        }
      ],
      "stateMutability": "view",
      "type": "function"
    },
    {
      "inputs": [],
      "name": "totalSupply",
      "outputs": [
        {
          "internalType": "uint256",
          "name": "",
          "type": "uint256"
        }
      ],
      "stateMutability": "view",
      "type": "function"
    },
    {
      "inputs": [
        {
          "internalType": "address",
          "name": "from",
          "type": "address"
        },
        {
          "internalType": "address",
          "name": "to",
          "type": "address"
        },
        {
          "internalType": "uint256",
          "name": "tokenID",
          "type": "uint256"
        }
      ],
      "name": "transferFrom",
      "outputs": [],
      "stateMutability": "nonpayable",
      "type": "function"
    }
  ],
  "contractName": "Avatars",
  "sourceName": "src/avatars/Avatars.sol",
  "bytecode": "0x6080604052348015600e575f5ffd5b50611e4c8061001c5f395ff3fe608060405260043610610109575f3560e01c80634f6ccce7116100a1578063a22cb46511610071578063c839fe9411610057578063c839fe9414610336578063e985e9c514610363578063f3945282146103b7575f5ffd5b8063a22cb465146102f8578063b88d4fde14610317575f5ffd5b80634f6ccce7146102885780636352211e146102a757806370a08231146102c657806394d008ef146102e5575f5ffd5b806323b872dd116100dc57806323b872dd146101c45780632f745c59146101e357806342842e0e1461020257806348f3c51c14610221575f5ffd5b806301ffc9a71461010d578063081812fc14610141578063095ea7b31461018557806318160ddd146101a6575b5f5ffd5b348015610118575f5ffd5b5061012c61012736600461185b565b6103e3565b60405190151581526020015b60405180910390f35b34801561014c575f5ffd5b5061016061015b36600461187d565b61043e565b60405173ffffffffffffffffffffffffffffffffffffffff9091168152602001610138565b348015610190575f5ffd5b506101a461019f3660046118b7565b6104ff565b005b3480156101b1575f5ffd5b506006545b604051908152602001610138565b3480156101cf575f5ffd5b506101a46101de3660046118df565b61060e565b3480156101ee575f5ffd5b506101b66101fd3660046118b7565b610889565b34801561020d575f5ffd5b506101a461021c3660046118df565b61091f565b34801561022c575f5ffd5b5061025c61023b36600461187d565b5f908152602081905260409020549067ffffffffffffffff60b883901c1690565b6040805173ffffffffffffffffffffffffffffffffffffffff9093168352602083019190915201610138565b348015610293575f5ffd5b506101b66102a236600461187d565b61093e565b3480156102b2575f5ffd5b506101606102c136600461187d565b6109ac565b3480156102d1575f5ffd5b506101b66102e0366004611919565b610a0f565b6101a46102f3366004611932565b610a9d565b348015610303575f5ffd5b506101a46103123660046119b5565b610ade565b348015610322575f5ffd5b506101a4610331366004611a1b565b610aed565b348015610341575f5ffd5b50610355610350366004611b35565b610d6a565b604051610138929190611b65565b34801561036e575f5ffd5b5061012c61037d366004611bb4565b73ffffffffffffffffffffffffffffffffffffffff9182165f90815260026020908152604080832093909416825291909152205460ff1690565b3480156103c2575f5ffd5b506103d66103d1366004611be5565b610e7c565b6040516101389190611c56565b5f7fffffffff0000000000000000000000000000000000000000000000000000000082167f780e9d63000000000000000000000000000000000000000000000000000000001480610438575061043882610fa3565b92915050565b5f818152602081905260408120547f80000000000000000000000000000000000000000000000000000000000000008082161473ffffffffffffffffffffffffffffffffffffffff82166104c6576040517f38077a2b000000000000000000000000000000000000000000000000000000008152600481018590526024015b60405180910390fd5b80156104f6575050505f9081526003602052604090205473ffffffffffffffffffffffffffffffffffffffff1690565b505f9392505050565b5f818152602081905260409020546affffffffffffffffffffff60a082901c1673ffffffffffffffffffffffffffffffffffffffff821661056f576040517f38077a2b000000000000000000000000000000000000000000000000000000008152600481018490526024016104bd565b3373ffffffffffffffffffffffffffffffffffffffff8316148015906105c5575073ffffffffffffffffffffffffffffffffffffffff82165f90815260026020908152604080832033845290915290205460ff16155b156105fc576040517fea8e4eb500000000000000000000000000000000000000000000000000000000815260040160405180910390fd5b61060882828686611083565b50505050565b5f818152602081905260409020546affffffffffffffffffffff60a082901c167f80000000000000000000000000000000000000000000000000000000000000008083161473ffffffffffffffffffffffffffffffffffffffff83166106a3576040517f38077a2b000000000000000000000000000000000000000000000000000000008152600481018590526024016104bd565b8273ffffffffffffffffffffffffffffffffffffffff168673ffffffffffffffffffffffffffffffffffffffff1614610728576040517f23295f0e00000000000000000000000000000000000000000000000000000000815273ffffffffffffffffffffffffffffffffffffffff8088166004830152841660248201526044016104bd565b73ffffffffffffffffffffffffffffffffffffffff85161580610760575073ffffffffffffffffffffffffffffffffffffffff851630145b156107af576040517f8e4c8aa600000000000000000000000000000000000000000000000000000000815273ffffffffffffffffffffffffffffffffffffffff861660048201526024016104bd565b3373ffffffffffffffffffffffffffffffffffffffff87161461086f578080156107fb57505f8481526003602052604090205473ffffffffffffffffffffffffffffffffffffffff1633145b158015610838575073ffffffffffffffffffffffffffffffffffffffff86165f90815260026020908152604080832033845290915290205460ff16155b1561086f576040517fea8e4eb500000000000000000000000000000000000000000000000000000000815260040160405180910390fd5b610881868686601886901c1515611209565b505050505050565b5f61089383610a0f565b82106108ea576040517fa57d13dc00000000000000000000000000000000000000000000000000000000815273ffffffffffffffffffffffffffffffffffffffff84166004820152602481018390526044016104bd565b5073ffffffffffffffffffffffffffffffffffffffff919091165f908152600460209081526040808320938352929052205490565b61093983838360405180602001604052805f815250610aed565b505050565b5f61094860065490565b8210610989576040517fa57d13dc0000000000000000000000000000000000000000000000000000000081525f6004820152602481018390526044016104bd565b6006828154811061099c5761099c611cba565b905f5260205f2001549050919050565b5f8181526020819052604090205473ffffffffffffffffffffffffffffffffffffffff8116610a0a576040517f38077a2b000000000000000000000000000000000000000000000000000000008152600481018390526024016104bd565b919050565b5f73ffffffffffffffffffffffffffffffffffffffff8216610a75576040517f8e4c8aa600000000000000000000000000000000000000000000000000000000815273ffffffffffffffffffffffffffffffffffffffff831660048201526024016104bd565b5073ffffffffffffffffffffffffffffffffffffffff165f9081526001602052604090205490565b61060884845f85858080601f0160208091040260200160405190810160405280939291908181526020018383808284375f9201919091525061131f92505050565b610ae93383836113e4565b5050565b5f828152602081905260409020546affffffffffffffffffffff60a082901c167f80000000000000000000000000000000000000000000000000000000000000008083161473ffffffffffffffffffffffffffffffffffffffff8316610b82576040517f38077a2b000000000000000000000000000000000000000000000000000000008152600481018690526024016104bd565b8673ffffffffffffffffffffffffffffffffffffffff168373ffffffffffffffffffffffffffffffffffffffff1614610c07576040517f23295f0e00000000000000000000000000000000000000000000000000000000815273ffffffffffffffffffffffffffffffffffffffff8089166004830152841660248201526044016104bd565b73ffffffffffffffffffffffffffffffffffffffff86161580610c3f575073ffffffffffffffffffffffffffffffffffffffff861630145b15610c8e576040517f8e4c8aa600000000000000000000000000000000000000000000000000000000815273ffffffffffffffffffffffffffffffffffffffff871660048201526024016104bd565b3373ffffffffffffffffffffffffffffffffffffffff881614610d4e57808015610cda57505f8581526003602052604090205473ffffffffffffffffffffffffffffffffffffffff1633145b158015610d17575073ffffffffffffffffffffffffffffffffffffffff87165f90815260026020908152604080832033845290915290205460ff16155b15610d4e576040517fea8e4eb500000000000000000000000000000000000000000000000000000000815260040160405180910390fd5b610d61878787601886901c15158861147b565b50505050505050565b60605f5f610d7786610a0f565b9050808510610d98575050604080515f808252602082019092529150610e74565b5f610da38683611d14565b90505f818611610db35785610db5565b815b90505f8167ffffffffffffffff811115610dd157610dd16119ee565b604051908082528060200260200182016040528015610dfa578160200160208202803683370190505b5090505f5b82811015610e695773ffffffffffffffffffffffffffffffffffffffff8a165f90815260046020526040812090610e36838c611d27565b81526020019081526020015f2054828281518110610e5657610e56611cba565b6020908102919091010152600101610dff565b509450851415925050505b935093915050565b60608167ffffffffffffffff811115610e9757610e976119ee565b604051908082528060200260200182016040528015610edb57816020015b604080518082019091525f8082526020820152815260200190600190039081610eb55790505b5090505f5b82811015610f9c575f5f5f868685818110610efd57610efd611cba565b9050602002013581526020019081526020015f2054905080838381518110610f2757610f27611cba565b60200260200101515f019073ffffffffffffffffffffffffffffffffffffffff16908173ffffffffffffffffffffffffffffffffffffffff168152505060b881901c67ffffffffffffffff16838381518110610f8557610f85611cba565b602090810291909101810151015250600101610ee0565b5092915050565b5f7f01ffc9a7000000000000000000000000000000000000000000000000000000007fffffffff000000000000000000000000000000000000000000000000000000008316148061103557507f80ac58cd000000000000000000000000000000000000000000000000000000007fffffffff000000000000000000000000000000000000000000000000000000008316145b806104385750507fffffffff00000000000000000000000000000000000000000000000000000000167f5b5e139f000000000000000000000000000000000000000000000000000000001490565b601883901c5f611094856001611d27565b905081601882901c146110d3576040517fadc1557200000000000000000000000000000000000000000000000000000000815260040160405180910390fd5b73ffffffffffffffffffffffffffffffffffffffff841661111f575f83815260208190526040902060a082901b73ffffffffffffffffffffffffffffffffffffffff88161790556111a6565b5f8381526020818152604080832073ffffffffffffffffffffffffffffffffffffffff8a811660a087901b177f800000000000000000000000000000000000000000000000000000000000000017909155600390925290912080547fffffffffffffffffffffffff0000000000000000000000000000000000000000169186169190911790555b828473ffffffffffffffffffffffffffffffffffffffff168773ffffffffffffffffffffffffffffffffffffffff167f8c5be1e5ebec7d5bd14f71427d1e84f3dd0314c0f7b2291e5b200ac8c7c3b92560405160405180910390a4505050505050565b611215848484846114ee565b73ffffffffffffffffffffffffffffffffffffffff841661127c5761127782600680545f838152600760205260408120829055600182018355919091527ff652222313e28459528d920b65115c16c04f3efc82aaedc97be59f3f377c0d3f0155565b6112b9565b8273ffffffffffffffffffffffffffffffffffffffff168473ffffffffffffffffffffffffffffffffffffffff16146112b9576112b984836115ce565b73ffffffffffffffffffffffffffffffffffffffff83166112e2576112dd82611658565b610608565b8273ffffffffffffffffffffffffffffffffffffffff168473ffffffffffffffffffffffffffffffffffffffff16146106085761060883836116ff565b5f838152602081905260409020546affffffffffffffffffffff60a082901c1673ffffffffffffffffffffffffffffffffffffffff821615611390576040517f6025413b000000000000000000000000000000000000000000000000000000008152600481018690526024016104bd565b8315801561139d57508015155b156113d7576040517f14cfb979000000000000000000000000000000000000000000000000000000008152600481018690526024016104bd565b6108815f87875f8761147b565b73ffffffffffffffffffffffffffffffffffffffff8381165f8181526002602090815260408083209487168084529482529182902080547fffffffffffffffffffffffffffffffffffffffffffffffffffffffffffffff001686151590811790915591519182527f17307eab39ab6107e8899845ad3d59bd9653f200f220920489ca2b5937696c31910160405180910390a3505050565b61148785858585611209565b73ffffffffffffffffffffffffffffffffffffffff84163b156114e7576114b1338686868561175a565b6114e7576040517f4e472e5e00000000000000000000000000000000000000000000000000000000815260040160405180910390fd5b5050505050565b73ffffffffffffffffffffffffffffffffffffffff83165f90815260016020819052604090912080549091019055801561156d5773ffffffffffffffffffffffffffffffffffffffff84165f90815260016020526040902080547fffffffffffffffffffffffffffffffffffffffffffffffffffffffffffffffff0190555b5f828152602081905260408082204360b81b73ffffffffffffffffffffffffffffffffffffffff80881691821790925591518593918816917fddf252ad1be2c89b69c2b068fc378daa952ba7f163c4a11628f55a4df523b3ef91a450505050565b5f6115d883610a0f565b5f8381526005602090815260408083205473ffffffffffffffffffffffffffffffffffffffff8816845260049092529091209192509081831461163a575f83815260208281526040808320548584528184208190558352600590915290208290555b5f938452600560209081526040808620869055938552525081205550565b6006545f9061166990600190611d14565b5f838152600760205260408120546006805493945090928490811061169057611690611cba565b905f5260205f200154905080600683815481106116af576116af611cba565b5f9182526020808320909101929092558281526007909152604080822084905585825281205560068054806116e6576116e6611d3a565b600190038181905f5260205f20015f9055905550505050565b5f600161170b84610a0f565b6117159190611d14565b73ffffffffffffffffffffffffffffffffffffffff9093165f908152600460209081526040808320868452825280832085905593825260059052919091209190915550565b5f5f8473ffffffffffffffffffffffffffffffffffffffff1663150b7a02888887876040518563ffffffff1660e01b815260040161179b9493929190611d67565b6020604051808303815f875af11580156117b7573d5f5f3e3d5ffd5b505050506040513d601f19601f820116820180604052508101906117db9190611dfb565b7fffffffff00000000000000000000000000000000000000000000000000000000167f150b7a02000000000000000000000000000000000000000000000000000000001491505095945050505050565b7fffffffff0000000000000000000000000000000000000000000000000000000081168114611858575f5ffd5b50565b5f6020828403121561186b575f5ffd5b81356118768161182b565b9392505050565b5f6020828403121561188d575f5ffd5b5035919050565b803573ffffffffffffffffffffffffffffffffffffffff81168114610a0a575f5ffd5b5f5f604083850312156118c8575f5ffd5b6118d183611894565b946020939093013593505050565b5f5f5f606084860312156118f1575f5ffd5b6118fa84611894565b925061190860208501611894565b929592945050506040919091013590565b5f60208284031215611929575f5ffd5b61187682611894565b5f5f5f5f60608587031215611945575f5ffd5b61194e85611894565b935060208501359250604085013567ffffffffffffffff811115611970575f5ffd5b8501601f81018713611980575f5ffd5b803567ffffffffffffffff811115611996575f5ffd5b8760208284010111156119a7575f5ffd5b949793965060200194505050565b5f5f604083850312156119c6575f5ffd5b6119cf83611894565b9150602083013580151581146119e3575f5ffd5b809150509250929050565b7f4e487b71000000000000000000000000000000000000000000000000000000005f52604160045260245ffd5b5f5f5f5f60808587031215611a2e575f5ffd5b611a3785611894565b9350611a4560208601611894565b925060408501359150606085013567ffffffffffffffff811115611a67575f5ffd5b8501601f81018713611a77575f5ffd5b803567ffffffffffffffff811115611a9157611a916119ee565b6040517fffffffffffffffffffffffffffffffffffffffffffffffffffffffffffffffe0603f7fffffffffffffffffffffffffffffffffffffffffffffffffffffffffffffffe0601f8501160116810181811067ffffffffffffffff82111715611afd57611afd6119ee565b604052818152828201602001891015611b14575f5ffd5b816020840160208301375f6020838301015280935050505092959194509250565b5f5f5f60608486031215611b47575f5ffd5b611b5084611894565b95602085013595506040909401359392505050565b604080825283519082018190525f9060208501906060840190835b81811015611b9e578351835260209384019390920191600101611b80565b5050809250505082151560208301529392505050565b5f5f60408385031215611bc5575f5ffd5b611bce83611894565b9150611bdc60208401611894565b90509250929050565b5f5f60208385031215611bf6575f5ffd5b823567ffffffffffffffff811115611c0c575f5ffd5b8301601f81018513611c1c575f5ffd5b803567ffffffffffffffff811115611c32575f5ffd5b8560208260051b8401011115611c46575f5ffd5b6020919091019590945092505050565b602080825282518282018190525f918401906040840190835b81811015611caf578351805173ffffffffffffffffffffffffffffffffffffffff1684526020908101518185015290930192604090920191600101611c6f565b509095945050505050565b7f4e487b71000000000000000000000000000000000000000000000000000000005f52603260045260245ffd5b7f4e487b71000000000000000000000000000000000000000000000000000000005f52601160045260245ffd5b8181038181111561043857610438611ce7565b8082018082111561043857610438611ce7565b7f4e487b71000000000000000000000000000000000000000000000000000000005f52603160045260245ffd5b73ffffffffffffffffffffffffffffffffffffffff8516815273ffffffffffffffffffffffffffffffffffffffff84166020820152826040820152608060608201525f8251806080840152806020850160a085015e5f60a0828501015260a07fffffffffffffffffffffffffffffffffffffffffffffffffffffffffffffffe0601f83011684010191505095945050505050565b5f60208284031215611e0b575f5ffd5b81516118768161182b56fea26469706673582212203ea98cac7ee67faefb24d5d7a57b364c98a177f7afbc966b7c9a30f5a35567d564736f6c634300081c0033",
  "linkReferences": {},
  "deployedLinkReferences": {},
  "immutableReferences": {},
  "inputSourceName": "project/src/avatars/Avatars.sol",
  "devdoc": {
    "errors": {
      "InvalidAddress(address)": [
        {
          "params": {
            "addr": "invalid address"
          }
        }
      ],
      "NonExistentToken(uint256)": [
        {
          "params": {
            "tokenID": "id of the expected token"
          }
        }
      ],
      "NotOwner(address,address)": [
        {
          "params": {
            "currentOwner": "the current owner",
            "provided": "the address expected to be the current owner"
          }
        }
      ],
      "TokenAlreadyExists(uint256)": [
        {
          "params": {
            "tokenID": "id of the expected token"
          }
        }
      ],
      "TokenCannotBeReminted(uint256)": [
        {
          "params": {
            "tokenID": "id of the expected token"
          }
        }
      ]
    },
    "events": {
      "Approval(address,address,uint256)": {
        "params": {
          "approved": "account who can know transfer on the owner's behalf",
          "owner": "current owner of the token",
          "tokenID": "id of the token being approved"
        }
      },
      "ApprovalForAll(address,address,bool)": {
        "params": {
          "approved": "whether it is approved or not",
          "operator": "account who can know transfer on the owner's behalf",
          "owner": "the account granting rights over all of its token"
        }
      },
      "Transfer(address,address,uint256)": {
        "params": {
          "from": "the account the token is sent from",
          "to": "the account the token is sent to",
          "tokenID": "id of the token being sent"
        }
      }
    },
    "kind": "dev",
    "methods": {
      "approve(address,uint256)": {
        "params": {
          "operator": "The address receiving the approval.",
          "tokenID": "The id of the token."
        }
      },
      "balanceOf(address)": {
        "params": {
          "owner": "The address to look for."
        },
        "returns": {
          "balance": "The number of tokens owned by the address."
        }
      },
      "getApproved(uint256)": {
        "params": {
          "tokenID": "The id of the token."
        },
        "returns": {
          "operator": "The address of the operator."
        }
      },
      "isApprovedForAll(address,address)": {
        "params": {
          "operator": "The address of the operator.",
          "owner": "The address of the owner."
        },
        "returns": {
          "isOperator": "The status of the approval."
        }
      },
      "ownerAndLastTransferBlockNumberList(uint256[])": {
        "params": {
          "tokenIDs": "The list of token ids to check."
        },
        "returns": {
          "ownersData": "The list of (owner, lastTransferBlockNumber) for each ids given as input."
        }
      },
      "ownerAndLastTransferBlockNumberOf(uint256)": {
        "params": {
          "tokenID": "The id of the token."
        },
        "returns": {
          "blockNumber": "The blocknumber at which the last transfer of that id happened.",
          "owner": "The address of the token owner."
        }
      },
      "ownerOf(uint256)": {
        "params": {
          "tokenID": "The id of the token."
        },
        "returns": {
          "owner": "The address of the token owner."
        }
      },
      "safeTransferFrom(address,address,uint256)": {
        "params": {
          "from": "The send of the token.",
          "to": "The recipient of the token.",
          "tokenID": "The id of the token."
        }
      },
      "safeTransferFrom(address,address,uint256,bytes)": {
        "params": {
          "data": "Additional data.",
          "from": "The sender of the token.",
          "to": "The recipient of the token.",
          "tokenID": "The id of the token."
        }
      },
      "setApprovalForAll(address,bool)": {
        "params": {
          "approved": "The determination of the approval.",
          "operator": "The address receiving the approval."
        }
      },
      "supportsInterface(bytes4)": {
        "details": "Interface identification is specified in ERC-165. This function  uses less than 30,000 gas.",
        "params": {
          "interfaceID": "The interface identifier, as specified in ERC-165"
        },
        "returns": {
          "_0": "`true` if the contract implements `interfaceID` and  `interfaceID` is not 0xffffffff, `false` otherwise"
        }
      },
      "tokenByIndex(uint256)": {
        "details": "Throws if `_index` >= `totalSupply()`.",
        "params": {
          "_index": "A counter less than `totalSupply()`"
        },
        "returns": {
          "_0": "The token identifier for the `_index`th NFT,  (sort order not specified)"
        }
      },
      "tokenOfOwnerByIndex(address,uint256)": {
        "details": "Throws if `_index` >= `balanceOf(_owner)` or if  `_owner` is the zero address, representing invalid NFTs.",
        "params": {
          "_index": "A counter less than `balanceOf(_owner)`",
          "_owner": "An address where we are interested in NFTs owned by them"
        },
        "returns": {
          "_0": "The token identifier for the `_index`th NFT assigned to `_owner`,   (sort order not specified)"
        }
      },
      "tokensOfOwner(address,uint256,uint256)": {
        "details": "Note that when calling multiple time, to fetch more than limit  you need to make sure to specify the block to target to ensure  consistency as token order can change",
        "params": {
          "index": "A counter less than `balanceOf(_owner)`",
          "limit": "the max number of token ids to return",
          "owner": "An address where we are interested in NFTs owned by them"
        },
        "returns": {
          "more": "a boolean indicating whether there is more to fetch",
          "tokenIDs": "the list of ids"
        }
      },
      "totalSupply()": {
        "returns": {
          "_0": "A count of valid NFTs tracked by this contract, where each one of  them has an assigned and queryable owner not equal to the zero address"
        }
      },
      "transferFrom(address,address,uint256)": {
        "params": {
          "from": "The sender of the token.",
          "to": "The recipient of the token.",
          "tokenID": "The id of the token."
        }
      }
    },
    "version": 1
  },
  "evm": {
    "gasEstimates": {
      "creation": {
        "codeDepositCost": "1551200",
        "executionCost": "1622",
        "totalCost": "1552822"
      },
      "external": {
        "approve(address,uint256)": "53536",
        "balanceOf(address)": "2616",
        "getApproved(uint256)": "4742",
        "isApprovedForAll(address,address)": "infinite",
        "mint(address,uint256,bytes)": "infinite",
        "ownerAndLastTransferBlockNumberList(uint256[])": "infinite",
        "ownerAndLastTransferBlockNumberOf(uint256)": "2581",
        "ownerOf(uint256)": "2532",
        "safeTransferFrom(address,address,uint256)": "infinite",
        "safeTransferFrom(address,address,uint256,bytes)": "infinite",
        "setApprovalForAll(address,bool)": "26638",
        "supportsInterface(bytes4)": "516",
        "tokenByIndex(uint256)": "6733",
        "tokenOfOwnerByIndex(address,uint256)": "4920",
        "tokensOfOwner(address,uint256,uint256)": "infinite",
        "totalSupply()": "2370",
        "transferFrom(address,address,uint256)": "infinite"
      }
    }
  },
  "storageLayout": {
    "storage": [
      {
        "astId": 40,
        "contract": "project/src/avatars/Avatars.sol:Avatars",
        "label": "_owners",
        "offset": 0,
        "slot": "0",
        "type": "t_mapping(t_uint256,t_uint256)"
      },
      {
        "astId": 44,
        "contract": "project/src/avatars/Avatars.sol:Avatars",
        "label": "_balances",
        "offset": 0,
        "slot": "1",
        "type": "t_mapping(t_address,t_uint256)"
      },
      {
        "astId": 50,
        "contract": "project/src/avatars/Avatars.sol:Avatars",
        "label": "_operatorsForAll",
        "offset": 0,
        "slot": "2",
        "type": "t_mapping(t_address,t_mapping(t_address,t_bool))"
      },
      {
        "astId": 54,
        "contract": "project/src/avatars/Avatars.sol:Avatars",
        "label": "_operators",
        "offset": 0,
        "slot": "3",
        "type": "t_mapping(t_uint256,t_address)"
      },
      {
        "astId": 1103,
        "contract": "project/src/avatars/Avatars.sol:Avatars",
        "label": "_ownedTokens",
        "offset": 0,
        "slot": "4",
        "type": "t_mapping(t_address,t_mapping(t_uint256,t_uint256))"
      },
      {
        "astId": 1107,
        "contract": "project/src/avatars/Avatars.sol:Avatars",
        "label": "_ownedTokensIndex",
        "offset": 0,
        "slot": "5",
        "type": "t_mapping(t_uint256,t_uint256)"
      },
      {
        "astId": 1110,
        "contract": "project/src/avatars/Avatars.sol:Avatars",
        "label": "_allTokens",
        "offset": 0,
        "slot": "6",
        "type": "t_array(t_uint256)dyn_storage"
      },
      {
        "astId": 1114,
        "contract": "project/src/avatars/Avatars.sol:Avatars",
        "label": "_allTokensIndex",
        "offset": 0,
        "slot": "7",
        "type": "t_mapping(t_uint256,t_uint256)"
      }
    ],
    "types": {
      "t_address": {
        "encoding": "inplace",
        "label": "address",
        "numberOfBytes": "20"
      },
      "t_array(t_uint256)dyn_storage": {
        "base": "t_uint256",
        "encoding": "dynamic_array",
        "label": "uint256[]",
        "numberOfBytes": "32"
      },
      "t_bool": {
        "encoding": "inplace",
        "label": "bool",
        "numberOfBytes": "1"
      },
      "t_mapping(t_address,t_bool)": {
        "encoding": "mapping",
        "key": "t_address",
        "label": "mapping(address => bool)",
        "numberOfBytes": "32",
        "value": "t_bool"
      },
      "t_mapping(t_address,t_mapping(t_address,t_bool))": {
        "encoding": "mapping",
        "key": "t_address",
        "label": "mapping(address => mapping(address => bool))",
        "numberOfBytes": "32",
        "value": "t_mapping(t_address,t_bool)"
      },
      "t_mapping(t_address,t_mapping(t_uint256,t_uint256))": {
        "encoding": "mapping",
        "key": "t_address",
        "label": "mapping(address => mapping(uint256 => uint256))",
        "numberOfBytes": "32",
        "value": "t_mapping(t_uint256,t_uint256)"
      },
      "t_mapping(t_address,t_uint256)": {
        "encoding": "mapping",
        "key": "t_address",
        "label": "mapping(address => uint256)",
        "numberOfBytes": "32",
        "value": "t_uint256"
      },
      "t_mapping(t_uint256,t_address)": {
        "encoding": "mapping",
        "key": "t_uint256",
        "label": "mapping(uint256 => address)",
        "numberOfBytes": "32",
        "value": "t_address"
      },
      "t_mapping(t_uint256,t_uint256)": {
        "encoding": "mapping",
        "key": "t_uint256",
        "label": "mapping(uint256 => uint256)",
        "numberOfBytes": "32",
        "value": "t_uint256"
      },
      "t_uint256": {
        "encoding": "inplace",
        "label": "uint256",
        "numberOfBytes": "32"
      }
    }
  },
  "userdoc": {
    "errors": {
      "InvalidAddress(address)": [
        {
          "notice": "An invalid address is specified (for example: zero address)"
        }
      ],
      "NonExistentToken(uint256)": [
        {
          "notice": "The token does not exist"
        }
      ],
      "NonceOverflow()": [
        {
          "notice": "The Nonce overflowed, make a transfer to self to allow new nonces."
        }
      ],
      "NotAuthorized()": [
        {
          "notice": "Not authorized to perform this operation"
        }
      ],
      "NotOwner(address,address)": [
        {
          "notice": "The address from which the token is sent is not the current owner"
        }
      ],
      "TokenAlreadyExists(uint256)": [
        {
          "notice": "The token already exists"
        }
      ],
      "TokenCannotBeReminted(uint256)": [
        {
          "notice": "The token was minted prior and cannot be reminted"
        }
      ],
      "TransferRejected()": [
        {
          "notice": "The Transfer was rejected by the destination"
        }
      ]
    },
    "events": {
      "Approval(address,address,uint256)": {
        "notice": "Triggered when a token is approved to be sent by another account  Note tat the approval get reset when a Transfer event for that same token is emitted."
      },
      "ApprovalForAll(address,address,bool)": {
        "notice": "Triggered when an account approve or disaprove another to transfer on its behalf"
      },
      "Transfer(address,address,uint256)": {
        "notice": "Triggered when a token is transferred"
      }
    },
    "kind": "user",
    "methods": {
      "approve(address,uint256)": {
        "notice": "Approve an operator to transfer a specific token on the senders behalf."
      },
      "balanceOf(address)": {
        "notice": "Get the number of tokens owned by an address."
      },
      "getApproved(uint256)": {
        "notice": "Get the approved operator for a specific token."
      },
      "isApprovedForAll(address,address)": {
        "notice": "Check if the sender approved the operator to transfer any of its tokens."
      },
      "ownerAndLastTransferBlockNumberList(uint256[])": {
        "notice": "Get the list of owner of a token and the blockNumber of its last transfer, useful to voting mechanism."
      },
      "ownerAndLastTransferBlockNumberOf(uint256)": {
        "notice": "Get the owner of a token and the blockNumber of the last transfer, useful to voting mechanism."
      },
      "ownerOf(uint256)": {
        "notice": "Get the owner of a token."
      },
      "safeTransferFrom(address,address,uint256)": {
        "notice": "Transfer a token between 2 addresses letting the receiver know of the transfer."
      },
      "safeTransferFrom(address,address,uint256,bytes)": {
        "notice": "Transfer a token between 2 addresses letting the receiver knows of the transfer."
      },
      "setApprovalForAll(address,bool)": {
        "notice": "Set the approval for an operator to manage all the tokens of the sender."
      },
      "supportsInterface(bytes4)": {
        "notice": "Query if a contract implements an interface"
      },
      "tokenByIndex(uint256)": {
        "notice": "Enumerate valid NFTs"
      },
      "tokenOfOwnerByIndex(address,uint256)": {
        "notice": "Enumerate NFTs assigned to an owner"
      },
      "tokensOfOwner(address,uint256,uint256)": {
        "notice": "returns the list of token ids owned by the account specified"
      },
      "totalSupply()": {
        "notice": "Count NFTs tracked by this contract"
      },
      "transferFrom(address,address,uint256)": {
        "notice": "Transfer a token between 2 addresses."
      }
    },
    "version": 1
  },
  "argsData": "0x",
  "transaction": {
    "hash": "0x4a87ff523f87c8e6c6546ac4e3932ac35417f484732524abf263ef010fa19d59",
    "nonce": "0x0",
    "origin": "0x61c461ecc993aadeb7e4b47e96d1b8cc37314b20"
  }
}