{
  "address": "0xfab76e3798b92e0e0abe02fdeef8ce5e27a9d9b6",
  "abi": [
    {
      "inputs": [],
      "stateMutability": "nonpayable",
      "type": "constructor"
    },
    {
      "inputs": [
        {
          "internalType": "address",
          "name": "owner",
          "type": "address"
        },
        {
          "internalType": "uint256",
          "name": "index",
          "type": "uint256"
        }
      ],
      "name": "ERC721OutOfBoundsIndex",
      "type": "error"
    },
    {
      "inputs": [
        {
          "internalType": "address",
          "name": "addr",
          "type": "address"
        }
      ],
      "name": "InvalidAddress",
      "type": "error"
    },
    {
      "inputs": [
        {
          "internalType": "uint256",
          "name": "tokenID",
          "type": "uint256"
        }
      ],
      "name": "NonExistentToken",
      "type": "error"
    },
    {
      "inputs": [],
      "name": "NonceOverflow",
      "type": "error"
    },
    {
      "inputs": [],
      "name": "NotAuthorized",
      "type": "error"
    },
    {
      "inputs": [
        {
          "internalType": "address",
          "name": "provided",
          "type": "address"
        },
        {
          "internalType": "address",
          "name": "currentOwner",
          "type": "address"
        }
      ],
      "name": "NotOwner",
      "type": "error"
    },
    {
      "inputs": [
        {
          "internalType": "uint256",
          "name": "tokenID",
          "type": "uint256"
        }
      ],
      "name": "TokenAlreadyExists",
      "type": "error"
    },
    {
      "inputs": [
        {
          "internalType": "uint256",
          "name": "tokenID",
          "type": "uint256"
        }
      ],
      "name": "TokenCannotBeReminted",
      "type": "error"
    },
    {
      "inputs": [],
      "name": "TransferRejected",
      "type": "error"
    },
    {
      "anonymous": false,
      "inputs": [
        {
          "indexed": true,
          "internalType": "address",
          "name": "owner",
          "type": "address"
        },
        {
          "indexed": true,
          "internalType": "address",
          "name": "approved",
          "type": "address"
        },
        {
          "indexed": true,
          "internalType": "uint256",
          "name": "tokenID",
          "type": "uint256"
        }
      ],
      "name": "Approval",
      "type": "event"
    },
    {
      "anonymous": false,
      "inputs": [
        {
          "indexed": true,
          "internalType": "address",
          "name": "owner",
          "type": "address"
        },
        {
          "indexed": true,
          "internalType": "address",
          "name": "operator",
          "type": "address"
        },
        {
          "indexed": false,
          "internalType": "bool",
          "name": "approved",
          "type": "bool"
        }
      ],
      "name": "ApprovalForAll",
      "type": "event"
    },
    {
      "anonymous": false,
      "inputs": [
        {
          "indexed": true,
          "internalType": "address",
          "name": "from",
          "type": "address"
        },
        {
          "indexed": true,
          "internalType": "address",
          "name": "to",
          "type": "address"
        },
        {
          "indexed": true,
          "internalType": "uint256",
          "name": "tokenID",
          "type": "uint256"
        }
      ],
      "name": "Transfer",
      "type": "event"
    },
    {
      "inputs": [
        {
          "internalType": "address",
          "name": "operator",
          "type": "address"
        },
        {
          "internalType": "uint256",
          "name": "tokenID",
          "type": "uint256"
        }
      ],
      "name": "approve",
      "outputs": [],
      "stateMutability": "nonpayable",
      "type": "function"
    },
    {
      "inputs": [
        {
          "internalType": "address",
          "name": "owner",
          "type": "address"
        }
      ],
      "name": "balanceOf",
      "outputs": [
        {
          "internalType": "uint256",
          "name": "balance",
          "type": "uint256"
        }
      ],
      "stateMutability": "view",
      "type": "function"
    },
    {
      "inputs": [
        {
          "internalType": "uint256",
          "name": "tokenID",
          "type": "uint256"
        }
      ],
      "name": "getApproved",
      "outputs": [
        {
          "internalType": "address",
          "name": "operator",
          "type": "address"
        }
      ],
      "stateMutability": "view",
      "type": "function"
    },
    {
      "inputs": [
        {
          "internalType": "address",
          "name": "owner",
          "type": "address"
        },
        {
          "internalType": "address",
          "name": "operator",
          "type": "address"
        }
      ],
      "name": "isApprovedForAll",
      "outputs": [
        {
          "internalType": "bool",
          "name": "isOperator",
          "type": "bool"
        }
      ],
      "stateMutability": "view",
      "type": "function"
    },
    {
      "inputs": [
        {
          "internalType": "address",
          "name": "to",
          "type": "address"
        },
        {
          "internalType": "uint256",
          "name": "tokenID",
          "type": "uint256"
        },
        {
          "internalType": "bytes",
          "name": "data",
          "type": "bytes"
        }
      ],
      "name": "mint",
      "outputs": [],
      "stateMutability": "payable",
      "type": "function"
    },
    {
      "inputs": [
        {
          "internalType": "uint256[]",
          "name": "tokenIDs",
          "type": "uint256[]"
        }
      ],
      "name": "ownerAndLastTransferBlockNumberList",
      "outputs": [
        {
          "components": [
            {
              "internalType": "address",
              "name": "owner",
              "type": "address"
            },
            {
              "internalType": "uint256",
              "name": "lastTransferBlockNumber",
              "type": "uint256"
            }
          ],
          "internalType": "struct IERC721WithBlocknumber.OwnerData[]",
          "name": "ownersData",
          "type": "tuple[]"
        }
      ],
      "stateMutability": "view",
      "type": "function"
    },
    {
      "inputs": [
        {
          "internalType": "uint256",
          "name": "tokenID",
          "type": "uint256"
        }
      ],
      "name": "ownerAndLastTransferBlockNumberOf",
      "outputs": [
        {
          "internalType": "address",
          "name": "owner",
          "type": "address"
        },
        {
          "internalType": "uint256",
          "name": "blockNumber",
          "type": "uint256"
        }
      ],
      "stateMutability": "view",
      "type": "function"
    },
    {
      "inputs": [
        {
          "internalType": "uint256",
          "name": "tokenID",
          "type": "uint256"
        }
      ],
      "name": "ownerOf",
      "outputs": [
        {
          "internalType": "address",
          "name": "owner",
          "type": "address"
        }
      ],
      "stateMutability": "view",
      "type": "function"
    },
    {
      "inputs": [
        {
          "internalType": "address",
          "name": "from",
          "type": "address"
        },
        {
          "internalType": "address",
          "name": "to",
          "type": "address"
        },
        {
          "internalType": "uint256",
          "name": "tokenID",
          "type": "uint256"
        }
      ],
      "name": "safeTransferFrom",
      "outputs": [],
      "stateMutability": "nonpayable",
      "type": "function"
    },
    {
      "inputs": [
        {
          "internalType": "address",
          "name": "from",
          "type": "address"
        },
        {
          "internalType": "address",
          "name": "to",
          "type": "address"
        },
        {
          "internalType": "uint256",
          "name": "tokenID",
          "type": "uint256"
        },
        {
          "internalType": "bytes",
          "name": "data",
          "type": "bytes"
        }
      ],
      "name": "safeTransferFrom",
      "outputs": [],
      "stateMutability": "nonpayable",
      "type": "function"
    },
    {
      "inputs": [
        {
          "internalType": "address",
          "name": "operator",
          "type": "address"
        },
        {
          "internalType": "bool",
          "name": "approved",
          "type": "bool"
        }
      ],
      "name": "setApprovalForAll",
      "outputs": [],
      "stateMutability": "nonpayable",
      "type": "function"
    },
    {
      "inputs": [
        {
          "internalType": "bytes4",
          "name": "interfaceId",
          "type": "bytes4"
        }
      ],
      "name": "supportsInterface",
      "outputs": [
        {
          "internalType": "bool",
          "name": "",
          "type": "bool"
        }
      ],
      "stateMutability": "view",
      "type": "function"
    },
    {
      "inputs": [
        {
          "internalType": "uint256",
          "name": "index",
          "type": "uint256"
        }
      ],
      "name": "tokenByIndex",
      "outputs": [
        {
          "internalType": "uint256",
          "name": "",
          "type": "uint256"
        }
      ],
      "stateMutability": "view",
      "type": "function"
    },
    {
      "inputs": [
        {
          "internalType": "address",
          "name": "owner",
          "type": "address"
        },
        {
          "internalType": "uint256",
          "name": "index",
          "type": "uint256"
        }
      ],
      "name": "tokenOfOwnerByIndex",
      "outputs": [
        {
          "internalType": "uint256",
          "name": "",
          "type": "uint256"
        }
      ],
      "stateMutability": "view",
      "type": "function"
    },
    {
      "inputs": [
        {
          "internalType": "address",
          "name": "owner",
          "type": "address"
        },
        {
          "internalType": "uint256",
          "name": "index",
          "type": "uint256"
        },
        {
          "internalType": "uint256",
          "name": "limit",
          "type": "uint256"
        }
      ],
      "name": "tokensOfOwner",
      "outputs": [
        {
          "internalType": "uint256[]",
          "name": "tokenIDs",
          "type": "uint256[]"
        },
        {
          "internalType": "bool",
          "name": "more",
          "type": "bool"
        }
      ],
      "stateMutability": "view",
      "type": "function"
    },
    {
      "inputs": [],
      "name": "totalSupply",
      "outputs": [
        {
          "internalType": "uint256",
          "name": "",
          "type": "uint256"
        }
      ],
      "stateMutability": "view",
      "type": "function"
    },
    {
      "inputs": [
        {
          "internalType": "address",
          "name": "from",
          "type": "address"
        },
        {
          "internalType": "address",
          "name": "to",
          "type": "address"
        },
        {
          "internalType": "uint256",
          "name": "tokenID",
          "type": "uint256"
        }
      ],
      "name": "transferFrom",
      "outputs": [],
      "stateMutability": "nonpayable",
      "type": "function"
    }
  ],
  "contractName": "Avatars",
  "sourceName": "src/avatars/Avatars.sol",
  "bytecode": "0x6080604052348015600f57600080fd5b50611ef68061001f6000396000f3fe60806040526004361061010e5760003560e01c80634f6ccce7116100a5578063a22cb46511610074578063c839fe9411610059578063c839fe941461034a578063e985e9c514610378578063f3945282146103ce57600080fd5b8063a22cb4651461030a578063b88d4fde1461032a57600080fd5b80634f6ccce7146102975780636352211e146102b757806370a08231146102d757806394d008ef146102f757600080fd5b806323b872dd116100e157806323b872dd146101ce5780632f745c59146101ee57806342842e0e1461020e57806348f3c51c1461022e57600080fd5b806301ffc9a714610113578063081812fc14610148578063095ea7b31461018d57806318160ddd146101af575b600080fd5b34801561011f57600080fd5b5061013361012e3660046118b8565b6103fb565b60405190151581526020015b60405180910390f35b34801561015457600080fd5b506101686101633660046118dc565b610457565b60405173ffffffffffffffffffffffffffffffffffffffff909116815260200161013f565b34801561019957600080fd5b506101ad6101a8366004611919565b61051b565b005b3480156101bb57600080fd5b506006545b60405190815260200161013f565b3480156101da57600080fd5b506101ad6101e9366004611943565b61062c565b3480156101fa57600080fd5b506101c0610209366004611919565b6108aa565b34801561021a57600080fd5b506101ad610229366004611943565b610942565b34801561023a57600080fd5b5061026b6102493660046118dc565b6000908152602081905260409020549067ffffffffffffffff60b883901c1690565b6040805173ffffffffffffffffffffffffffffffffffffffff909316835260208301919091520161013f565b3480156102a357600080fd5b506101c06102b23660046118dc565b610962565b3480156102c357600080fd5b506101686102d23660046118dc565b6109d4565b3480156102e357600080fd5b506101c06102f2366004611980565b610a38565b6101ad61030536600461199b565b610ac8565b34801561031657600080fd5b506101ad610325366004611a25565b610b0b565b34801561033657600080fd5b506101ad610345366004611a90565b610b1a565b34801561035657600080fd5b5061036a610365366004611bb1565b610d9a565b60405161013f929190611be4565b34801561038457600080fd5b50610133610393366004611c34565b73ffffffffffffffffffffffffffffffffffffffff918216600090815260026020908152604080832093909416825291909152205460ff1690565b3480156103da57600080fd5b506103ee6103e9366004611c67565b610eb4565b60405161013f9190611cde565b60007fffffffff0000000000000000000000000000000000000000000000000000000082167f780e9d63000000000000000000000000000000000000000000000000000000001480610451575061045182610fe1565b92915050565b6000818152602081905260408120547f80000000000000000000000000000000000000000000000000000000000000008082161473ffffffffffffffffffffffffffffffffffffffff82166104e0576040517f38077a2b000000000000000000000000000000000000000000000000000000008152600481018590526024015b60405180910390fd5b80156105115750505060009081526003602052604090205473ffffffffffffffffffffffffffffffffffffffff1690565b5060009392505050565b6000818152602081905260409020546affffffffffffffffffffff60a082901c1673ffffffffffffffffffffffffffffffffffffffff821661058c576040517f38077a2b000000000000000000000000000000000000000000000000000000008152600481018490526024016104d7565b3373ffffffffffffffffffffffffffffffffffffffff8316148015906105e3575073ffffffffffffffffffffffffffffffffffffffff8216600090815260026020908152604080832033845290915290205460ff16155b1561061a576040517fea8e4eb500000000000000000000000000000000000000000000000000000000815260040160405180910390fd5b610626828286866110c2565b50505050565b6000818152602081905260409020546affffffffffffffffffffff60a082901c167f80000000000000000000000000000000000000000000000000000000000000008083161473ffffffffffffffffffffffffffffffffffffffff83166106c2576040517f38077a2b000000000000000000000000000000000000000000000000000000008152600481018590526024016104d7565b8273ffffffffffffffffffffffffffffffffffffffff168673ffffffffffffffffffffffffffffffffffffffff1614610747576040517f23295f0e00000000000000000000000000000000000000000000000000000000815273ffffffffffffffffffffffffffffffffffffffff8088166004830152841660248201526044016104d7565b73ffffffffffffffffffffffffffffffffffffffff8516158061077f575073ffffffffffffffffffffffffffffffffffffffff851630145b156107ce576040517f8e4c8aa600000000000000000000000000000000000000000000000000000000815273ffffffffffffffffffffffffffffffffffffffff861660048201526024016104d7565b3373ffffffffffffffffffffffffffffffffffffffff8716146108905780801561081b575060008481526003602052604090205473ffffffffffffffffffffffffffffffffffffffff1633145b158015610859575073ffffffffffffffffffffffffffffffffffffffff8616600090815260026020908152604080832033845290915290205460ff16155b15610890576040517fea8e4eb500000000000000000000000000000000000000000000000000000000815260040160405180910390fd5b6108a2868686601886901c151561124b565b505050505050565b60006108b583610a38565b821061090c576040517fa57d13dc00000000000000000000000000000000000000000000000000000000815273ffffffffffffffffffffffffffffffffffffffff84166004820152602481018390526044016104d7565b5073ffffffffffffffffffffffffffffffffffffffff919091166000908152600460209081526040808320938352929052205490565b61095d83838360405180602001604052806000815250610b1a565b505050565b600061096d60065490565b82106109af576040517fa57d13dc00000000000000000000000000000000000000000000000000000000815260006004820152602481018390526044016104d7565b600682815481106109c2576109c2611d43565b90600052602060002001549050919050565b60008181526020819052604090205473ffffffffffffffffffffffffffffffffffffffff8116610a33576040517f38077a2b000000000000000000000000000000000000000000000000000000008152600481018390526024016104d7565b919050565b600073ffffffffffffffffffffffffffffffffffffffff8216610a9f576040517f8e4c8aa600000000000000000000000000000000000000000000000000000000815273ffffffffffffffffffffffffffffffffffffffff831660048201526024016104d7565b5073ffffffffffffffffffffffffffffffffffffffff1660009081526001602052604090205490565b6106268484600085858080601f01602080910402602001604051908101604052809392919081815260200183838082843760009201919091525061136292505050565b610b1633838361142a565b5050565b6000828152602081905260409020546affffffffffffffffffffff60a082901c167f80000000000000000000000000000000000000000000000000000000000000008083161473ffffffffffffffffffffffffffffffffffffffff8316610bb0576040517f38077a2b000000000000000000000000000000000000000000000000000000008152600481018690526024016104d7565b8673ffffffffffffffffffffffffffffffffffffffff168373ffffffffffffffffffffffffffffffffffffffff1614610c35576040517f23295f0e00000000000000000000000000000000000000000000000000000000815273ffffffffffffffffffffffffffffffffffffffff8089166004830152841660248201526044016104d7565b73ffffffffffffffffffffffffffffffffffffffff86161580610c6d575073ffffffffffffffffffffffffffffffffffffffff861630145b15610cbc576040517f8e4c8aa600000000000000000000000000000000000000000000000000000000815273ffffffffffffffffffffffffffffffffffffffff871660048201526024016104d7565b3373ffffffffffffffffffffffffffffffffffffffff881614610d7e57808015610d09575060008581526003602052604090205473ffffffffffffffffffffffffffffffffffffffff1633145b158015610d47575073ffffffffffffffffffffffffffffffffffffffff8716600090815260026020908152604080832033845290915290205460ff16155b15610d7e576040517fea8e4eb500000000000000000000000000000000000000000000000000000000815260040160405180910390fd5b610d91878787601886901c1515886114c2565b50505050505050565b6060600080610da886610a38565b9050808510610dca575050604080516000808252602082019092529150610eac565b6000610dd68683611da1565b90506000818611610de75785610de9565b815b905060008167ffffffffffffffff811115610e0657610e06611a61565b604051908082528060200260200182016040528015610e2f578160200160208202803683370190505b50905060005b82811015610ea15773ffffffffffffffffffffffffffffffffffffffff8a16600090815260046020526040812090610e6d838c611db4565b815260200190815260200160002054828281518110610e8e57610e8e611d43565b6020908102919091010152600101610e35565b509450851415925050505b935093915050565b60608167ffffffffffffffff811115610ecf57610ecf611a61565b604051908082528060200260200182016040528015610f1457816020015b6040805180820190915260008082526020820152815260200190600190039081610eed5790505b50905060005b82811015610fda576000806000868685818110610f3957610f39611d43565b90506020020135815260200190815260200160002054905080838381518110610f6457610f64611d43565b60200260200101516000019073ffffffffffffffffffffffffffffffffffffffff16908173ffffffffffffffffffffffffffffffffffffffff168152505060b881901c67ffffffffffffffff16838381518110610fc357610fc3611d43565b602090810291909101810151015250600101610f1a565b5092915050565b60007f01ffc9a7000000000000000000000000000000000000000000000000000000007fffffffff000000000000000000000000000000000000000000000000000000008316148061107457507f80ac58cd000000000000000000000000000000000000000000000000000000007fffffffff000000000000000000000000000000000000000000000000000000008316145b806104515750507fffffffff00000000000000000000000000000000000000000000000000000000167f5b5e139f000000000000000000000000000000000000000000000000000000001490565b601883901c60006110d4856001611db4565b905081601882901c14611113576040517fadc1557200000000000000000000000000000000000000000000000000000000815260040160405180910390fd5b73ffffffffffffffffffffffffffffffffffffffff841661116057600083815260208190526040902060a082901b73ffffffffffffffffffffffffffffffffffffffff88161790556111e8565b60008381526020818152604080832073ffffffffffffffffffffffffffffffffffffffff8a811660a087901b177f800000000000000000000000000000000000000000000000000000000000000017909155600390925290912080547fffffffffffffffffffffffff0000000000000000000000000000000000000000169186169190911790555b828473ffffffffffffffffffffffffffffffffffffffff168773ffffffffffffffffffffffffffffffffffffffff167f8c5be1e5ebec7d5bd14f71427d1e84f3dd0314c0f7b2291e5b200ac8c7c3b92560405160405180910390a4505050505050565b61125784848484611535565b73ffffffffffffffffffffffffffffffffffffffff84166112bf576112ba82600680546000838152600760205260408120829055600182018355919091527ff652222313e28459528d920b65115c16c04f3efc82aaedc97be59f3f377c0d3f0155565b6112fc565b8273ffffffffffffffffffffffffffffffffffffffff168473ffffffffffffffffffffffffffffffffffffffff16146112fc576112fc8483611618565b73ffffffffffffffffffffffffffffffffffffffff831661132557611320826116a6565b610626565b8273ffffffffffffffffffffffffffffffffffffffff168473ffffffffffffffffffffffffffffffffffffffff1614610626576106268383611755565b6000838152602081905260409020546affffffffffffffffffffff60a082901c1673ffffffffffffffffffffffffffffffffffffffff8216156113d4576040517f6025413b000000000000000000000000000000000000000000000000000000008152600481018690526024016104d7565b831580156113e157508015155b1561141b576040517f14cfb979000000000000000000000000000000000000000000000000000000008152600481018690526024016104d7565b6108a2600087876000876114c2565b73ffffffffffffffffffffffffffffffffffffffff83811660008181526002602090815260408083209487168084529482529182902080547fffffffffffffffffffffffffffffffffffffffffffffffffffffffffffffff001686151590811790915591519182527f17307eab39ab6107e8899845ad3d59bd9653f200f220920489ca2b5937696c31910160405180910390a3505050565b6114ce8585858561124b565b73ffffffffffffffffffffffffffffffffffffffff84163b1561152e576114f833868686856117b2565b61152e576040517f4e472e5e00000000000000000000000000000000000000000000000000000000815260040160405180910390fd5b5050505050565b73ffffffffffffffffffffffffffffffffffffffff831660009081526001602081905260409091208054909101905580156115b65773ffffffffffffffffffffffffffffffffffffffff8416600090815260016020526040902080547fffffffffffffffffffffffffffffffffffffffffffffffffffffffffffffffff0190555b6000828152602081905260408082204360b81b73ffffffffffffffffffffffffffffffffffffffff80881691821790925591518593918816917fddf252ad1be2c89b69c2b068fc378daa952ba7f163c4a11628f55a4df523b3ef91a450505050565b600061162383610a38565b60008381526005602090815260408083205473ffffffffffffffffffffffffffffffffffffffff8816845260049092529091209192509081831461168757600083815260208281526040808320548584528184208190558352600590915290208290555b6000938452600560209081526040808620869055938552525081205550565b6006546000906116b890600190611da1565b600083815260076020526040812054600680549394509092849081106116e0576116e0611d43565b90600052602060002001549050806006838154811061170157611701611d43565b600091825260208083209091019290925582815260079091526040808220849055858252812055600680548061173957611739611dc7565b6001900381819060005260206000200160009055905550505050565b6000600161176284610a38565b61176c9190611da1565b73ffffffffffffffffffffffffffffffffffffffff9093166000908152600460209081526040808320868452825280832085905593825260059052919091209190915550565b6000808473ffffffffffffffffffffffffffffffffffffffff1663150b7a02888887876040518563ffffffff1660e01b81526004016117f49493929190611df6565b6020604051808303816000875af1158015611813573d6000803e3d6000fd5b505050506040513d601f19601f820116820180604052508101906118379190611ea3565b7fffffffff00000000000000000000000000000000000000000000000000000000167f150b7a02000000000000000000000000000000000000000000000000000000001491505095945050505050565b7fffffffff00000000000000000000000000000000000000000000000000000000811681146118b557600080fd5b50565b6000602082840312156118ca57600080fd5b81356118d581611887565b9392505050565b6000602082840312156118ee57600080fd5b5035919050565b803573ffffffffffffffffffffffffffffffffffffffff81168114610a3357600080fd5b6000806040838503121561192c57600080fd5b611935836118f5565b946020939093013593505050565b60008060006060848603121561195857600080fd5b611961846118f5565b925061196f602085016118f5565b929592945050506040919091013590565b60006020828403121561199257600080fd5b6118d5826118f5565b600080600080606085870312156119b157600080fd5b6119ba856118f5565b935060208501359250604085013567ffffffffffffffff8111156119dd57600080fd5b8501601f810187136119ee57600080fd5b803567ffffffffffffffff811115611a0557600080fd5b876020828401011115611a1757600080fd5b949793965060200194505050565b60008060408385031215611a3857600080fd5b611a41836118f5565b915060208301358015158114611a5657600080fd5b809150509250929050565b7f4e487b7100000000000000000000000000000000000000000000000000000000600052604160045260246000fd5b60008060008060808587031215611aa657600080fd5b611aaf856118f5565b9350611abd602086016118f5565b925060408501359150606085013567ffffffffffffffff811115611ae057600080fd5b8501601f81018713611af157600080fd5b803567ffffffffffffffff811115611b0b57611b0b611a61565b6040517fffffffffffffffffffffffffffffffffffffffffffffffffffffffffffffffe0603f7fffffffffffffffffffffffffffffffffffffffffffffffffffffffffffffffe0601f8501160116810181811067ffffffffffffffff82111715611b7757611b77611a61565b604052818152828201602001891015611b8f57600080fd5b8160208401602083013760006020838301015280935050505092959194509250565b600080600060608486031215611bc657600080fd5b611bcf846118f5565b95602085013595506040909401359392505050565b6040808252835190820181905260009060208501906060840190835b81811015611c1e578351835260209384019390920191600101611c00565b5050809250505082151560208301529392505050565b60008060408385031215611c4757600080fd5b611c50836118f5565b9150611c5e602084016118f5565b90509250929050565b60008060208385031215611c7a57600080fd5b823567ffffffffffffffff811115611c9157600080fd5b8301601f81018513611ca257600080fd5b803567ffffffffffffffff811115611cb957600080fd5b8560208260051b8401011115611cce57600080fd5b6020919091019590945092505050565b602080825282518282018190526000918401906040840190835b81811015611d38578351805173ffffffffffffffffffffffffffffffffffffffff1684526020908101518185015290930192604090920191600101611cf8565b509095945050505050565b7f4e487b7100000000000000000000000000000000000000000000000000000000600052603260045260246000fd5b7f4e487b7100000000000000000000000000000000000000000000000000000000600052601160045260246000fd5b8181038181111561045157610451611d72565b8082018082111561045157610451611d72565b7f4e487b7100000000000000000000000000000000000000000000000000000000600052603160045260246000fd5b73ffffffffffffffffffffffffffffffffffffffff8516815273ffffffffffffffffffffffffffffffffffffffff84166020820152826040820152608060608201526000825180608084015260005b81811015611e6257602081860181015160a0868401015201611e45565b50600060a0828501015260a07fffffffffffffffffffffffffffffffffffffffffffffffffffffffffffffffe0601f83011684010191505095945050505050565b600060208284031215611eb557600080fd5b81516118d58161188756fea2646970667358221220b08e5e1c02da56cb77cc1f33adcafa84dbaa842e94ad813d2db08753e678e52c64736f6c634300081c0033",
  "linkReferences": {},
  "deployedLinkReferences": {},
  "immutableReferences": {},
  "inputSourceName": "project/src/avatars/Avatars.sol",
  "devdoc": {
    "errors": {
      "InvalidAddress(address)": [
        {
          "params": {
            "addr": "invalid address"
          }
        }
      ],
      "NonExistentToken(uint256)": [
        {
          "params": {
            "tokenID": "id of the expected token"
          }
        }
      ],
      "NotOwner(address,address)": [
        {
          "params": {
            "currentOwner": "the current owner",
            "provided": "the address expected to be the current owner"
          }
        }
      ],
      "TokenAlreadyExists(uint256)": [
        {
          "params": {
            "tokenID": "id of the expected token"
          }
        }
      ],
      "TokenCannotBeReminted(uint256)": [
        {
          "params": {
            "tokenID": "id of the expected token"
          }
        }
      ]
    },
    "events": {
      "Approval(address,address,uint256)": {
        "params": {
          "approved": "account who can know transfer on the owner's behalf",
          "owner": "current owner of the token",
          "tokenID": "id of the token being approved"
        }
      },
      "ApprovalForAll(address,address,bool)": {
        "params": {
          "approved": "whether it is approved or not",
          "operator": "account who can know transfer on the owner's behalf",
          "owner": "the account granting rights over all of its token"
        }
      },
      "Transfer(address,address,uint256)": {
        "params": {
          "from": "the account the token is sent from",
          "to": "the account the token is sent to",
          "tokenID": "id of the token being sent"
        }
      }
    },
    "kind": "dev",
    "methods": {
      "approve(address,uint256)": {
        "params": {
          "operator": "The address receiving the approval.",
          "tokenID": "The id of the token."
        }
      },
      "balanceOf(address)": {
        "params": {
          "owner": "The address to look for."
        },
        "returns": {
          "balance": "The number of tokens owned by the address."
        }
      },
      "getApproved(uint256)": {
        "params": {
          "tokenID": "The id of the token."
        },
        "returns": {
          "operator": "The address of the operator."
        }
      },
      "isApprovedForAll(address,address)": {
        "params": {
          "operator": "The address of the operator.",
          "owner": "The address of the owner."
        },
        "returns": {
          "isOperator": "The status of the approval."
        }
      },
      "ownerAndLastTransferBlockNumberList(uint256[])": {
        "params": {
          "tokenIDs": "The list of token ids to check."
        },
        "returns": {
          "ownersData": "The list of (owner, lastTransferBlockNumber) for each ids given as input."
        }
      },
      "ownerAndLastTransferBlockNumberOf(uint256)": {
        "params": {
          "tokenID": "The id of the token."
        },
        "returns": {
          "blockNumber": "The blocknumber at which the last transfer of that id happened.",
          "owner": "The address of the token owner."
        }
      },
      "ownerOf(uint256)": {
        "params": {
          "tokenID": "The id of the token."
        },
        "returns": {
          "owner": "The address of the token owner."
        }
      },
      "safeTransferFrom(address,address,uint256)": {
        "params": {
          "from": "The send of the token.",
          "to": "The recipient of the token.",
          "tokenID": "The id of the token."
        }
      },
      "safeTransferFrom(address,address,uint256,bytes)": {
        "params": {
          "data": "Additional data.",
          "from": "The sender of the token.",
          "to": "The recipient of the token.",
          "tokenID": "The id of the token."
        }
      },
      "setApprovalForAll(address,bool)": {
        "params": {
          "approved": "The determination of the approval.",
          "operator": "The address receiving the approval."
        }
      },
      "supportsInterface(bytes4)": {
        "details": "Interface identification is specified in ERC-165. This function  uses less than 30,000 gas.",
        "params": {
          "interfaceID": "The interface identifier, as specified in ERC-165"
        },
        "returns": {
          "_0": "`true` if the contract implements `interfaceID` and  `interfaceID` is not 0xffffffff, `false` otherwise"
        }
      },
      "tokenByIndex(uint256)": {
        "details": "Throws if `_index` >= `totalSupply()`.",
        "params": {
          "_index": "A counter less than `totalSupply()`"
        },
        "returns": {
          "_0": "The token identifier for the `_index`th NFT,  (sort order not specified)"
        }
      },
      "tokenOfOwnerByIndex(address,uint256)": {
        "details": "Throws if `_index` >= `balanceOf(_owner)` or if  `_owner` is the zero address, representing invalid NFTs.",
        "params": {
          "_index": "A counter less than `balanceOf(_owner)`",
          "_owner": "An address where we are interested in NFTs owned by them"
        },
        "returns": {
          "_0": "The token identifier for the `_index`th NFT assigned to `_owner`,   (sort order not specified)"
        }
      },
      "tokensOfOwner(address,uint256,uint256)": {
        "details": "Note that when calling multiple time, to fetch more than limit  you need to make sure to specify the block to target to ensure  consistency as token order can change",
        "params": {
          "index": "A counter less than `balanceOf(_owner)`",
          "limit": "the max number of token ids to return",
          "owner": "An address where we are interested in NFTs owned by them"
        },
        "returns": {
          "more": "a boolean indicating whether there is more to fetch",
          "tokenIDs": "the list of ids"
        }
      },
      "totalSupply()": {
        "returns": {
          "_0": "A count of valid NFTs tracked by this contract, where each one of  them has an assigned and queryable owner not equal to the zero address"
        }
      },
      "transferFrom(address,address,uint256)": {
        "params": {
          "from": "The sender of the token.",
          "to": "The recipient of the token.",
          "tokenID": "The id of the token."
        }
      }
    },
    "version": 1
  },
  "evm": {
    "gasEstimates": {
      "creation": {
        "codeDepositCost": "1585200",
        "executionCost": "1659",
        "totalCost": "1586859"
      },
      "external": {
        "approve(address,uint256)": "53543",
        "balanceOf(address)": "2620",
        "getApproved(uint256)": "4746",
        "isApprovedForAll(address,address)": "infinite",
        "mint(address,uint256,bytes)": "infinite",
        "ownerAndLastTransferBlockNumberList(uint256[])": "infinite",
        "ownerAndLastTransferBlockNumberOf(uint256)": "2584",
        "ownerOf(uint256)": "2535",
        "safeTransferFrom(address,address,uint256)": "infinite",
        "safeTransferFrom(address,address,uint256,bytes)": "infinite",
        "setApprovalForAll(address,bool)": "26642",
        "supportsInterface(bytes4)": "520",
        "tokenByIndex(uint256)": "6738",
        "tokenOfOwnerByIndex(address,uint256)": "4927",
        "tokensOfOwner(address,uint256,uint256)": "infinite",
        "totalSupply()": "2371",
        "transferFrom(address,address,uint256)": "infinite"
      }
    }
  },
  "storageLayout": {
    "storage": [
      {
        "astId": 40,
        "contract": "project/src/avatars/Avatars.sol:Avatars",
        "label": "_owners",
        "offset": 0,
        "slot": "0",
        "type": "t_mapping(t_uint256,t_uint256)"
      },
      {
        "astId": 44,
        "contract": "project/src/avatars/Avatars.sol:Avatars",
        "label": "_balances",
        "offset": 0,
        "slot": "1",
        "type": "t_mapping(t_address,t_uint256)"
      },
      {
        "astId": 50,
        "contract": "project/src/avatars/Avatars.sol:Avatars",
        "label": "_operatorsForAll",
        "offset": 0,
        "slot": "2",
        "type": "t_mapping(t_address,t_mapping(t_address,t_bool))"
      },
      {
        "astId": 54,
        "contract": "project/src/avatars/Avatars.sol:Avatars",
        "label": "_operators",
        "offset": 0,
        "slot": "3",
        "type": "t_mapping(t_uint256,t_address)"
      },
      {
        "astId": 1103,
        "contract": "project/src/avatars/Avatars.sol:Avatars",
        "label": "_ownedTokens",
        "offset": 0,
        "slot": "4",
        "type": "t_mapping(t_address,t_mapping(t_uint256,t_uint256))"
      },
      {
        "astId": 1107,
        "contract": "project/src/avatars/Avatars.sol:Avatars",
        "label": "_ownedTokensIndex",
        "offset": 0,
        "slot": "5",
        "type": "t_mapping(t_uint256,t_uint256)"
      },
      {
        "astId": 1110,
        "contract": "project/src/avatars/Avatars.sol:Avatars",
        "label": "_allTokens",
        "offset": 0,
        "slot": "6",
        "type": "t_array(t_uint256)dyn_storage"
      },
      {
        "astId": 1114,
        "contract": "project/src/avatars/Avatars.sol:Avatars",
        "label": "_allTokensIndex",
        "offset": 0,
        "slot": "7",
        "type": "t_mapping(t_uint256,t_uint256)"
      }
    ],
    "types": {
      "t_address": {
        "encoding": "inplace",
        "label": "address",
        "numberOfBytes": "20"
      },
      "t_array(t_uint256)dyn_storage": {
        "base": "t_uint256",
        "encoding": "dynamic_array",
        "label": "uint256[]",
        "numberOfBytes": "32"
      },
      "t_bool": {
        "encoding": "inplace",
        "label": "bool",
        "numberOfBytes": "1"
      },
      "t_mapping(t_address,t_bool)": {
        "encoding": "mapping",
        "key": "t_address",
        "label": "mapping(address => bool)",
        "numberOfBytes": "32",
        "value": "t_bool"
      },
      "t_mapping(t_address,t_mapping(t_address,t_bool))": {
        "encoding": "mapping",
        "key": "t_address",
        "label": "mapping(address => mapping(address => bool))",
        "numberOfBytes": "32",
        "value": "t_mapping(t_address,t_bool)"
      },
      "t_mapping(t_address,t_mapping(t_uint256,t_uint256))": {
        "encoding": "mapping",
        "key": "t_address",
        "label": "mapping(address => mapping(uint256 => uint256))",
        "numberOfBytes": "32",
        "value": "t_mapping(t_uint256,t_uint256)"
      },
      "t_mapping(t_address,t_uint256)": {
        "encoding": "mapping",
        "key": "t_address",
        "label": "mapping(address => uint256)",
        "numberOfBytes": "32",
        "value": "t_uint256"
      },
      "t_mapping(t_uint256,t_address)": {
        "encoding": "mapping",
        "key": "t_uint256",
        "label": "mapping(uint256 => address)",
        "numberOfBytes": "32",
        "value": "t_address"
      },
      "t_mapping(t_uint256,t_uint256)": {
        "encoding": "mapping",
        "key": "t_uint256",
        "label": "mapping(uint256 => uint256)",
        "numberOfBytes": "32",
        "value": "t_uint256"
      },
      "t_uint256": {
        "encoding": "inplace",
        "label": "uint256",
        "numberOfBytes": "32"
      }
    }
  },
  "userdoc": {
    "errors": {
      "InvalidAddress(address)": [
        {
          "notice": "An invalid address is specified (for example: zero address)"
        }
      ],
      "NonExistentToken(uint256)": [
        {
          "notice": "The token does not exist"
        }
      ],
      "NonceOverflow()": [
        {
          "notice": "The Nonce overflowed, make a transfer to self to allow new nonces."
        }
      ],
      "NotAuthorized()": [
        {
          "notice": "Not authorized to perform this operation"
        }
      ],
      "NotOwner(address,address)": [
        {
          "notice": "The address from which the token is sent is not the current owner"
        }
      ],
      "TokenAlreadyExists(uint256)": [
        {
          "notice": "The token already exists"
        }
      ],
      "TokenCannotBeReminted(uint256)": [
        {
          "notice": "The token was minted prior and cannot be reminted"
        }
      ],
      "TransferRejected()": [
        {
          "notice": "The Transfer was rejected by the destination"
        }
      ]
    },
    "events": {
      "Approval(address,address,uint256)": {
        "notice": "Triggered when a token is approved to be sent by another account  Note tat the approval get reset when a Transfer event for that same token is emitted."
      },
      "ApprovalForAll(address,address,bool)": {
        "notice": "Triggered when an account approve or disaprove another to transfer on its behalf"
      },
      "Transfer(address,address,uint256)": {
        "notice": "Triggered when a token is transferred"
      }
    },
    "kind": "user",
    "methods": {
      "approve(address,uint256)": {
        "notice": "Approve an operator to transfer a specific token on the senders behalf."
      },
      "balanceOf(address)": {
        "notice": "Get the number of tokens owned by an address."
      },
      "getApproved(uint256)": {
        "notice": "Get the approved operator for a specific token."
      },
      "isApprovedForAll(address,address)": {
        "notice": "Check if the sender approved the operator to transfer any of its tokens."
      },
      "ownerAndLastTransferBlockNumberList(uint256[])": {
        "notice": "Get the list of owner of a token and the blockNumber of its last transfer, useful to voting mechanism."
      },
      "ownerAndLastTransferBlockNumberOf(uint256)": {
        "notice": "Get the owner of a token and the blockNumber of the last transfer, useful to voting mechanism."
      },
      "ownerOf(uint256)": {
        "notice": "Get the owner of a token."
      },
      "safeTransferFrom(address,address,uint256)": {
        "notice": "Transfer a token between 2 addresses letting the receiver know of the transfer."
      },
      "safeTransferFrom(address,address,uint256,bytes)": {
        "notice": "Transfer a token between 2 addresses letting the receiver knows of the transfer."
      },
      "setApprovalForAll(address,bool)": {
        "notice": "Set the approval for an operator to manage all the tokens of the sender."
      },
      "supportsInterface(bytes4)": {
        "notice": "Query if a contract implements an interface"
      },
      "tokenByIndex(uint256)": {
        "notice": "Enumerate valid NFTs"
      },
      "tokenOfOwnerByIndex(address,uint256)": {
        "notice": "Enumerate NFTs assigned to an owner"
      },
      "tokensOfOwner(address,uint256,uint256)": {
        "notice": "returns the list of token ids owned by the account specified"
      },
      "totalSupply()": {
        "notice": "Count NFTs tracked by this contract"
      },
      "transferFrom(address,address,uint256)": {
        "notice": "Transfer a token between 2 addresses."
      }
    },
    "version": 1
  },
  "argsData": "0x",
  "transaction": {
    "hash": "0x95a54579a9f197932a61057efe97b2daab42e4bff7b7aa9128100bf2ac8325f2",
    "nonce": "0x2e",
    "origin": "0x61c461ecc993aadeb7e4b47e96d1b8cc37314b20"
  }
}