{
  "address": "0x54aabd8d1b862f5360e20c239487e9ad93905270",
  "abi": [
    {
      "inputs": [
        {
          "components": [
            {
              "internalType": "uint256",
              "name": "startTime",
              "type": "uint256"
            },
            {
              "internalType": "uint256",
              "name": "commitPhaseDuration",
              "type": "uint256"
            },
            {
              "internalType": "uint256",
              "name": "revealPhaseDuration",
              "type": "uint256"
            },
            {
              "internalType": "contract ITime",
              "name": "time",
              "type": "address"
            },
            {
              "internalType": "contract IERC721",
              "name": "avatars",
              "type": "address"
            },
            {
              "internalType": "uint256",
              "name": "numMoves",
              "type": "uint256"
            }
          ],
          "internalType": "struct UsingGameTypes.Config",
          "name": "config",
          "type": "tuple"
        }
      ],
      "stateMutability": "nonpayable",
      "type": "constructor"
    },
    {
      "inputs": [
        {
          "internalType": "uint256",
          "name": "avatarID",
          "type": "uint256"
        }
      ],
      "name": "AvatarAlreadyInGame",
      "type": "error"
    },
    {
      "inputs": [
        {
          "internalType": "uint256",
          "name": "avatarID",
          "type": "uint256"
        }
      ],
      "name": "AvatarIsDead",
      "type": "error"
    },
    {
      "inputs": [
        {
          "internalType": "uint256",
          "name": "avatarID",
          "type": "uint256"
        }
      ],
      "name": "AvatarNotAvailable",
      "type": "error"
    },
    {
      "inputs": [
        {
          "internalType": "uint256",
          "name": "avatarID",
          "type": "uint256"
        }
      ],
      "name": "AvatarNotInGame",
      "type": "error"
    },
    {
      "inputs": [
        {
          "internalType": "uint256",
          "name": "avatarID",
          "type": "uint256"
        }
      ],
      "name": "AvatarNotReady",
      "type": "error"
    },
    {
      "inputs": [
        {
          "internalType": "uint256",
          "name": "avatarID",
          "type": "uint256"
        }
      ],
      "name": "AvatarStillInGame",
      "type": "error"
    },
    {
      "inputs": [],
      "name": "CanStillReveal",
      "type": "error"
    },
    {
      "inputs": [],
      "name": "CommitmentHashNotMatching",
      "type": "error"
    },
    {
      "inputs": [],
      "name": "GameNotStarted",
      "type": "error"
    },
    {
      "inputs": [],
      "name": "ImpossibleConfiguration",
      "type": "error"
    },
    {
      "inputs": [],
      "name": "InCommitmentPhase",
      "type": "error"
    },
    {
      "inputs": [],
      "name": "InRevealPhase",
      "type": "error"
    },
    {
      "inputs": [],
      "name": "InvalidData",
      "type": "error"
    },
    {
      "inputs": [],
      "name": "InvalidEpoch",
      "type": "error"
    },
    {
      "inputs": [],
      "name": "NoCommitmentToCancel",
      "type": "error"
    },
    {
      "inputs": [
        {
          "internalType": "address",
          "name": "account",
          "type": "address"
        }
      ],
      "name": "NotAuthorizedController",
      "type": "error"
    },
    {
      "inputs": [
        {
          "internalType": "address",
          "name": "account",
          "type": "address"
        }
      ],
      "name": "NotAuthorizedOwner",
      "type": "error"
    },
    {
      "inputs": [],
      "name": "NothingToReveal",
      "type": "error"
    },
    {
      "inputs": [],
      "name": "OnlyAvatarsAreAccepted",
      "type": "error"
    },
    {
      "inputs": [],
      "name": "PreviousCommitmentNotRevealed",
      "type": "error"
    },
    {
      "inputs": [
        {
          "internalType": "uint64",
          "name": "position",
          "type": "uint64"
        }
      ],
      "name": "UnableToExitFromThisPosition",
      "type": "error"
    },
    {
      "anonymous": false,
      "inputs": [
        {
          "indexed": true,
          "internalType": "uint256",
          "name": "avatarID",
          "type": "uint256"
        },
        {
          "indexed": true,
          "internalType": "address",
          "name": "owner",
          "type": "address"
        },
        {
          "indexed": false,
          "internalType": "address",
          "name": "controller",
          "type": "address"
        }
      ],
      "name": "AvatarDeposited",
      "type": "event"
    },
    {
      "anonymous": false,
      "inputs": [
        {
          "indexed": true,
          "internalType": "uint256",
          "name": "avatarID",
          "type": "uint256"
        }
      ],
      "name": "AvatarWithdrawn",
      "type": "event"
    },
    {
      "anonymous": false,
      "inputs": [
        {
          "indexed": true,
          "internalType": "uint256",
          "name": "avatarID",
          "type": "uint256"
        },
        {
          "indexed": true,
          "internalType": "uint64",
          "name": "epoch",
          "type": "uint64"
        }
      ],
      "name": "CommitmentCancelled",
      "type": "event"
    },
    {
      "anonymous": false,
      "inputs": [
        {
          "indexed": true,
          "internalType": "uint256",
          "name": "avatarID",
          "type": "uint256"
        },
        {
          "indexed": true,
          "internalType": "uint64",
          "name": "epoch",
          "type": "uint64"
        },
        {
          "indexed": false,
          "internalType": "bytes24",
          "name": "commitmentHash",
          "type": "bytes24"
        }
      ],
      "name": "CommitmentMade",
      "type": "event"
    },
    {
      "anonymous": false,
      "inputs": [
        {
          "indexed": true,
          "internalType": "uint256",
          "name": "avatarID",
          "type": "uint256"
        },
        {
          "indexed": true,
          "internalType": "uint64",
          "name": "epoch",
          "type": "uint64"
        },
        {
          "indexed": true,
          "internalType": "uint64",
          "name": "zone",
          "type": "uint64"
        },
        {
          "indexed": false,
          "internalType": "bytes24",
          "name": "commitmentHash",
          "type": "bytes24"
        },
        {
          "components": [
            {
              "internalType": "enum UsingGameTypes.ActionType",
              "name": "actionType",
              "type": "uint8"
            },
            {
              "internalType": "uint128",
              "name": "data",
              "type": "uint128"
            }
          ],
          "indexed": false,
          "internalType": "struct UsingGameTypes.Action[]",
          "name": "actions",
          "type": "tuple[]"
        }
      ],
      "name": "CommitmentRevealed",
      "type": "event"
    },
    {
      "anonymous": false,
      "inputs": [
        {
          "indexed": true,
          "internalType": "uint256",
          "name": "avatarID",
          "type": "uint256"
        },
        {
          "indexed": true,
          "internalType": "uint64",
          "name": "epoch",
          "type": "uint64"
        }
      ],
      "name": "CommitmentVoid",
      "type": "event"
    },
    {
      "anonymous": false,
      "inputs": [
        {
          "indexed": true,
          "internalType": "uint256",
          "name": "avatarID",
          "type": "uint256"
        },
        {
          "indexed": true,
          "internalType": "uint64",
          "name": "epoch",
          "type": "uint64"
        },
        {
          "indexed": true,
          "internalType": "uint64",
          "name": "zone",
          "type": "uint64"
        },
        {
          "indexed": false,
          "internalType": "uint64",
          "name": "newPosition",
          "type": "uint64"
        }
      ],
      "name": "EnteredTheGame",
      "type": "event"
    },
    {
      "anonymous": false,
      "inputs": [
        {
          "indexed": true,
          "internalType": "uint256",
          "name": "avatarID",
          "type": "uint256"
        },
        {
          "indexed": true,
          "internalType": "uint64",
          "name": "epoch",
          "type": "uint64"
        },
        {
          "indexed": true,
          "internalType": "uint64",
          "name": "zoneWhenLeaving",
          "type": "uint64"
        },
        {
          "indexed": false,
          "internalType": "uint64",
          "name": "positionWhenLeaving",
          "type": "uint64"
        }
      ],
      "name": "LeftTheGame",
      "type": "event"
    },
    {
      "anonymous": false,
      "inputs": [
        {
          "indexed": true,
          "internalType": "uint256",
          "name": "avatarID",
          "type": "uint256"
        },
        {
          "indexed": false,
          "internalType": "uint64",
          "name": "epoch",
          "type": "uint64"
        },
        {
          "indexed": false,
          "internalType": "bytes24",
          "name": "commitmentHash",
          "type": "bytes24"
        }
      ],
      "name": "PreviousCommitmentNotRevealedEvent",
      "type": "event"
    },
    {
      "inputs": [
        {
          "internalType": "uint256",
          "name": "avatarID",
          "type": "uint256"
        }
      ],
      "name": "getAvatar",
      "outputs": [
        {
          "components": [
            {
              "internalType": "address",
              "name": "owner",
              "type": "address"
            },
            {
              "internalType": "uint256",
              "name": "avatarID",
              "type": "uint256"
            },
            {
              "internalType": "bool",
              "name": "inGame",
              "type": "bool"
            },
            {
              "internalType": "uint64",
              "name": "position",
              "type": "uint64"
            },
            {
              "internalType": "uint64",
              "name": "lastEpoch",
              "type": "uint64"
            },
            {
              "internalType": "uint8",
              "name": "life",
              "type": "uint8"
            }
          ],
          "internalType": "struct UsingGameTypes.PublicAvatar",
          "name": "",
          "type": "tuple"
        }
      ],
      "stateMutability": "view",
      "type": "function"
    },
    {
      "inputs": [
        {
          "internalType": "uint64[]",
          "name": "zones",
          "type": "uint64[]"
        },
        {
          "internalType": "uint64",
          "name": "fromIndex",
          "type": "uint64"
        },
        {
          "internalType": "uint64",
          "name": "limit",
          "type": "uint64"
        }
      ],
      "name": "getAvatarsInMultipleZones",
      "outputs": [
        {
          "components": [
            {
              "internalType": "address",
              "name": "owner",
              "type": "address"
            },
            {
              "internalType": "uint256",
              "name": "avatarID",
              "type": "uint256"
            },
            {
              "internalType": "bool",
              "name": "inGame",
              "type": "bool"
            },
            {
              "internalType": "uint64",
              "name": "position",
              "type": "uint64"
            },
            {
              "internalType": "uint64",
              "name": "lastEpoch",
              "type": "uint64"
            },
            {
              "internalType": "uint8",
              "name": "life",
              "type": "uint8"
            }
          ],
          "internalType": "struct UsingGameTypes.PublicAvatar[]",
          "name": "avatars",
          "type": "tuple[]"
        },
        {
          "internalType": "bool",
          "name": "more",
          "type": "bool"
        },
        {
          "internalType": "uint64",
          "name": "epoch",
          "type": "uint64"
        }
      ],
      "stateMutability": "view",
      "type": "function"
    },
    {
      "inputs": [
        {
          "internalType": "uint64",
          "name": "zone",
          "type": "uint64"
        },
        {
          "internalType": "uint64",
          "name": "fromIndex",
          "type": "uint64"
        },
        {
          "internalType": "uint64",
          "name": "limit",
          "type": "uint64"
        }
      ],
      "name": "getAvatarsInZone",
      "outputs": [
        {
          "components": [
            {
              "internalType": "address",
              "name": "owner",
              "type": "address"
            },
            {
              "internalType": "uint256",
              "name": "avatarID",
              "type": "uint256"
            },
            {
              "internalType": "bool",
              "name": "inGame",
              "type": "bool"
            },
            {
              "internalType": "uint64",
              "name": "position",
              "type": "uint64"
            },
            {
              "internalType": "uint64",
              "name": "lastEpoch",
              "type": "uint64"
            },
            {
              "internalType": "uint8",
              "name": "life",
              "type": "uint8"
            }
          ],
          "internalType": "struct UsingGameTypes.PublicAvatar[]",
          "name": "avatars",
          "type": "tuple[]"
        },
        {
          "internalType": "bool",
          "name": "more",
          "type": "bool"
        },
        {
          "internalType": "uint64",
          "name": "epoch",
          "type": "uint64"
        }
      ],
      "stateMutability": "view",
      "type": "function"
    },
    {
      "inputs": [
        {
          "internalType": "uint256",
          "name": "avatarID",
          "type": "uint256"
        }
      ],
      "name": "getCommitment",
      "outputs": [
        {
          "components": [
            {
              "internalType": "bytes24",
              "name": "hash",
              "type": "bytes24"
            },
            {
              "internalType": "uint64",
              "name": "epoch",
              "type": "uint64"
            }
          ],
          "internalType": "struct UsingGameTypes.Commitment",
          "name": "commitment",
          "type": "tuple"
        }
      ],
      "stateMutability": "view",
      "type": "function"
    },
    {
      "inputs": [],
      "name": "getConfig",
      "outputs": [
        {
          "components": [
            {
              "internalType": "uint256",
              "name": "startTime",
              "type": "uint256"
            },
            {
              "internalType": "uint256",
              "name": "commitPhaseDuration",
              "type": "uint256"
            },
            {
              "internalType": "uint256",
              "name": "revealPhaseDuration",
              "type": "uint256"
            },
            {
              "internalType": "contract ITime",
              "name": "time",
              "type": "address"
            },
            {
              "internalType": "contract IERC721",
              "name": "avatars",
              "type": "address"
            },
            {
              "internalType": "uint256",
              "name": "numMoves",
              "type": "uint256"
            }
          ],
          "internalType": "struct UsingGameTypes.Config",
          "name": "config",
          "type": "tuple"
        }
      ],
      "stateMutability": "view",
      "type": "function"
    },
    {
      "inputs": [],
      "name": "getEpoch",
      "outputs": [
        {
          "internalType": "uint64",
          "name": "epoch",
          "type": "uint64"
        },
        {
          "internalType": "bool",
          "name": "commiting",
          "type": "bool"
        }
      ],
      "stateMutability": "view",
      "type": "function"
    }
  ],
  "contractName": "GameGetters",
  "sourceName": "src/game/routes/GameGetters.sol",
  "bytecode": "0x61014060405234801561001157600080fd5b506040516116503803806116508339810160408190526100309161008d565b60608101516001600160a01b03908116608090815260a0808401516101205283519052602083015160c052604083015160e052909101511661010052610124565b80516001600160a01b038116811461008857600080fd5b919050565b600060c08284031280156100a057600080fd5b5060405160009060c081016001600160401b03811182821017156100d257634e487b7160e01b83526041600452602483fd5b6040908152845182526020808601519083015284810151908201526100f960608501610071565b606082015261010a60808501610071565b608082015260a09384015193810193909352509092915050565b60805160a05160c05160e05161010051610120516114ac6101a46000396000610437015260006103fb0152600081816103990152610488015260008181610373015281816104a9015261057c01526000818161034d015281816104dd015261053c0152600081816103bf01528181610a0a0152610a4a01526114ac6000f3fe608060405234801561001057600080fd5b50600436106100725760003560e01c8063c3176e7c11610050578063c3176e7c146101a6578063c3f909d4146101c8578063df7d391f1461024857600080fd5b80631328ec9b1461007757806369bcdb7d146100a0578063757991a81461017e575b600080fd5b61008a610085366004611076565b61025b565b604051610097919061108f565b60405180910390f35b6101376100ae366004611076565b6040805180820190915260008082526020820152506000908152600460209081526040918290208251808401845290547fffffffffffffffffffffffffffffffffffffffffffffffff00000000000000009381901b939093168152780100000000000000000000000000000000000000000000000090920467ffffffffffffffff169082015290565b6040805182517fffffffffffffffffffffffffffffffffffffffffffffffff000000000000000016815260209283015167ffffffffffffffff169281019290925201610097565b6101866102a9565b6040805167ffffffffffffffff9093168352901515602083015201610097565b6101b96101b436600461111e565b6102bc565b60405161009793929190611161565b6101d06102db565b6040516100979190600060c08201905082518252602083015160208301526040830151604083015273ffffffffffffffffffffffffffffffffffffffff606084015116606083015273ffffffffffffffffffffffffffffffffffffffff608084015116608083015260a083015160a083015292915050565b6101b961025636600461122e565b61045e565b6040805160c081018252600080825260208201819052918101829052606081018290526080810182905260a081018290529061029561047f565b5090506102a283826105cf565b9392505050565b6000806102b461047f565b915091509091565b60606000806102cc8686866106a5565b92509250925093509350939050565b6103406040518060c00160405280600081526020016000815260200160008152602001600073ffffffffffffffffffffffffffffffffffffffff168152602001600073ffffffffffffffffffffffffffffffffffffffff168152602001600081525090565b6040518060c001604052807f000000000000000000000000000000000000000000000000000000000000000081526020017f000000000000000000000000000000000000000000000000000000000000000081526020017f000000000000000000000000000000000000000000000000000000000000000081526020017f000000000000000000000000000000000000000000000000000000000000000073ffffffffffffffffffffffffffffffffffffffff1681526020017f000000000000000000000000000000000000000000000000000000000000000073ffffffffffffffffffffffffffffffffffffffff1681526020017f0000000000000000000000000000000000000000000000000000000000000000815250905090565b606060008061046f8787878761084f565b9250925092509450945094915050565b600080806104cd7f00000000000000000000000000000000000000000000000000000000000000007f00000000000000000000000000000000000000000000000000000000000000006112f4565b905060006104d9610a06565b90507f0000000000000000000000000000000000000000000000000000000000000000811015610535576040517f3a5f7b5700000000000000000000000000000000000000000000000000000000815260040160405180910390fd5b60006105617f000000000000000000000000000000000000000000000000000000000000000083611307565b905061056d838261131a565b6105789060026112f4565b94507f0000000000000000000000000000000000000000000000000000000000000000836105a7600288611355565b67ffffffffffffffff166105bb9190611375565b6105c59083611307565b1093505050509091565b6040805160c081018252600080825260208201819052918101829052606081018290526080810182905260a081018290529061060b8484610adc565b6000858152602081815260409182902082518084018452815473ffffffffffffffffffffffffffffffffffffffff9081168252600190920154821681840152835160c08101855290519091168152808201889052908301511515818301529082015167ffffffffffffffff908116606080840191909152830151166080808301919091529091015160ff1660a08201529150505b92915050565b60606000806106b261047f565b5067ffffffffffffffff808816600090815260056020526040902054919250861681111561084557806106e5868861138c565b67ffffffffffffffff1611156107145761070967ffffffffffffffff871682611307565b945060009250610719565b600192505b8467ffffffffffffffff1667ffffffffffffffff81111561073c5761073c6113ac565b6040519080825280602002602001820160405280156107ba57816020015b6040805160c08101825260008082526020808301829052928201819052606082018190526080820181905260a082015282527fffffffffffffffffffffffffffffffffffffffffffffffffffffffffffffffff90920191018161075a5790505b50935060005b8567ffffffffffffffff168110156108435767ffffffffffffffff808916600090815260056020526040902061081e916107fd9084908b166112f4565b8154811061080d5761080d6113db565b9060005260206000200154846105cf565b858281518110610830576108306113db565b60209081029190910101526001016107c0565b505b5093509350939050565b606060008061085c61047f565b509050600061086c888888610c7f565b805190915067ffffffffffffffff8716101561097d57805161088e868861138c565b67ffffffffffffffff1611156108c05780516108b59067ffffffffffffffff881690611307565b9450600092506108c5565b600192505b8467ffffffffffffffff1667ffffffffffffffff8111156108e8576108e86113ac565b60405190808252806020026020018201604052801561096657816020015b6040805160c08101825260008082526020808301829052928201819052606082018190526080820181905260a082015282527fffffffffffffffffffffffffffffffffffffffffffffffffffffffffffffffff9092019101816109065790505b50935061097888888888858988610e43565b6109fb565b60408051600080825260208201909252906109f3565b6040805160c08101825260008082526020808301829052928201819052606082018190526080820181905260a082015282527fffffffffffffffffffffffffffffffffffffffffffffffffffffffffffffffff9092019101816109935790505b509350600092505b509450945094915050565b60007f000000000000000000000000000000000000000000000000000000000000000073ffffffffffffffffffffffffffffffffffffffff16610a4857504290565b7f000000000000000000000000000000000000000000000000000000000000000073ffffffffffffffffffffffffffffffffffffffff1663b80777ea6040518163ffffffff1660e01b8152600401602060405180830381865afa158015610ab3573d6000803e3d6000fd5b505050506040513d601f19601f82011682018060405250810190610ad7919061140a565b905090565b6040805160a081018252600080825260208201819052918101829052606081018290526080810191909152600083815260016020818152604092839020835160c081018552815460ff808216151580845267ffffffffffffffff6101008404811696850196909652690100000000000000000083048616978401979097527101000000000000000000000000000000000090910484166060830152919093015491821660808401819052680100000000000000009092041660a083018190529192909190610bac57506001610c2c565b60ff811615610c2c57600080610bd3856020015163ffffffff8082169260209290921c1690565b9092509050600380610be686600161138c565b610bf0919061138c565b67ffffffffffffffff168867ffffffffffffffff161115610c28576000935080610c1b86600161138c565b610c25919061138c565b94505b5050505b6040518060a00160405280878152602001846000015115158152602001846020015167ffffffffffffffff1681526020018367ffffffffffffffff1681526020018260ff16815250935050505092915050565b610cb46040518060800160405280600081526020016060815260200160008152602001600067ffffffffffffffff1681525090565b8267ffffffffffffffff811115610ccd57610ccd6113ac565b604051908082528060200260200182016040528015610cf6578160200160208202803683370190505b5060208201526000805b84811015610e3957600060056000888885818110610d2057610d206113db565b9050602002016020810190610d359190611423565b67ffffffffffffffff1681526020810191909152604001600020549050610d5c81846112f4565b92508284602001518381518110610d7557610d756113db565b67ffffffffffffffff9283166020918202929092010152851683118015610ddf5750811580610ddf57506020840151610daf600184611307565b81518110610dbf57610dbf6113db565b602002602001015167ffffffffffffffff168567ffffffffffffffff1610155b15610e30576040840182905281610df7576000610e20565b6020840151610e07600184611307565b81518110610e1757610e176113db565b60200260200101515b67ffffffffffffffff1660608501525b50600101610d00565b5081529392505050565b6040830151606084015160009187915b8767ffffffffffffffff168467ffffffffffffffff16108015610e7557508982105b15611069576000610e868285611355565b90506000600560008e8e87818110610ea057610ea06113db565b9050602002016020810190610eb59190611423565b67ffffffffffffffff16815260208101919091526040016000908120549150610ede878c611355565b905067ffffffffffffffff8216610ef5828561138c565b67ffffffffffffffff161115610f1257610f0f8383611355565b90505b60005b8167ffffffffffffffff168167ffffffffffffffff161015610fec5760008f8f88818110610f4557610f456113db565b9050602002016020810190610f5a9190611423565b67ffffffffffffffff8116600090815260056020526040812091925090610f81848861138c565b67ffffffffffffffff1681548110610f9b57610f9b6113db565b90600052602060002001549050610fb2818c6105cf565b8c610fbd858d61138c565b67ffffffffffffffff1681518110610fd757610fd76113db565b60209081029190910101525050600101610f15565b50610ff7818861138c565b9650611003818761138c565b95508a67ffffffffffffffff168767ffffffffffffffff161015611061578461102b8161143e565b9550508c8510156110615760208a0151611046600187611307565b81518110611056576110566113db565b602002602001015193505b505050610e53565b5050505050505050505050565b60006020828403121561108857600080fd5b5035919050565b60c0810161069f828473ffffffffffffffffffffffffffffffffffffffff81511682526020810151602083015260408101511515604083015267ffffffffffffffff606082015116606083015267ffffffffffffffff608082015116608083015260ff60a08201511660a08301525050565b803567ffffffffffffffff8116811461111957600080fd5b919050565b60008060006060848603121561113357600080fd5b61113c84611101565b925061114a60208501611101565b915061115860408501611101565b90509250925092565b6060808252845190820181905260009060208601906080840190835b8181101561120a576111f483855173ffffffffffffffffffffffffffffffffffffffff81511682526020810151602083015260408101511515604083015267ffffffffffffffff606082015116606083015267ffffffffffffffff608082015116608083015260ff60a08201511660a08301525050565b6020939093019260c0929092019160010161117d565b50509415156020840152505067ffffffffffffffff91909116604090910152919050565b6000806000806060858703121561124457600080fd5b843567ffffffffffffffff81111561125b57600080fd5b8501601f8101871361126c57600080fd5b803567ffffffffffffffff81111561128357600080fd5b8760208260051b840101111561129857600080fd5b6020918201955093506112ac908601611101565b91506112ba60408601611101565b905092959194509250565b7f4e487b7100000000000000000000000000000000000000000000000000000000600052601160045260246000fd5b8082018082111561069f5761069f6112c5565b8181038181111561069f5761069f6112c5565b600082611350577f4e487b7100000000000000000000000000000000000000000000000000000000600052601260045260246000fd5b500490565b67ffffffffffffffff828116828216039081111561069f5761069f6112c5565b808202811582820484141761069f5761069f6112c5565b67ffffffffffffffff818116838216019081111561069f5761069f6112c5565b7f4e487b7100000000000000000000000000000000000000000000000000000000600052604160045260246000fd5b7f4e487b7100000000000000000000000000000000000000000000000000000000600052603260045260246000fd5b60006020828403121561141c57600080fd5b5051919050565b60006020828403121561143557600080fd5b6102a282611101565b60007fffffffffffffffffffffffffffffffffffffffffffffffffffffffffffffffff820361146f5761146f6112c5565b506001019056fea2646970667358221220fe1da8f85f9bf6cdccaa54280ba8f41b7ad038ea34272f79e93ce3cd69749a5764736f6c634300081c0033",
  "linkReferences": {},
  "deployedLinkReferences": {},
  "immutableReferences": {
    "15979": [
      {
        "length": 32,
        "start": 845
      },
      {
        "length": 32,
        "start": 1245
      },
      {
        "length": 32,
        "start": 1340
      }
    ],
    "15982": [
      {
        "length": 32,
        "start": 883
      },
      {
        "length": 32,
        "start": 1193
      },
      {
        "length": 32,
        "start": 1404
      }
    ],
    "15985": [
      {
        "length": 32,
        "start": 921
      },
      {
        "length": 32,
        "start": 1160
      }
    ],
    "15989": [
      {
        "length": 32,
        "start": 1019
      }
    ],
    "15992": [
      {
        "length": 32,
        "start": 1079
      }
    ],
    "16069": [
      {
        "length": 32,
        "start": 959
      },
      {
        "length": 32,
        "start": 2570
      },
      {
        "length": 32,
        "start": 2634
      }
    ]
  },
  "inputSourceName": "project/src/game/routes/GameGetters.sol",
  "devdoc": {
    "errors": {
      "AvatarIsDead(uint256)": [
        {
          "params": {
            "avatarID": "the id of the dead avatar"
          }
        }
      ]
    },
    "events": {
      "AvatarDeposited(uint256,address,address)": {
        "params": {
          "avatarID": "the id of the NFT being deposited",
          "controller": "the account authorized to control the avatar in-game",
          "owner": "the account authorized to get the avatar back"
        }
      },
      "AvatarWithdrawn(uint256)": {
        "params": {
          "avatarID": "the id of the NFT being transfered out"
        }
      },
      "CommitmentCancelled(uint256,uint64)": {
        "params": {
          "avatarID": "avatar whose commitment is cancelled",
          "epoch": "epoch number on which this commit belongs to"
        }
      },
      "CommitmentMade(uint256,uint64,bytes24)": {
        "params": {
          "avatarID": "avatar whose commitment is made",
          "commitmentHash": "the hash of moves",
          "epoch": "epoch number on which this commit belongs to"
        }
      },
      "CommitmentRevealed(uint256,uint64,uint64,bytes24,(uint8,uint128)[])": {
        "params": {
          "actions": "the actions",
          "avatarID": "avatar id whose action is commited",
          "commitmentHash": "the hash of the moves",
          "epoch": "epoch number on which this commit belongs to"
        }
      },
      "CommitmentVoid(uint256,uint64)": {
        "params": {
          "avatarID": "the account that made the commitment",
          "epoch": "epoch number on which this commit belongs to"
        }
      },
      "EnteredTheGame(uint256,uint64,uint64,uint64)": {
        "params": {
          "avatarID": "the id of the NFT being added",
          "epoch": "the epoch at which it happened",
          "newPosition": "the resulting avatar's position",
          "zone": "the resulting avatar's zone"
        }
      },
      "LeftTheGame(uint256,uint64,uint64,uint64)": {
        "params": {
          "avatarID": "the id of the NFT being removed",
          "epoch": "the epoch at which it happened",
          "positionWhenLeaving": "the avatar's position when leaving",
          "zoneWhenLeaving": "the avatar's zone when leaving"
        }
      }
    },
    "kind": "dev",
    "methods": {},
    "version": 1
  },
  "evm": {
    "gasEstimates": {
      "creation": {
        "codeDepositCost": "1058400",
        "executionCost": "infinite",
        "totalCost": "infinite"
      },
      "external": {
        "getAvatar(uint256)": "infinite",
        "getAvatarsInMultipleZones(uint64[],uint64,uint64)": "infinite",
        "getAvatarsInZone(uint64,uint64,uint64)": "infinite",
        "getCommitment(uint256)": "2681",
        "getConfig()": "infinite",
        "getEpoch()": "infinite"
      }
    }
  },
  "storageLayout": {
    "storage": [
      {
        "astId": 16001,
        "contract": "project/src/game/routes/GameGetters.sol:GameGetters",
        "label": "_players",
        "offset": 0,
        "slot": "0",
        "type": "t_mapping(t_uint256,t_struct(Player)13680_storage)"
      },
      {
        "astId": 16006,
        "contract": "project/src/game/routes/GameGetters.sol:GameGetters",
        "label": "_avatars",
        "offset": 0,
        "slot": "1",
        "type": "t_mapping(t_uint256,t_struct(Avatar)13693_storage)"
      },
      {
        "astId": 16011,
        "contract": "project/src/game/routes/GameGetters.sol:GameGetters",
        "label": "_ownedAvatars",
        "offset": 0,
        "slot": "2",
        "type": "t_mapping(t_address,t_array(t_uint256)dyn_storage)"
      },
      {
        "astId": 16015,
        "contract": "project/src/game/routes/GameGetters.sol:GameGetters",
        "label": "_ownedAvatarsIndex",
        "offset": 0,
        "slot": "3",
        "type": "t_mapping(t_uint256,t_uint256)"
      },
      {
        "astId": 16020,
        "contract": "project/src/game/routes/GameGetters.sol:GameGetters",
        "label": "_commitments",
        "offset": 0,
        "slot": "4",
        "type": "t_mapping(t_uint256,t_struct(Commitment)13702_storage)"
      },
      {
        "astId": 16025,
        "contract": "project/src/game/routes/GameGetters.sol:GameGetters",
        "label": "_zones",
        "offset": 0,
        "slot": "5",
        "type": "t_mapping(t_uint64,t_struct(Zone)13697_storage)"
      }
    ],
    "types": {
      "t_address": {
        "encoding": "inplace",
        "label": "address",
        "numberOfBytes": "20"
      },
      "t_array(t_uint256)dyn_storage": {
        "base": "t_uint256",
        "encoding": "dynamic_array",
        "label": "uint256[]",
        "numberOfBytes": "32"
      },
      "t_bool": {
        "encoding": "inplace",
        "label": "bool",
        "numberOfBytes": "1"
      },
      "t_bytes24": {
        "encoding": "inplace",
        "label": "bytes24",
        "numberOfBytes": "24"
      },
      "t_mapping(t_address,t_array(t_uint256)dyn_storage)": {
        "encoding": "mapping",
        "key": "t_address",
        "label": "mapping(address => uint256[])",
        "numberOfBytes": "32",
        "value": "t_array(t_uint256)dyn_storage"
      },
      "t_mapping(t_uint256,t_struct(Avatar)13693_storage)": {
        "encoding": "mapping",
        "key": "t_uint256",
        "label": "mapping(uint256 => struct UsingGameTypes.Avatar)",
        "numberOfBytes": "32",
        "value": "t_struct(Avatar)13693_storage"
      },
      "t_mapping(t_uint256,t_struct(Commitment)13702_storage)": {
        "encoding": "mapping",
        "key": "t_uint256",
        "label": "mapping(uint256 => struct UsingGameTypes.Commitment)",
        "numberOfBytes": "32",
        "value": "t_struct(Commitment)13702_storage"
      },
      "t_mapping(t_uint256,t_struct(Player)13680_storage)": {
        "encoding": "mapping",
        "key": "t_uint256",
        "label": "mapping(uint256 => struct UsingGameTypes.Player)",
        "numberOfBytes": "32",
        "value": "t_struct(Player)13680_storage"
      },
      "t_mapping(t_uint256,t_uint256)": {
        "encoding": "mapping",
        "key": "t_uint256",
        "label": "mapping(uint256 => uint256)",
        "numberOfBytes": "32",
        "value": "t_uint256"
      },
      "t_mapping(t_uint64,t_struct(Zone)13697_storage)": {
        "encoding": "mapping",
        "key": "t_uint64",
        "label": "mapping(uint64 => struct UsingGameTypes.Zone)",
        "numberOfBytes": "32",
        "value": "t_struct(Zone)13697_storage"
      },
      "t_struct(Avatar)13693_storage": {
        "encoding": "inplace",
        "label": "struct UsingGameTypes.Avatar",
        "members": [
          {
            "astId": 13682,
            "contract": "project/src/game/routes/GameGetters.sol:GameGetters",
            "label": "inGame",
            "offset": 0,
            "slot": "0",
            "type": "t_bool"
          },
          {
            "astId": 13684,
            "contract": "project/src/game/routes/GameGetters.sol:GameGetters",
            "label": "position",
            "offset": 1,
            "slot": "0",
            "type": "t_uint64"
          },
          {
            "astId": 13686,
            "contract": "project/src/game/routes/GameGetters.sol:GameGetters",
            "label": "zoneIndex",
            "offset": 9,
            "slot": "0",
            "type": "t_uint64"
          },
          {
            "astId": 13688,
            "contract": "project/src/game/routes/GameGetters.sol:GameGetters",
            "label": "startEpoch",
            "offset": 17,
            "slot": "0",
            "type": "t_uint64"
          },
          {
            "astId": 13690,
            "contract": "project/src/game/routes/GameGetters.sol:GameGetters",
            "label": "lastEpoch",
            "offset": 0,
            "slot": "1",
            "type": "t_uint64"
          },
          {
            "astId": 13692,
            "contract": "project/src/game/routes/GameGetters.sol:GameGetters",
            "label": "life",
            "offset": 8,
            "slot": "1",
            "type": "t_uint8"
          }
        ],
        "numberOfBytes": "64"
      },
      "t_struct(Commitment)13702_storage": {
        "encoding": "inplace",
        "label": "struct UsingGameTypes.Commitment",
        "members": [
          {
            "astId": 13699,
            "contract": "project/src/game/routes/GameGetters.sol:GameGetters",
            "label": "hash",
            "offset": 0,
            "slot": "0",
            "type": "t_bytes24"
          },
          {
            "astId": 13701,
            "contract": "project/src/game/routes/GameGetters.sol:GameGetters",
            "label": "epoch",
            "offset": 24,
            "slot": "0",
            "type": "t_uint64"
          }
        ],
        "numberOfBytes": "32"
      },
      "t_struct(Player)13680_storage": {
        "encoding": "inplace",
        "label": "struct UsingGameTypes.Player",
        "members": [
          {
            "astId": 13677,
            "contract": "project/src/game/routes/GameGetters.sol:GameGetters",
            "label": "owner",
            "offset": 0,
            "slot": "0",
            "type": "t_address"
          },
          {
            "astId": 13679,
            "contract": "project/src/game/routes/GameGetters.sol:GameGetters",
            "label": "controller",
            "offset": 0,
            "slot": "1",
            "type": "t_address"
          }
        ],
        "numberOfBytes": "64"
      },
      "t_struct(Zone)13697_storage": {
        "encoding": "inplace",
        "label": "struct UsingGameTypes.Zone",
        "members": [
          {
            "astId": 13696,
            "contract": "project/src/game/routes/GameGetters.sol:GameGetters",
            "label": "avatars",
            "offset": 0,
            "slot": "0",
            "type": "t_array(t_uint256)dyn_storage"
          }
        ],
        "numberOfBytes": "32"
      },
      "t_uint256": {
        "encoding": "inplace",
        "label": "uint256",
        "numberOfBytes": "32"
      },
      "t_uint64": {
        "encoding": "inplace",
        "label": "uint64",
        "numberOfBytes": "8"
      },
      "t_uint8": {
        "encoding": "inplace",
        "label": "uint8",
        "numberOfBytes": "1"
      }
    }
  },
  "userdoc": {
    "errors": {
      "AvatarAlreadyInGame(uint256)": [
        {
          "notice": "happen when attempting to enter an avatar already in the game"
        }
      ],
      "AvatarIsDead(uint256)": [
        {
          "notice": "happen when attempting to move a dead avatar  The avatar is dead, no action possible"
        }
      ],
      "AvatarNotAvailable(uint256)": [
        {
          "notice": "happen when attempting to move an avatar not in the game"
        }
      ],
      "AvatarNotInGame(uint256)": [
        {
          "notice": "happen when attempting to move an avatar not in the game"
        }
      ],
      "AvatarNotReady(uint256)": [
        {
          "notice": "happen when attempting to move an avatar that just entered the game. \\  It needs to wait the next epoch"
        }
      ],
      "AvatarStillInGame(uint256)": [
        {
          "notice": "happen when attempting to extract an avatar still in the game"
        }
      ],
      "CanStillReveal()": [
        {
          "notice": "Player have to reveal if they can prevent player from acknowledging missed reveal if there is still time to reveal."
        }
      ],
      "CommitmentHashNotMatching()": [
        {
          "notice": "Player have to reveal their commitment using the exact same move values  If they provide different value, the commitment hash will differ and Game will reject their reveal."
        }
      ],
      "GameNotStarted()": [
        {
          "notice": "Game has not started yet, can't perform any action"
        }
      ],
      "ImpossibleConfiguration()": [
        {
          "notice": "The cell configuration is invalid  This can happen win debug mode where admin can setup cell bypassing moves rules  For example when setting up neighborood configuration that would require a cell to have negative life"
        }
      ],
      "InCommitmentPhase()": [
        {
          "notice": "When in Commit phase, player can make new commitment but they cannot reveal their move yet."
        }
      ],
      "InRevealPhase()": [
        {
          "notice": "When in Reveal phase, it is not possible to commit new moves or cancel previous commitment  During Reveal phase, players have to reveal their commitment, if not already done."
        }
      ],
      "InvalidData()": [
        {
          "notice": "happen when transfering an avatar with invalid data"
        }
      ],
      "InvalidEpoch()": [
        {
          "notice": "Player can only reveal their move in the same epoch they commited.abi  If a player reveal later it can only do to minimize the reserve burn cost by calling : `acknowledgeMissedReveal`"
        }
      ],
      "NoCommitmentToCancel()": [
        {
          "notice": "There is no commitment registered, cannot cancel."
        }
      ],
      "NotAuthorizedController(address)": [
        {
          "notice": "happen when an unauthorized account attempt to control an avatar"
        }
      ],
      "NotAuthorizedOwner(address)": [
        {
          "notice": "happen when an unauthorized account attempt to withdraw an avatar"
        }
      ],
      "NothingToReveal()": [
        {
          "notice": "Player can only reveal moves they commited."
        }
      ],
      "OnlyAvatarsAreAccepted()": [
        {
          "notice": "happen when attempting to send a non-avatar ERC721 to the game"
        }
      ],
      "PreviousCommitmentNotRevealed()": [
        {
          "notice": "Previous commitment need to be revealed before making a new one. Even if the corresponding reveal phase has passed.\\  It is also not possible to withdraw any amount from reserve until the commitment is revealed.\\If player lost the information to reveal, it can acknowledge failure which will burn all its reserve.\\"
        }
      ],
      "UnableToExitFromThisPosition(uint64)": [
        {
          "notice": "happen when attempting to leave the game from a non-exit position"
        }
      ]
    },
    "events": {
      "AvatarDeposited(uint256,address,address)": {
        "notice": "An avatar has been deposited, ready to enter"
      },
      "AvatarWithdrawn(uint256)": {
        "notice": "A avatar has been withdrawn"
      },
      "CommitmentCancelled(uint256,uint64)": {
        "notice": "A player has cancelled its current commitment (before it reached the reveal phase)"
      },
      "CommitmentMade(uint256,uint64,bytes24)": {
        "notice": "A player has commited to make a move and reveal it on the reveal phase"
      },
      "CommitmentRevealed(uint256,uint64,uint64,bytes24,(uint8,uint128)[])": {
        "notice": "Player has revealed its previous commitment"
      },
      "CommitmentVoid(uint256,uint64)": {
        "notice": "A player has acknowledged its failure to reveal its previous commitment"
      },
      "EnteredTheGame(uint256,uint64,uint64,uint64)": {
        "notice": "A avatar has entered the game"
      },
      "LeftTheGame(uint256,uint64,uint64,uint64)": {
        "notice": "An avatar has left the game"
      }
    },
    "kind": "user",
    "methods": {},
    "version": 1
  },
  "argsData": "0x0000000000000000000000000000000000000000000000000000000000000000000000000000000000000000000000000000000000000000000000000000002800000000000000000000000000000000000000000000000000000000000000040000000000000000000000000000000000000000000000000000000000000000000000000000000000000000fab76e3798b92e0e0abe02fdeef8ce5e27a9d9b6000000000000000000000000000000000000000000000000000000000000000a",
  "transaction": {
    "hash": "0x82219bbfc33f5526f11b3ea8df2fd940ae66db355035d68f2733a19e11377a0d",
    "nonce": "0x2f",
    "origin": "0x61c461ecc993aadeb7e4b47e96d1b8cc37314b20"
  }
}