{
  "address": "0x53d6d227e2cd9a9276049e8dd1a5ccd753fcc255",
  "abi": [
    {
      "inputs": [
        {
          "components": [
            {
              "internalType": "uint256",
              "name": "startTime",
              "type": "uint256"
            },
            {
              "internalType": "uint256",
              "name": "commitPhaseDuration",
              "type": "uint256"
            },
            {
              "internalType": "uint256",
              "name": "revealPhaseDuration",
              "type": "uint256"
            },
            {
              "internalType": "contract ITime",
              "name": "time",
              "type": "address"
            },
            {
              "internalType": "contract IERC721",
              "name": "avatars",
              "type": "address"
            },
            {
              "internalType": "uint256",
              "name": "numActions",
              "type": "uint256"
            }
          ],
          "internalType": "struct UsingGameTypes.Config",
          "name": "config",
          "type": "tuple"
        }
      ],
      "stateMutability": "nonpayable",
      "type": "constructor"
    },
    {
      "inputs": [
        {
          "internalType": "uint256",
          "name": "avatarID",
          "type": "uint256"
        }
      ],
      "name": "AvatarAlreadyInGame",
      "type": "error"
    },
    {
      "inputs": [
        {
          "internalType": "uint256",
          "name": "avatarID",
          "type": "uint256"
        }
      ],
      "name": "AvatarIsDead",
      "type": "error"
    },
    {
      "inputs": [
        {
          "internalType": "uint256",
          "name": "avatarID",
          "type": "uint256"
        }
      ],
      "name": "AvatarNotAvailable",
      "type": "error"
    },
    {
      "inputs": [
        {
          "internalType": "uint256",
          "name": "avatarID",
          "type": "uint256"
        }
      ],
      "name": "AvatarNotInGame",
      "type": "error"
    },
    {
      "inputs": [
        {
          "internalType": "uint256",
          "name": "avatarID",
          "type": "uint256"
        }
      ],
      "name": "AvatarNotReady",
      "type": "error"
    },
    {
      "inputs": [
        {
          "internalType": "uint256",
          "name": "avatarID",
          "type": "uint256"
        }
      ],
      "name": "AvatarStillInGame",
      "type": "error"
    },
    {
      "inputs": [],
      "name": "CanStillReveal",
      "type": "error"
    },
    {
      "inputs": [],
      "name": "CommitmentHashNotMatching",
      "type": "error"
    },
    {
      "inputs": [],
      "name": "GameNotStarted",
      "type": "error"
    },
    {
      "inputs": [],
      "name": "ImpossibleConfiguration",
      "type": "error"
    },
    {
      "inputs": [],
      "name": "InCommitmentPhase",
      "type": "error"
    },
    {
      "inputs": [],
      "name": "InRevealPhase",
      "type": "error"
    },
    {
      "inputs": [],
      "name": "InvalidData",
      "type": "error"
    },
    {
      "inputs": [],
      "name": "InvalidEpoch",
      "type": "error"
    },
    {
      "inputs": [],
      "name": "NoCommitmentToCancel",
      "type": "error"
    },
    {
      "inputs": [
        {
          "internalType": "address",
          "name": "account",
          "type": "address"
        }
      ],
      "name": "NotAuthorizedController",
      "type": "error"
    },
    {
      "inputs": [
        {
          "internalType": "address",
          "name": "account",
          "type": "address"
        }
      ],
      "name": "NotAuthorizedOwner",
      "type": "error"
    },
    {
      "inputs": [],
      "name": "NothingToReveal",
      "type": "error"
    },
    {
      "inputs": [],
      "name": "OnlyAvatarsAreAccepted",
      "type": "error"
    },
    {
      "inputs": [],
      "name": "PreviousCommitmentNotRevealed",
      "type": "error"
    },
    {
      "inputs": [
        {
          "internalType": "uint64",
          "name": "position",
          "type": "uint64"
        }
      ],
      "name": "UnableToExitFromThisPosition",
      "type": "error"
    },
    {
      "anonymous": false,
      "inputs": [
        {
          "indexed": true,
          "internalType": "uint256",
          "name": "avatarID",
          "type": "uint256"
        },
        {
          "indexed": true,
          "internalType": "address",
          "name": "owner",
          "type": "address"
        },
        {
          "indexed": false,
          "internalType": "address",
          "name": "controller",
          "type": "address"
        }
      ],
      "name": "AvatarDeposited",
      "type": "event"
    },
    {
      "anonymous": false,
      "inputs": [
        {
          "indexed": true,
          "internalType": "uint256",
          "name": "avatarID",
          "type": "uint256"
        }
      ],
      "name": "AvatarWithdrawn",
      "type": "event"
    },
    {
      "anonymous": false,
      "inputs": [
        {
          "indexed": true,
          "internalType": "uint256",
          "name": "avatarID",
          "type": "uint256"
        },
        {
          "indexed": true,
          "internalType": "uint64",
          "name": "epoch",
          "type": "uint64"
        }
      ],
      "name": "CommitmentCancelled",
      "type": "event"
    },
    {
      "anonymous": false,
      "inputs": [
        {
          "indexed": true,
          "internalType": "uint256",
          "name": "avatarID",
          "type": "uint256"
        },
        {
          "indexed": true,
          "internalType": "uint64",
          "name": "epoch",
          "type": "uint64"
        },
        {
          "indexed": false,
          "internalType": "bytes24",
          "name": "commitmentHash",
          "type": "bytes24"
        }
      ],
      "name": "CommitmentMade",
      "type": "event"
    },
    {
      "anonymous": false,
      "inputs": [
        {
          "indexed": true,
          "internalType": "uint256",
          "name": "avatarID",
          "type": "uint256"
        },
        {
          "indexed": true,
          "internalType": "uint64",
          "name": "epoch",
          "type": "uint64"
        },
        {
          "indexed": true,
          "internalType": "uint64",
          "name": "zone",
          "type": "uint64"
        },
        {
          "indexed": false,
          "internalType": "bytes24",
          "name": "commitmentHash",
          "type": "bytes24"
        },
        {
          "components": [
            {
              "internalType": "enum UsingGameTypes.ActionType",
              "name": "actionType",
              "type": "uint8"
            },
            {
              "internalType": "uint128",
              "name": "data",
              "type": "uint128"
            }
          ],
          "indexed": false,
          "internalType": "struct UsingGameTypes.Action[]",
          "name": "actions",
          "type": "tuple[]"
        }
      ],
      "name": "CommitmentRevealed",
      "type": "event"
    },
    {
      "anonymous": false,
      "inputs": [
        {
          "indexed": true,
          "internalType": "uint256",
          "name": "avatarID",
          "type": "uint256"
        },
        {
          "indexed": true,
          "internalType": "uint64",
          "name": "epoch",
          "type": "uint64"
        }
      ],
      "name": "CommitmentVoid",
      "type": "event"
    },
    {
      "anonymous": false,
      "inputs": [
        {
          "indexed": true,
          "internalType": "uint256",
          "name": "avatarID",
          "type": "uint256"
        },
        {
          "indexed": true,
          "internalType": "uint64",
          "name": "epoch",
          "type": "uint64"
        },
        {
          "indexed": true,
          "internalType": "uint64",
          "name": "zone",
          "type": "uint64"
        },
        {
          "indexed": false,
          "internalType": "uint64",
          "name": "newPosition",
          "type": "uint64"
        }
      ],
      "name": "EnteredTheGame",
      "type": "event"
    },
    {
      "anonymous": false,
      "inputs": [
        {
          "indexed": true,
          "internalType": "uint256",
          "name": "avatarID",
          "type": "uint256"
        },
        {
          "indexed": true,
          "internalType": "uint64",
          "name": "epoch",
          "type": "uint64"
        },
        {
          "indexed": true,
          "internalType": "uint64",
          "name": "zoneWhenLeaving",
          "type": "uint64"
        },
        {
          "indexed": false,
          "internalType": "uint64",
          "name": "positionWhenLeaving",
          "type": "uint64"
        }
      ],
      "name": "LeftTheGame",
      "type": "event"
    },
    {
      "anonymous": false,
      "inputs": [
        {
          "indexed": true,
          "internalType": "uint256",
          "name": "avatarID",
          "type": "uint256"
        },
        {
          "indexed": false,
          "internalType": "uint64",
          "name": "epoch",
          "type": "uint64"
        },
        {
          "indexed": false,
          "internalType": "bytes24",
          "name": "commitmentHash",
          "type": "bytes24"
        }
      ],
      "name": "PreviousCommitmentNotRevealedEvent",
      "type": "event"
    },
    {
      "inputs": [
        {
          "internalType": "uint256",
          "name": "avatarID",
          "type": "uint256"
        }
      ],
      "name": "acknowledgeMissedReveal",
      "outputs": [],
      "stateMutability": "nonpayable",
      "type": "function"
    },
    {
      "inputs": [
        {
          "internalType": "uint256",
          "name": "avatarID",
          "type": "uint256"
        },
        {
          "components": [
            {
              "internalType": "enum UsingGameTypes.ActionType",
              "name": "actionType",
              "type": "uint8"
            },
            {
              "internalType": "uint128",
              "name": "data",
              "type": "uint128"
            }
          ],
          "internalType": "struct UsingGameTypes.Action[]",
          "name": "actions",
          "type": "tuple[]"
        },
        {
          "internalType": "bytes32",
          "name": "secret",
          "type": "bytes32"
        },
        {
          "internalType": "address payable",
          "name": "payee",
          "type": "address"
        }
      ],
      "name": "reveal",
      "outputs": [],
      "stateMutability": "payable",
      "type": "function"
    }
  ],
  "contractName": "GameReveal",
  "sourceName": "src/game/routes/GameReveal.sol",
  "bytecode": "0x610140604052348015610010575f5ffd5b5060405161184238038061184283398101604081905261002f9161008b565b60608101516001600160a01b03908116608090815260a0808401516101205283519052602083015160c052604083015160e05290910151166101005261011b565b80516001600160a01b0381168114610086575f5ffd5b919050565b5f60c082840312801561009c575f5ffd5b5060405160c081016001600160401b03811182821017156100cb57634e487b7160e01b5f52604160045260245ffd5b6040908152835182526020808501519083015283810151908201526100f260608401610070565b606082015261010360808401610070565b608082015260a0928301519281019290925250919050565b60805160a05160c05160e05161010051610120516116c761017b5f395f81816108f5015261092201525f50505f6105f001525f818161061101526106e201525f818161064401526106a201525f8181610d540152610d9401526116c75ff3fe608060405260043610610028575f3560e01c80637020b4631461002c578063c4928f791461004d575b5f5ffd5b348015610037575f5ffd5b5061004b610046366004611109565b610060565b005b61004b61005b366004611143565b61006c565b610069816100dc565b50565b61007885858585610215565b73ffffffffffffffffffffffffffffffffffffffff8116156100d55760405173ffffffffffffffffffffffffffffffffffffffff8216903480156108fc02915f818181858888f193505050501580156100d3573d5f5f3e3d5ffd5b505b5050505050565b5f81815260046020526040812080549091780100000000000000000000000000000000000000000000000090910467ffffffffffffffff16900361014c576040517f6599c9aa00000000000000000000000000000000000000000000000000000000815260040160405180910390fd5b5f6101556105e8565b50825490915067ffffffffffffffff808316780100000000000000000000000000000000000000000000000090920416036101bc576040517f175868d700000000000000000000000000000000000000000000000000000000815260040160405180910390fd5b815477ffffffffffffffffffffffffffffffffffffffffffffffff16825560405167ffffffffffffffff82169084907f2a5049124236181937ab55f90059005810a4645d620abe00ec963bea4e24d62f905f90a3505050565b5f5f61021f6105e8565b915091506102616040518060400160405280601181526020017f636865636b696e672070686173652e2e2e000000000000000000000000000000815250610735565b8015610299576040517f24f7f40f00000000000000000000000000000000000000000000000000000000815260040160405180910390fd5b5f60045f8881526020019081526020015f2090506102eb6040518060400160405280601681526020017f636865636b696e6720636f6d6d69746d656e742e2e2e00000000000000000000815250610735565b80547801000000000000000000000000000000000000000000000000900467ffffffffffffffff165f0361034b576040517f6599c9aa00000000000000000000000000000000000000000000000000000000815260040160405180910390fd5b6103896040518060400160405280601181526020017f636865636b696e672065706f63682e2e2e000000000000000000000000000000815250610735565b805467ffffffffffffffff848116780100000000000000000000000000000000000000000000000090920416146103ec576040517fd5b25b6300000000000000000000000000000000000000000000000000000000815260040160405180910390fd5b61042a6040518060400160405280601081526020017f636865636b696e6720686173682e2e2e00000000000000000000000000000000815250610735565b80546040805160208089028201810183528882529290911b9161048b9183918a908a9081905f9085015b828210156104805761047160408302860136819003810190611204565b81526020019060010190610454565b5050505050876107c4565b6104c96040518060400160405280601481526020017f7265736f6c76696e6720616374696f6e732e2e2e000000000000000000000000815250610735565b5f61052689868a8a808060200260200160405190810160405280939291908181526020015f905b8282101561051c5761050d60408302860136819003810190611204565b815260200190600101906104f0565b5050505050610871565b90506105666040518060400160405280600781526020017f2e2e2e646f6e6500000000000000000000000000000000000000000000000000815250610735565b61056f81610d08565b67ffffffffffffffff168567ffffffffffffffff168a7f073805a80a32bc148f9cf94f83c6a08921061adce6e090fc798f482777ec526e858c8c6040516105b8939291906112ea565b60405180910390a45050805477ffffffffffffffffffffffffffffffffffffffffffffffff169055505050505050565b5f80806106357f00000000000000000000000000000000000000000000000000000000000000007f00000000000000000000000000000000000000000000000000000000000000006113ac565b90505f610640610d51565b90507f000000000000000000000000000000000000000000000000000000000000000081101561069c576040517f3a5f7b5700000000000000000000000000000000000000000000000000000000815260040160405180910390fd5b5f6106c77f0000000000000000000000000000000000000000000000000000000000000000836113bf565b90506106d383826113ff565b6106de9060026113ac565b94507f00000000000000000000000000000000000000000000000000000000000000008361070d600288611412565b67ffffffffffffffff166107219190611432565b61072b90836113bf565b1093505050509091565b610069816040516024016107499190611449565b604080517fffffffffffffffffffffffffffffffffffffffffffffffffffffffffffffffe08184030181529190526020810180517bffffffffffffffffffffffffffffffffffffffffffffffffffffffff167f41304fac00000000000000000000000000000000000000000000000000000000179052610e24565b7fffffffffffffffffffffffffffffffffffffffffffffffff000000000000000083166107f057505050565b5f818360405160200161080492919061149c565b6040516020818303038152906040528051906020012090508067ffffffffffffffff19168467ffffffffffffffff19161461086b576040517fd13415b500000000000000000000000000000000000000000000000000000000815260040160405180910390fd5b50505050565b5f8381526001602090815260408083208151606081018352905460ff81161515825267ffffffffffffffff61010082048116948301859052690100000000000000000090910416918101919091529082806108d98363ffffffff8082169260209290921c1690565b915091505f6108e88383610e2d565b87519091505f90819081907f000000000000000000000000000000000000000000000000000000000000000010610920578951610942565b7f00000000000000000000000000000000000000000000000000000000000000005b90505f5b81811015610a39575f8b82815181106109615761096161150f565b602002602001015190505f600281111561097d5761097d611284565b8151600281111561099057610990611284565b036109c65760208101515f806109b38363ffffffff8082169260209290921c1690565b909b50995060019650610a399350505050565b6001815160028111156109db576109db611284565b03610a0c5760208101515f806109fe8363ffffffff8082169260209290921c1690565b909b509950610a3092505050565b600281516002811115610a2157610a21611284565b03610a30576001945050610a39565b50600101610946565b50610a448686610e66565b98508215610adf575f8c815260016020526040902080547fffffffffffffffffffffffffffffffffffffffffffffff000000000000000000169055610a89848d610e8c565b610a938686610e2d565b60405167ffffffffffffffff8b81168252918216918d16908e907f7c288ac7cb5673d5f9855e32893f40be1c4335163b8fd2446817f2289a16bc9a9060200160405180910390a4610cf9565b8115610c04575f8c8152600160208190526040822080547fffffffffffffffffffffffffffffffffffffffffffffff0000000000000000001661010067ffffffffffffffff8e1602179091179055610b368a610d08565b9050610bb6818e67ffffffffffffffff9182165f908152600560208181526040808420805486865260018085529286208054919098166901000000000000000000027fffffffffffffffffffffffffffffff0000000000000000ffffffffffffffffff909116179096559181528454918201855593825292902090910155565b60405167ffffffffffffffff8b8116825280831691908e16908f907f94a2388af485cc7e880b0a4e02ff47582b3a0b6b609460ecfedd5de853141ceb9060200160405180910390a450610cf9565b5f610c0f8787610e2d565b90508067ffffffffffffffff168567ffffffffffffffff1614610cb457610c36858e610e8c565b610cb4818e67ffffffffffffffff9182165f908152600560208181526040808420805486865260018085529286208054919098166901000000000000000000027fffffffffffffffffffffffffffffff0000000000000000ffffffffffffffffff909116179096559181528454918201855593825292902090910155565b505f8c815260016020526040902080547fffffffffffffffffffffffffffffffffffffffffffffff0000000000000000ff1661010067ffffffffffffffff8c16021790555b50505050505050509392505050565b5f63ffffffff82811690602084901c168280610d248484611074565b9092509050610d4763ffffffff831667ffffffff00000000602084901b1661153c565b9695505050505050565b5f7f000000000000000000000000000000000000000000000000000000000000000073ffffffffffffffffffffffffffffffffffffffff16610d9257504290565b7f000000000000000000000000000000000000000000000000000000000000000073ffffffffffffffffffffffffffffffffffffffff1663b80777ea6040518163ffffffff1660e01b8152600401602060405180830381865afa158015610dfb573d5f5f3e3d5ffd5b505050506040513d601f19601f82011682018060405250810190610e1f919061155c565b905090565b61006981611093565b5f5f5f610e3a8585611074565b9092509050610e5d63ffffffff831667ffffffff00000000602084901b1661153c565b95945050505050565b5f610e8563ffffffff841667ffffffff00000000602085901b1661153c565b9392505050565b67ffffffffffffffff82165f908152600560205260409020546001819003610eed5767ffffffffffffffff83165f908152600560205260409020805480610ed557610ed5611573565b600190038181905f5260205f20015f90559055505050565b5f828152600160208190526040909120546901000000000000000000900467ffffffffffffffff1690610f2090836113bf565b8167ffffffffffffffff1603610f6f5767ffffffffffffffff84165f908152600560205260409020805480610f5757610f57611573565b600190038181905f5260205f20015f9055905561086b565b67ffffffffffffffff84165f908152600560205260408120610f926001856113bf565b81548110610fa257610fa261150f565b5f9182526020808320919091015480835260018252604080842080547fffffffffffffffffffffffffffffff0000000000000000ffffffffffffffffff16690100000000000000000067ffffffffffffffff898116918202929092179092558a16855260059093529092208054929350839290919081106110255761102561150f565b5f91825260208083209091019290925567ffffffffffffffff8716815260059091526040902080548061105a5761105a611573565b600190038181905f5260205f20015f905590555050505050565b5f5f61107f846110b2565b915061108a836110b2565b90509250929050565b5f6a636f6e736f6c652e6c6f6790505f5f835160208501845afa505050565b5f5f8260030b126110da5760106110ca6008846115a0565b6110d491906115e2565b92915050565b601060086110e784611655565b6110f191906115a0565b6110fb91906115e2565b6110d490611655565b919050565b5f60208284031215611119575f5ffd5b5035919050565b803573ffffffffffffffffffffffffffffffffffffffff81168114611104575f5ffd5b5f5f5f5f5f60808688031215611157575f5ffd5b85359450602086013567ffffffffffffffff811115611174575f5ffd5b8601601f81018813611184575f5ffd5b803567ffffffffffffffff81111561119a575f5ffd5b8860208260061b84010111156111ae575f5ffd5b60209190910194509250604086013591506111cb60608701611120565b90509295509295909350565b803560038110611104575f5ffd5b80356fffffffffffffffffffffffffffffffff81168114611104575f5ffd5b5f6040828403128015611215575f5ffd5b506040805190810167ffffffffffffffff8111828210171561125e577f4e487b71000000000000000000000000000000000000000000000000000000005f52604160045260245ffd5b60405261126a836111d7565b8152611278602084016111e5565b60208201529392505050565b7f4e487b71000000000000000000000000000000000000000000000000000000005f52602160045260245ffd5b600381106112e6577f4e487b71000000000000000000000000000000000000000000000000000000005f52602160045260245ffd5b9052565b7fffffffffffffffffffffffffffffffffffffffffffffffff00000000000000008416815260406020820181905281018290525f8360608301825b858110156113745761133f8261133a856111d7565b6112b1565b6fffffffffffffffffffffffffffffffff61135c602085016111e5565b16602083015260409283019290910190600101611325565b509695505050505050565b7f4e487b71000000000000000000000000000000000000000000000000000000005f52601160045260245ffd5b808201808211156110d4576110d461137f565b818103818111156110d4576110d461137f565b7f4e487b71000000000000000000000000000000000000000000000000000000005f52601260045260245ffd5b5f8261140d5761140d6113d2565b500490565b67ffffffffffffffff82811682821603908111156110d4576110d461137f565b80820281158282048414176110d4576110d461137f565b602081525f82518060208401528060208501604085015e5f6040828501015260407fffffffffffffffffffffffffffffffffffffffffffffffffffffffffffffffe0601f83011684010191505092915050565b5f60408201848352604060208401528084518083526060850191506020860192505f5b818110156115035783516114d48482516112b1565b6020908101516fffffffffffffffffffffffffffffffff168482015293909301926040909201916001016114bf565b50909695505050505050565b7f4e487b71000000000000000000000000000000000000000000000000000000005f52603260045260245ffd5b67ffffffffffffffff81811683821601908111156110d4576110d461137f565b5f6020828403121561156c575f5ffd5b5051919050565b7f4e487b71000000000000000000000000000000000000000000000000000000005f52603160045260245ffd5b600381810b9083900b01637fffffff81137fffffffffffffffffffffffffffffffffffffffffffffffffffffffff80000000821217156110d4576110d461137f565b5f8160030b8360030b806115f8576115f86113d2565b7fffffffffffffffffffffffffffffffffffffffffffffffffffffffffffffffff81147fffffffffffffffffffffffffffffffffffffffffffffffffffffffff800000008314161561164c5761164c61137f565b90059392505050565b5f8160030b7fffffffffffffffffffffffffffffffffffffffffffffffffffffffff8000000081036116895761168961137f565b5f039291505056fea26469706673582212203872007d67a10b8059d53c66335086f5b2831c89bbd24a98832b22c86234f36264736f6c634300081c0033",
  "linkReferences": {},
  "deployedLinkReferences": {},
  "immutableReferences": {
    "10219": [
      {
        "length": 32,
        "start": 1604
      },
      {
        "length": 32,
        "start": 1698
      }
    ],
    "10222": [
      {
        "length": 32,
        "start": 1553
      },
      {
        "length": 32,
        "start": 1762
      }
    ],
    "10225": [
      {
        "length": 32,
        "start": 1520
      }
    ],
    "10232": [
      {
        "length": 32,
        "start": 2293
      },
      {
        "length": 32,
        "start": 2338
      }
    ],
    "10309": [
      {
        "length": 32,
        "start": 3412
      },
      {
        "length": 32,
        "start": 3476
      }
    ]
  },
  "inputSourceName": "project/src/game/routes/GameReveal.sol",
  "devdoc": {
    "errors": {
      "AvatarIsDead(uint256)": [
        {
          "params": {
            "avatarID": "the id of the dead avatar The avatar is dead, no action possible"
          }
        }
      ]
    },
    "events": {
      "AvatarDeposited(uint256,address,address)": {
        "params": {
          "avatarID": "the id of the NFT being deposited",
          "controller": "the account authorized to control the avatar in-game",
          "owner": "the account authorized to get the avatar back"
        }
      },
      "AvatarWithdrawn(uint256)": {
        "params": {
          "avatarID": "the id of the NFT being transfered out"
        }
      },
      "CommitmentCancelled(uint256,uint64)": {
        "params": {
          "avatarID": "avatar whose commitment is cancelled",
          "epoch": "epoch number on which this commit belongs to"
        }
      },
      "CommitmentMade(uint256,uint64,bytes24)": {
        "params": {
          "avatarID": "avatar whose commitment is made",
          "commitmentHash": "the hash of moves",
          "epoch": "epoch number on which this commit belongs to"
        }
      },
      "CommitmentRevealed(uint256,uint64,uint64,bytes24,(uint8,uint128)[])": {
        "params": {
          "actions": "the actions",
          "avatarID": "avatar id whose action is commited",
          "commitmentHash": "the hash of the moves",
          "epoch": "epoch number on which this commit belongs to"
        }
      },
      "CommitmentVoid(uint256,uint64)": {
        "params": {
          "avatarID": "the account that made the commitment",
          "epoch": "epoch number on which this commit belongs to"
        }
      },
      "EnteredTheGame(uint256,uint64,uint64,uint64)": {
        "params": {
          "avatarID": "the id of the NFT being added",
          "epoch": "the epoch at which it happened",
          "newPosition": "the resulting avatar's position",
          "zone": "the resulting avatar's zone"
        }
      },
      "LeftTheGame(uint256,uint64,uint64,uint64)": {
        "params": {
          "avatarID": "the id of the NFT being removed",
          "epoch": "the epoch at which it happened",
          "positionWhenLeaving": "the avatar's position when leaving",
          "zoneWhenLeaving": "the avatar's zone when leaving"
        }
      }
    },
    "kind": "dev",
    "methods": {},
    "version": 1
  },
  "evm": {
    "gasEstimates": {
      "creation": {
        "codeDepositCost": "1166200",
        "executionCost": "infinite",
        "totalCost": "infinite"
      },
      "external": {
        "acknowledgeMissedReveal(uint256)": "infinite",
        "reveal(uint256,(uint8,uint128)[],bytes32,address)": "infinite"
      }
    }
  },
  "storageLayout": {
    "storage": [
      {
        "astId": 10241,
        "contract": "project/src/game/routes/GameReveal.sol:GameReveal",
        "label": "_players",
        "offset": 0,
        "slot": "0",
        "type": "t_mapping(t_uint256,t_struct(Player)8631_storage)"
      },
      {
        "astId": 10246,
        "contract": "project/src/game/routes/GameReveal.sol:GameReveal",
        "label": "_avatars",
        "offset": 0,
        "slot": "1",
        "type": "t_mapping(t_uint256,t_struct(Avatar)8638_storage)"
      },
      {
        "astId": 10251,
        "contract": "project/src/game/routes/GameReveal.sol:GameReveal",
        "label": "_ownedAvatars",
        "offset": 0,
        "slot": "2",
        "type": "t_mapping(t_address,t_array(t_uint256)dyn_storage)"
      },
      {
        "astId": 10255,
        "contract": "project/src/game/routes/GameReveal.sol:GameReveal",
        "label": "_ownedAvatarsIndex",
        "offset": 0,
        "slot": "3",
        "type": "t_mapping(t_uint256,t_uint256)"
      },
      {
        "astId": 10260,
        "contract": "project/src/game/routes/GameReveal.sol:GameReveal",
        "label": "_commitments",
        "offset": 0,
        "slot": "4",
        "type": "t_mapping(t_uint256,t_struct(Commitment)8647_storage)"
      },
      {
        "astId": 10265,
        "contract": "project/src/game/routes/GameReveal.sol:GameReveal",
        "label": "_zones",
        "offset": 0,
        "slot": "5",
        "type": "t_mapping(t_uint64,t_struct(Zone)8642_storage)"
      }
    ],
    "types": {
      "t_address": {
        "encoding": "inplace",
        "label": "address",
        "numberOfBytes": "20"
      },
      "t_array(t_uint256)dyn_storage": {
        "base": "t_uint256",
        "encoding": "dynamic_array",
        "label": "uint256[]",
        "numberOfBytes": "32"
      },
      "t_bool": {
        "encoding": "inplace",
        "label": "bool",
        "numberOfBytes": "1"
      },
      "t_bytes24": {
        "encoding": "inplace",
        "label": "bytes24",
        "numberOfBytes": "24"
      },
      "t_mapping(t_address,t_array(t_uint256)dyn_storage)": {
        "encoding": "mapping",
        "key": "t_address",
        "label": "mapping(address => uint256[])",
        "numberOfBytes": "32",
        "value": "t_array(t_uint256)dyn_storage"
      },
      "t_mapping(t_uint256,t_struct(Avatar)8638_storage)": {
        "encoding": "mapping",
        "key": "t_uint256",
        "label": "mapping(uint256 => struct UsingGameTypes.Avatar)",
        "numberOfBytes": "32",
        "value": "t_struct(Avatar)8638_storage"
      },
      "t_mapping(t_uint256,t_struct(Commitment)8647_storage)": {
        "encoding": "mapping",
        "key": "t_uint256",
        "label": "mapping(uint256 => struct UsingGameTypes.Commitment)",
        "numberOfBytes": "32",
        "value": "t_struct(Commitment)8647_storage"
      },
      "t_mapping(t_uint256,t_struct(Player)8631_storage)": {
        "encoding": "mapping",
        "key": "t_uint256",
        "label": "mapping(uint256 => struct UsingGameTypes.Player)",
        "numberOfBytes": "32",
        "value": "t_struct(Player)8631_storage"
      },
      "t_mapping(t_uint256,t_uint256)": {
        "encoding": "mapping",
        "key": "t_uint256",
        "label": "mapping(uint256 => uint256)",
        "numberOfBytes": "32",
        "value": "t_uint256"
      },
      "t_mapping(t_uint64,t_struct(Zone)8642_storage)": {
        "encoding": "mapping",
        "key": "t_uint64",
        "label": "mapping(uint64 => struct UsingGameTypes.Zone)",
        "numberOfBytes": "32",
        "value": "t_struct(Zone)8642_storage"
      },
      "t_struct(Avatar)8638_storage": {
        "encoding": "inplace",
        "label": "struct UsingGameTypes.Avatar",
        "members": [
          {
            "astId": 8633,
            "contract": "project/src/game/routes/GameReveal.sol:GameReveal",
            "label": "inGame",
            "offset": 0,
            "slot": "0",
            "type": "t_bool"
          },
          {
            "astId": 8635,
            "contract": "project/src/game/routes/GameReveal.sol:GameReveal",
            "label": "position",
            "offset": 1,
            "slot": "0",
            "type": "t_uint64"
          },
          {
            "astId": 8637,
            "contract": "project/src/game/routes/GameReveal.sol:GameReveal",
            "label": "zoneIndex",
            "offset": 9,
            "slot": "0",
            "type": "t_uint64"
          }
        ],
        "numberOfBytes": "32"
      },
      "t_struct(Commitment)8647_storage": {
        "encoding": "inplace",
        "label": "struct UsingGameTypes.Commitment",
        "members": [
          {
            "astId": 8644,
            "contract": "project/src/game/routes/GameReveal.sol:GameReveal",
            "label": "hash",
            "offset": 0,
            "slot": "0",
            "type": "t_bytes24"
          },
          {
            "astId": 8646,
            "contract": "project/src/game/routes/GameReveal.sol:GameReveal",
            "label": "epoch",
            "offset": 24,
            "slot": "0",
            "type": "t_uint64"
          }
        ],
        "numberOfBytes": "32"
      },
      "t_struct(Player)8631_storage": {
        "encoding": "inplace",
        "label": "struct UsingGameTypes.Player",
        "members": [
          {
            "astId": 8628,
            "contract": "project/src/game/routes/GameReveal.sol:GameReveal",
            "label": "owner",
            "offset": 0,
            "slot": "0",
            "type": "t_address"
          },
          {
            "astId": 8630,
            "contract": "project/src/game/routes/GameReveal.sol:GameReveal",
            "label": "controller",
            "offset": 0,
            "slot": "1",
            "type": "t_address"
          }
        ],
        "numberOfBytes": "64"
      },
      "t_struct(Zone)8642_storage": {
        "encoding": "inplace",
        "label": "struct UsingGameTypes.Zone",
        "members": [
          {
            "astId": 8641,
            "contract": "project/src/game/routes/GameReveal.sol:GameReveal",
            "label": "avatars",
            "offset": 0,
            "slot": "0",
            "type": "t_array(t_uint256)dyn_storage"
          }
        ],
        "numberOfBytes": "32"
      },
      "t_uint256": {
        "encoding": "inplace",
        "label": "uint256",
        "numberOfBytes": "32"
      },
      "t_uint64": {
        "encoding": "inplace",
        "label": "uint64",
        "numberOfBytes": "8"
      }
    }
  },
  "userdoc": {
    "errors": {
      "AvatarAlreadyInGame(uint256)": [
        {
          "notice": "happen when attempting to enter an avatar already in the game"
        }
      ],
      "AvatarIsDead(uint256)": [
        {
          "notice": "Player have to reveal if they can"
        }
      ],
      "AvatarNotAvailable(uint256)": [
        {
          "notice": "happen when attempting to move an avatar not in the game"
        }
      ],
      "AvatarNotInGame(uint256)": [
        {
          "notice": "happen when attempting to move an avatar not in the game"
        }
      ],
      "AvatarNotReady(uint256)": [
        {
          "notice": "happen when attempting to move an avatar that just entered the game. \\  It needs to wait the next epoch"
        }
      ],
      "AvatarStillInGame(uint256)": [
        {
          "notice": "happen when attempting to extract an avatar still in the game"
        }
      ],
      "CanStillReveal()": [
        {
          "notice": "Player have to reveal if they can prevent player from acknowledging missed reveal if there is still time to reveal."
        }
      ],
      "CommitmentHashNotMatching()": [
        {
          "notice": "Player have to reveal their commitment using the exact same move values  If they provide different value, the commitment hash will differ and Game will reject their reveal."
        }
      ],
      "GameNotStarted()": [
        {
          "notice": "Game has not started yet, can't perform any action"
        }
      ],
      "ImpossibleConfiguration()": [
        {
          "notice": "The cell configuration is invalid This can happen win debug mode where admin can setup cell bypassing moves rules For example when setting up neighborood configuration that would require a cell to have negative life"
        }
      ],
      "InCommitmentPhase()": [
        {
          "notice": "When in Commit phase, player can make new commitment but they cannot reveal their move yet."
        }
      ],
      "InRevealPhase()": [
        {
          "notice": "When in Reveal phase, it is not possible to commit new moves or cancel previous commitment  During Reveal phase, players have to reveal their commitment, if not already done."
        }
      ],
      "InvalidData()": [
        {
          "notice": "happen when transfering an avatar with invalid data"
        }
      ],
      "InvalidEpoch()": [
        {
          "notice": "Player can only reveal their move in the same epoch they commited.abi  If a player reveal later it can only do to minimize the reserve burn cost by calling : `acknowledgeMissedReveal`"
        }
      ],
      "NoCommitmentToCancel()": [
        {
          "notice": "There is no commitment registered, cannot cancel."
        }
      ],
      "NotAuthorizedController(address)": [
        {
          "notice": "happen when an unauthorized account attempt to control an avatar"
        }
      ],
      "NotAuthorizedOwner(address)": [
        {
          "notice": "happen when an unauthorized account attempt to withdraw an avatar"
        }
      ],
      "NothingToReveal()": [
        {
          "notice": "Player can only reveal moves they commited."
        }
      ],
      "PreviousCommitmentNotRevealed()": [
        {
          "notice": "Previous commitment need to be revealed before making a new one. Even if the corresponding reveal phase has passed.\\  It is also not possible to withdraw any amount from reserve until the commitment is revealed.\\If player lost the information to reveal, it can acknowledge failure which will burn all its reserve.\\"
        }
      ],
      "UnableToExitFromThisPosition(uint64)": [
        {
          "notice": "happen when attempting to leave the game from a non-exit position"
        }
      ]
    },
    "events": {
      "AvatarDeposited(uint256,address,address)": {
        "notice": "An avatar has been deposited, ready to enter"
      },
      "AvatarWithdrawn(uint256)": {
        "notice": "A avatar has been withdrawn"
      },
      "CommitmentCancelled(uint256,uint64)": {
        "notice": "A player has cancelled its current commitment (before it reached the reveal phase)"
      },
      "CommitmentMade(uint256,uint64,bytes24)": {
        "notice": "A player has commited to make a move and reveal it on the reveal phase"
      },
      "CommitmentRevealed(uint256,uint64,uint64,bytes24,(uint8,uint128)[])": {
        "notice": "Player has revealed its previous commitment"
      },
      "CommitmentVoid(uint256,uint64)": {
        "notice": "A player has acknowledged its failure to reveal its previous commitment"
      },
      "EnteredTheGame(uint256,uint64,uint64,uint64)": {
        "notice": "A avatar has entered the game"
      },
      "LeftTheGame(uint256,uint64,uint64,uint64)": {
        "notice": "An avatar has left the game"
      }
    },
    "kind": "user",
    "methods": {},
    "version": 1
  },
  "argsData": "0x0000000000000000000000000000000000000000000000000000000000000000000000000000000000000000000000000000000000000000000000000000001e000000000000000000000000000000000000000000000000000000000000000500000000000000000000000000000000000000000000000000000000000000000000000000000000000000003ab3844d5d6614febbe19d59244a815cff691a170000000000000000000000000000000000000000000000000000000000000014",
  "transaction": {
    "hash": "0x07f7e6357860e2fcdb961f58af0800c1b0bb653d9399a626ecfa54be8b705cd1",
    "nonce": "0x9",
    "origin": "0x61c461ecc993aadeb7e4b47e96d1b8cc37314b20"
  }
}